:020000040800F2
:10000000280C0020B94400082D0200082F02000827
:1000100033020008370200083B020008000000001D
:100020000000000000000000000000003F02000887
:1000300041020008000000004302000845020008D9
:10004000D3440008D3440008D3440008D344000834
:10005000D3440008D3440008D3440008D344000824
:10006000D3440008D3440008D3440008D344000814
:10007000D3440008D3440008D3440008D344000804
:10008000D3440008D3440008D3440008D3440008F4
:10009000D3440008D3440008D3440008D3440008E4
:1000A000D3440008D3440008D3440008D3440008D4
:1000B0006302000847020008D3440008D344000844
:1000C000D3440008D3440008D3440008D3440008B4
:1000D000D344000813240008D3440008D344000884
:1000E000D3440008D3440008D3440008DFF810D0FC
:1000F00004F0B2FF0048004705010008AFF300809C
:10010000280C002008B500F0BDF800F02EFA00F031
:1001100052FA01F03FF801F069FC01F0FEFA6420A8
:1001200001F009FD102337A20021084601F0CFFBA2
:10013000102336A20221002001F0C9FB102335A2B2
:100140000521002001F0C3FB4FF4FA7001F0DCFC44
:1001500001F00AFD4FF4FA7001F0D6FC01F05BFEED
:1001600000F090FF2D4880782D4908702B4880883A
:100170002C4908804FF4E13001F07EFE002001F0B0
:10018000DEFE00F03BFA00F05EFB00F02CFE642087
:1001900001F0D1FC00F0C3FC00F05CFC00F017FCA7
:1001A00000F09CFC00F0BAF902F094F900201E491E
:1001B000086004F02FFB1C49086804F053FE00900F
:1001C00000231A460121042004F043FB00231A46B1
:1001D0000121042004F03DFB01236A46194618461C
:1001E00004F037FB01236A461946184604F031FB38
:1001F0000A2001F0A0FC04E004F05EFB0A2001F0FC
:100200009AFCF9E7506F733A00000000456E633ABC
:1002100000000000416E673A000000003C0400202E
:100220001F0000201C00002070070020704700BF46
:10023000FEE700BFFEE700BFFEE700BFFEE7704736
:1002400070477047704710B501210D4803F01BFF40
:10025000012805D100F0C0F80121094803F010FF82
:1002600010BD10B50121880703F00DFF012805D14D
:1002700004F016FC0121880703F002FF10BD000006
:100280000004004008B5684602F0E9FB012108209F
:1002900002F016FE2020ADF8000002208DF80200CA
:1002A00048208DF803006946934802F04DFB40203A
:1002B000ADF8000002208DF8020048208DF8030000
:1002C00069468D4802F040FB8020ADF80000022016
:1002D0008DF8020048208DF803006946864802F038
:1002E00033FB0121042002F0EBFD4FF48070ADF8E8
:1002F000000002208DF8020010208DF803006946EE
:100300007E4802F021FB4FF480717C4802F0CBFB69
:1003100008BD10B57A480078012804D0022816D00C
:10032000032856D134E077480078012805D1002011
:10033000744908707249087008E072480078022811
:1003400004D100206F4908706D49087042E06D4883
:100350000078012812D16C49B1F9100004F067FD52
:1003600004466A480168204604F02AFC6749086090
:100370000020644908706249087008E0614800780C
:10038000022804D100205F4908705D49087021E00F
:100390005C480078012812D15B49B1F9100004F0E3
:1003A00046FD044659480168204604F05EFC574962
:1003B00008600020534908705149087008E051480E
:1003C0000078022804D100204E4908704C4908707A
:1003D00000E000BF00BF10BD10B54D48007820B14F
:1003E00001281AD0022870D170E08021424802F022
:1003F0003EFB48B14021404802F039FB20B12021AA
:100400003D4802F034FB10B901204149087000203A
:1004100040490870404908706CE08021364802F07D
:1004200026FB48B14021344802F021FB20B12021B5
:10043000314802F01CFBA0BB80212F4802F017FBC3
:1004400018B901202E49087010E040212A4802F016
:100450000EFB18B902202A49087007E0202126481F
:1004600002F005FB10B90320254908702A480078DE
:1004700010B901202849087026480078401C2549F9
:1004800008700846007864281EDD02201D490870A7
:100490000020204908702049087002201C4908707B
:1004A00012E0FFE71C48007801280AD115490870BE
:1004B0000020184908701849087002201449087073
:1004C00002E000201249087014E012E080210A487E
:1004D00002F0CDFA60B14021074802F0C8FA38B105
:1004E0002021054802F0C3FA10B100200849087025
:1004F00000E000BF00BF10BD000C0140000801403B
:1005000022000020210000203C0400207007002071
:100510002000002023000020240000200EB501212F
:10052000084602F0DAFC0020ADF806006320ADF8C2
:10053000040041F61F40ADF800000020ADF80200B5
:100540008DF8080069464FF0804002F077FF0121E6
:10055000880703F095FD01221146900703F0E5FAA4
:100560000121880703F0C6FA0EBD0EB50121022055
:1005700002F0B3FC0020ADF806006320ADF80400E3
:1005800041F61F40ADF800000020ADF802008DF8E4
:1005900008006946184802F051FF0121164803F08F
:1005A0006FFD01221146144803F0BFFA01211248E1
:1005B00003F0A0FA0EBD08B54FF4407002F0F6F853
:1005C0001D208DF8000001208DF801008DF802003B
:1005D0008DF80300684602F0EEF81C208DF800004C
:1005E00002208DF8010001208DF802008DF8030033
:1005F000684602F0E0F808BD0004004000B587B08E
:100600000121080302F05CFC0121042002F058FCE7
:100610002020ADF8180018208DF81B0003208DF85D
:100620001A0006A9F84802F08FF98020ADF81800EA
:1006300018208DF81B0003208DF81A0006A9F24837
:1006400002F082F94020ADF8180004208DF81B005C
:1006500003208DF81A0006A9EB4802F075F9102066
:10066000ADF818008DF81B0003208DF81A0006A9BC
:10067000E54802F069F91021E34802F012FA00217E
:10068000E24802F04CFD0020ADF804004FF4827007
:10069000ADF806000020ADF808000220ADF80A0011
:1006A0000120ADF80C004002ADF80E002820ADF896
:1006B00010000020ADF812000720ADF8140001A9C9
:1006C000D24802F087FC0121D04802F028FD07B093
:1006D00000BD0146002206E0501C80B20246C82838
:1006E00001DD00207047C948008900F002000028A1
:1006F000F2D0C6488181002206E0501C80B202463A
:10070000C82801DD0020EDE7C048008900F00100A5
:100710000028F2D0BD488089E4E77FB505460C4645
:1007200000261021B84802F0BEF945F080008DF88F
:100730000800200E8DF80900200C8DF80A00200A10
:100740008DF80B00E0B28DF80C009DF80800FFF763
:10075000C0FFC0B28DF800009DF80900FFF7B9FF97
:10076000C0B28DF801009DF80A00FFF7B2FFC0B2D9
:100770008DF802009DF80B00FFF7ABFFC0B28DF8BB
:1007800003009DF80C00FFF7A4FFC0B28DF8040031
:1007900010219D4802F085F99DF80060304604B0B4
:1007A00070BD7FB506460D4600241021964802F024
:1007B0007AF98DF80860280E8DF80900280C8DF85C
:1007C0000A00280A8DF80B00E8B28DF80C009DF89D
:1007D0000800FFF77EFFC0B28DF800009DF8090009
:1007E000FFF777FFC0B28DF801009DF80A00FFF710
:1007F00070FFC0B28DF802009DF80B00FFF769FF93
:10080000C0B28DF803009DF80C00FFF762FFC0B284
:100810008DF8040010217C4802F043F99DF8000097
:100820007B4908809DF8014024029DF802000443A2
:1008300024029DF80300044324029DF804000443AD
:10084000204604B070BD10B504210020FFF765FFFD
:1008500000210320FFF761FF00210520FFF75DFF66
:1008600000210620FFF759FF0E210820FFF755FF52
:1008700068490920FFF751FF67490A20FFF74DFF3C
:1008800000210B20FFF749FF05211020FFF745FF4E
:100890000A211120FFF741FF10211320FFF73DFF30
:1008A00010211420FFF739FF10211520FFF735FF25
:1008B00000212020FFF731FF00212120FFF72DFF2D
:1008C0004FF480712320FFF728FF4FF4805124203C
:1008D000FFF723FF00212520FFF71FFF4FF4804182
:1008E0002620FFF71AFF4FF480312720FFF715FF6E
:1008F0004FF480412820FFF710FF4FF480512A2049
:10090000FFF70BFF0A212B20FFF707FF4FF4807141
:100910002C20FFF702FF00212D20FFF7FEFE002113
:100920003320FFF7FAFE00213420FFF7F6FE4FF4E4
:1009300080613820FFF7F1FE00213920FFF7EDFE3E
:1009400036493A20FFF7E9FE00213D20FFF7E5FE9A
:1009500033496020FFF7E1FE32496120FFF7DDFEF9
:1009600031496220FFF7D9FE30496320FFF7D5FEF9
:100970006FF080616420FFF7D0FE2D496520FFF7FE
:10098000CCFE2C496620FFF7C8FE2B496720FFF7F5
:10099000C4FE2A496820FFF7C0FE4FF477016920A2
:1009A000FFF7BBFE26496C20FFF7B7FE00216D2044
:1009B000FFF7B3FE00216E20FFF7AFFE2149702044
:1009C000FFF7ABFE0421204802F06DF810BD70B5B2
:1009D0000024002600251D48408A84B21B48808AD6
:1009E00086B21B480088A0420DD0194804804FF4FD
:1009F000C025202C00DB202445EA04253543294668
:100A00001020FFF78AFE70BD000801400030014051
:100A10002C000020060601000004080070170100E9
:100A200054B5AAAAAA54954A292949242242101049
:100A30007D77BBB556552949224240005680FFFFBD
:100A4000530141041E000CC4000C01403C04002072
:100A50002800002070B500250024FE48C08885B21B
:100A6000FD480088A84238D0FB480580FB4C102D7B
:100A70001DD008DC092D2BD2DFE805F02825222A1D
:100A80001F2A2A2A1C00202D0ED0402D09D0802D8F
:100A900004D0B5F5807F1BD100BF19E044F080740D
:100AA00016E044F0007413E044F0407410E044F0A9
:100AB00080640DE044F0A0640AE044F0C06407E004
:100AC00044F0E06404E044F0006401E000BF00BFD3
:100AD00000BF21466C20FFF720FE70BD70B5DD48D9
:100AE000B0F90A40B0F90C50B0F90E60DC4800686B
:100AF000A84209D0DA48056029462620FFF70DFEF6
:100B000031462820FFF709FED6480068A04205D0EC
:100B1000D448046021462720FFF7FFFD70BD2DE972
:100B2000F84F002700BF00BF4FF48049C82400BF22
:100B3000C848B0F9060010284AD008DC012871D056
:100B4000042861D0052870D008286DD14EE02028F7
:100B500030D0402820D0802810D0B0F5807FF4D14C
:100B6000200204F064F90746484604F069F9824619
:100B70005146384604F0AEF8074681E0E00104F043
:100B800056F90746484604F05BF982465146384616
:100B900004F0A0F8074673E0A00104F048F9074606
:100BA000484604F04DF982465146384604F092F822
:100BB000074665E0600104F03AF90746484604F04C
:100BC0003FF982465146384604F084F8074657E01C
:100BD000200104F02CF90746484604F031F982461A
:100BE0005146384604F076F8074649E0E00004F044
:100BF0001EF90746484604F023F982465146384616
:100C000004F068F807463BE0A00004F010F907463E
:100C1000484604F015F982465146384604F05AF821
:100C200007462DE010E000E01CE004EB440004F077
:100C3000FEF80746484604F003F982465146384616
:100C400004F048F807461BE0204604F0F0F8074699
:100C5000484604F0F5F882465146384604F03AF822
:100C600007460DE0200204F0E2F80746484604F08B
:100C7000E7F882465146384604F02CF8074600BF94
:100C800000BF7949384603F0F3FF074676493846F6
:100C900004F020F8824604F0FEF8054642F2107196
:100CA00005FB01F004F0CCF88346394603F0DDFF84
:100CB000824604F0F0F88046404604F0C1F807464A
:100CC0006949384604F006F807466749384603F094
:100CD000CFFF8346280404F0B3F85946009003F090
:100CE0006FFF824604F0BEF8064631463A20FFF711
:100CF00014FD00213920FFF710FDBDE8F88F10B575
:100D00005448B0F9340059490968884201D001209B
:100D100000E000204F49B1F93610554A126891425F
:100D200001D0012100E00021084328B34948B0F96F
:100D300034004E4908604748B0F936004C49086015
:100D40000846008800044B4908604848008880B283
:100D50000968084347490860084601682D20FFF7E5
:100D6000DCFC4448008800B23A4988864148006863
:100D7000000C00B2C88618E03F4800683D49096889
:100D8000884212D03B4800683B49086039480168F6
:100D90002D20FFF7C2FC3748008800B22D49888615
:100DA00034480068000C00B2C88610BD2DE9F0413F
:100DB000002400260027002500213920FFF7F1FC40
:100DC0000446204604F033F8054620B2214908873E
:100DD000200C00B2488729480168284603F07AFFB2
:100DE0000546BDE8F08110B525496C20FFF795FC5C
:100DF00024496D20FFF791FC23490A20FFF78DFC61
:100E000022491020FFF789FC0A211120FFF785FCF9
:100E100004210020FFF781FC4FF440217020FFF7F0
:100E20007CFC4FF4FA711320FFF777FC4FF47A71D2
:100E30002420FFF772FC4CF250312520FFF76DFCA7
:100E40004FF4FA712620FFF768FC11492720FFF7BD
:100E500064FC1FE03C0400202A00002053014100F4
:100E60003C0000204000002000401C4648000020BC
:100E70004C00002000000020500000205400002002
:100E8000C300010013E30001100718000614060058
:100E900080841E004FF42F712820FFF73EFC4FF492
:100EA000AF612A20FFF739FC0A212B20FFF735FC20
:100EB00000212020FFF731FC40F204413820FFF7E9
:100EC0002CFC00213920FFF728FC65493A20FFF768
:100ED00024FC10BD70B5044621462D20FFF71DFCF3
:100EE00000212120FFF719FC00212120FFF715FC2C
:100EF00000212120FFF755FC5A490860002512E027
:100F0000012000F018FE00212120FFF74AFC55497E
:100F100008605548007800F02800282801D140F6E4
:100F2000B835681C85B240F6B8308542E8DB70BD44
:100F30002DE9F047044642F228312620FFF7EDFB69
:100F40004A492720FFF7E9FB42F228312820FFF722
:100F5000E4FB47492A20FFF7E0FB4FF4FA712B200E
:100F6000FFF7DBFB4FF47A342046FFF7B3FF4FF077
:100F7000000915E000213920FFF713FC824603F039
:100F800064FF074600223B4B03F0E2FE054603F0F8
:100F900096FF394908600A2000F0CDFD09F10109EA
:100FA000B9F1050FE6DB42F210712420FFF7B5FB23
:100FB00032492520FFF7B1FB41F288312620FFF7A7
:100FC000ACFB2F492720FFF7A8FB41F6583128201A
:100FD000FFF7A3FB43F2B0612A20FFF79EFB6421D9
:100FE0002B20FFF79AFB4FF47A7000F0A4FD224902
:100FF0000968601AFFF76EFF4FF47A7000F09BFDEE
:10100000BDE8F08770B5002400254FF480613420DE
:10101000FFF783FB40F204613820FFF77EFB0121DC
:101020002020FFF77AFB00BF00213B20FFF7B9FB30
:101030000228F9D000213B20FFF7B3FBC4B2022CF9
:1010400003D102213B20FFF768FB00213620FFF788
:10105000A8FB00213620FFF7A4FB054670BD000069
:10106000D0073300300000202E000020404B4C0001
:10107000905F0100000010403800002020A1070010
:1010800080841E00002042490880012048804FF4DF
:10109000165088800120C880122008814FF4FA7011
:1010A0004881C8208881C8810882062048820220A1
:1010B00088820020C882088348838883C883088484
:1010C00048848884C884088548858885C8850886BA
:1010D00048868886C886088748878887C887A1F891
:1010E0004000A1F84200A1F84400A1F84600A1F890
:1010F0004800A1F84A00A1F84C00A1F84E00A1F860
:101100005000A1F85200A1F85400A1F85600A1F82F
:101110005800A1F85A00A1F85C00A1F85E00A1F8FF
:101120006000A1F86200A1F8C800A1F8CA00A1F807
:10113000CC00A1F8CE00A1F8D000A1F8D200A1F80F
:10114000D400A1F8D600A1F8D800A1F8DA00A1F8DF
:10115000DC00A1F8DE00A1F8E000A1F8E200A1F8AF
:10116000E400A1F8E600A1F8E800A1F8EA00A1F87F
:10117000EC00A1F8EE00A1F8F000A1F8F200A1F84F
:10118000F400A1F8F600A1F8F800A1F8FA00704701
:101190003C04002008B501211D2001F091FE6846A5
:1011A00001F05DFC0120ADF8000002208DF8020086
:1011B00048208DF803006946D44801F0C5FB0220A1
:1011C000ADF800008DF8020048208DF80300694654
:1011D000CE4801F0B9FB0420ADF8000001208DF8E5
:1011E000020048208DF803006946C84801F0ACFBB6
:1011F0000820ADF8000001208DF8020048208DF88D
:1012000003006946C14801F09FFB1020ADF80000C3
:1012100002208DF8020010208DF803006946BB48BB
:1012200001F092FB2020ADF8000002208DF80200B2
:1012300010208DF803006946B44801F085FB40207A
:10124000ADF8000002208DF8020010208DF8030098
:101250006946AE4801F078FB8020ADF8000002201E
:101260008DF8020010208DF803006946A74801F0B0
:101270006BFB4FF48070ADF8000002208DF8020087
:1012800010208DF803006946A04801F05DFB4FF483
:101290000070ADF8000002208DF8020018208DF8D3
:1012A00003006946994801F04FFB4FF48060ADF8A8
:1012B000000002208DF8020004208DF8030069462A
:1012C000924801F041FB4FF40060ADF800000220AD
:1012D0008DF8020010208DF8030069468B4801F05C
:1012E00033FB4FF48050ADF8000002208DF802006F
:1012F00010208DF803006946844801F025FB012089
:10130000ADF8000002208DF8020010208DF80300D7
:1013100069467F4801F018FB0220ADF800008DF807
:10132000020010208DF803006946794801F00CFB9B
:101330000420ADF8000002208DF8020010208DF886
:1013400003006946724801F0FFFA0820ADF800007A
:1013500002208DF8020048208DF8030069466C4891
:1013600001F0F2FA1020ADF8000002208DF8020022
:1013700048208DF803006946654801F0E5FA202011
:10138000ADF8000002208DF8020048208DF803001F
:1013900069465F4801F0D8FA4020ADF8000002200D
:1013A0008DF8020048208DF803006946584801F086
:1013B000CBFA8020ADF8000002208DF80200482012
:1013C0008DF803006946524801F0BEFA4FF4807070
:1013D000ADF8000001208DF8020014208DF8030004
:1013E00069464B4801F0B0FA4FF40070ADF80000C8
:1013F00001208DF8020014208DF80300694644484E
:1014000001F0A2FA4FF48060ADF8000002208DF8E0
:10141000020048208DF8030069463D4801F094FA27
:101420004FF40060ADF8000002208DF80200482063
:101430008DF803006946364801F086FA4FF4805073
:10144000ADF8000002208DF8020010208DF8030096
:1014500069462F4801F078FA4FF40050ADF80000CB
:1014600002208DF8020010208DF8030069462848FC
:1014700001F06AFA4FF48040ADF8000002208DF8C8
:10148000020048208DF803006946214801F05CFA0B
:101490004FF40040ADF8000002208DF8020010204B
:1014A0008DF8030069461A4801F04EFA4FF40050D7
:1014B000ADF8000002208DF8020014208DF8030022
:1014C0006946144801F040FA4FF48040ADF800003E
:1014D00002208DF8020014208DF8030069460D48A3
:1014E00001F032FA4FF40040ADF8000002208DF810
:1014F000020048208DF803006946064801F024FAEE
:101500000121054801F0F1FA08BD00000008014082
:10151000000C0140001001400002300010B54FF4F3
:101520008041F94801F0BDFA4FF40051F64801F04E
:10153000B8FA4FF40051F44801F0B5FA4FF4804185
:10154000F14801F0B0FA10BD10B54FF48041EE48FB
:1015500001F0A7FA4FF40051EB4801F0A4FA4FF460
:101560000051E94801F09DFA10BD10B54FF48041DB
:10157000E54801F096FA4FF48041E34801F093FA10
:1015800010BD2DE9F04105462C464FF48041DE4860
:1015900001F089FA00261CE0274607F08007802F1B
:1015A00004D1B901D84801F07CFA04E04FF40051AD
:1015B000D54801F078FA6006040E4FF48041D24815
:1015C00001F06FFA4FF48041CF4801F06CFA701CC3
:1015D000C6B2082EE0DBBDE8F08110B50446FFF787
:1015E0009DFF7820FFF7CDFFFFF7BFFF0020FFF73B
:1015F000C8FFFFF7BAFF2046FFF7C3FFFFF7B5FFAD
:10160000FFF7A2FF10BD10B50446FFF787FF782053
:10161000FFF7B7FFFFF7A9FF4020FFF7B2FFFFF783
:10162000A4FF2046FFF7ADFFFFF79FFFFFF78CFFFA
:1016300010BD70B504460D461DB1E0B2FFF7E3FFE3
:1016400002E0E0B2FFF7C9FF70BD70B506460024A6
:1016500018E004F1B0000021FFF7EBFF002108467D
:10166000FFF7E7FF00211020FFF7E3FF002505E06B
:1016700001213046FFF7DDFF681CC5B2802DF7DB86
:10168000601CC4B2082CE4DB70BD06E041F66501C5
:1016900000E0491E0029FCD1401E0028F6D1704709
:1016A000014605E0002001E0421CD0B27B28FBDBB4
:1016B0000A1EA1F10101F5D1704770B504460D462F
:1016C00005F1B0000021FFF7B4FF102141EA14102A
:1016D0000021FFF7AEFF04F00F000021FFF7A9FF84
:1016E00070BD10B500218D20FFF7A3FF002114204D
:1016F000FFF79FFF0021AF20FFF79BFF10BD10B544
:1017000000218D20FFF795FF00211020FFF791FFAA
:101710000021AE20FFF78DFF10BD70B5002418E04A
:1017200004F1B0000021FFF784FF00210846FFF715
:1017300080FF00211020FFF77CFF002505E001213C
:101740000020FFF776FF681CC5B2802DF7DB601C18
:10175000C4B2082CE4DB70BD70B5002418E004F1BD
:10176000B0000021FFF765FF00210846FFF761FF89
:1017700000211020FFF75DFF002505E0012108464C
:10178000FFF757FF681CC5B2802DF7DB601CC4B2A1
:10179000082CE4DB70BD2DE9F04707460E46904665
:1017A000994600250024A8F12000C5B27F2F02DD54
:1017B0000027B01CC6B2B9F1100F24D1314638460B
:1017C000FFF77BFF002408E004EB05114F4A505C53
:1017D0000121FFF72EFF601CC4B2082CF4DB701C43
:1017E000C1B23846FFF769FF002409E004EB051198
:1017F0000831464A505C0121FFF71BFF601CC4B250
:10180000082CF3DB12E031463846FFF756FF002480
:101810000AE005EB45013E4A02EB4101085D01216A
:10182000FFF707FF601CC4B2062CF2DBBDE8F087AF
:1018300010B50246012000E050430B1EA1F1010447
:10184000E1B2F9D110BD2DE9FF5F074691461E4672
:101850000E9D4FF0000A002435E0301B401EC1B23F
:101860000A20FFF7E5FFB9FBF0F00A21B0FBF1F227
:1018700001FB1208BAF1000F14D1701EA04211DD55
:10188000B8F1000F0CD1AB4605EBDB71491001FB41
:101890000471C8B22B4620220199FFF77CFF10E0AB
:1018A0004FF0010AAB4605EBDB71491001FB0471F7
:1018B000C8B208F13001CAB22B460199FFF76BFF9D
:1018C00000BF601CC4B2B442C7DBBDE8FF9F2DE976
:1018D000F04104460F461546984600260FE0AA5DE3
:1018E000434639462046FFF756FF04F10800C4B2CC
:1018F000782C02DD0024B81CC7B2701CC6B2A85DEB
:101900000028ECD1BDE8F0810010014036530008FA
:101910000E5100082DE9F04180460E46154600277D
:1019200031464046FFF7C9FE00240AE0744A02EB44
:101930008511085D0121FFF77CFE781CC7B2601C91
:10194000C4B2102CF2DB701CC1B24046FFF7B5FEEA
:1019500000240CE06900491C694A02EB4111085D52
:101960000121FFF766FE781CC7B2601CC4B2102CC0
:10197000F0DBBDE8F0812DE9F05F06460F469046AA
:101980001C46DDF828A04FF0000BE11704EB517165
:10199000C910A4EBC10131B92046E11704EB517124
:1019A000C1F3C70506E02046E11704EB5171C910E9
:1019B000491CCDB23D4615E029463046FFF77DFE75
:1019C000B1460BE059460BF1010B1AF80100012159
:1019D000FFF72FFE09F1010000F0FF09C145F1DB1F
:1019E000681CC5B2A542E7DBBDE8F09F08B5012140
:1019F000082001F065FA4FF44060ADF800001020B7
:101A00008DF8030003208DF8020069463D4800F080
:101A10009BFF4FF440613B4801F043F84FF448709E
:101A200000F089F80021AE20FFF703FE00210846F0
:101A3000FFF7FFFD00211020FFF7FBFD00214020F4
:101A4000FFF7F7FD0021B020FFF7F3FD0021812013
:101A5000FFF7EFFD0021FF20FFF7EBFD0021A120A4
:101A6000FFF7E7FD0021A620FFF7E3FD0021A820F6
:101A7000FFF7DFFD00213F20FFF7DBFD0021C8203D
:101A8000FFF7D7FD0021D320FFF7D3FD0021084643
:101A9000FFF7CFFD0021D520FFF7CBFD00218020EF
:101AA000FFF7C7FD0021D820FFF7C3FD0021052067
:101AB000FFF7BFFD0021D920FFF7BBFD0021F1207A
:101AC000FFF7B7FD0021DA20FFF7B3FD0021122058
:101AD000FFF7AFFD0021DB20FFF7ABFD0021302039
:101AE000FFF7A7FD00218D20FFF7A3FD00211420A3
:101AF000FFF79FFD0021AF20FFF79BFD08BD000011
:101B000058000020000C014000EBC001C9004FF05C
:101B1000E0225161002191610521116100BF4FF068
:101B2000E021096901F480310029F8D004214FF047
:101B3000E0221161704700B5034603E04FF47A706C
:101B4000FFF7E2FF181EA3F10103F7D100BD10B5A6
:101B5000044603E04FF47A70FFF7EDFF201EA4F176
:101B60000104F7D110BD000000B587B00121880342
:101B700001F0B3F90121082001F0A2F94FF400505F
:101B8000ADF8180018208DF81B0003208DF81A00FE
:101B900006A9B44800F0D8FE4FF40040ADF8180094
:101BA00018208DF81B0003208DF81A0006A9AD48F7
:101BB00000F0CAFE4FF48040ADF8180004208DF804
:101BC0001B0003208DF81A0006A9A64800F0BCFEF1
:101BD0004FF48050ADF8180010208DF81B00032042
:101BE0008DF81A0006A99F4800F0AEFE4FF4805110
:101BF0009C4800F056FF00219B4801F090FA00201D
:101C0000ADF804004FF48270ADF806004FF40060A8
:101C1000ADF808000020ADF80A000120ADF80C0076
:101C20004002ADF80E002020ADF810000020ADF805
:101C300012000720ADF8140001A98B4801F0CAF981
:101C40000121894801F06BFA4FF4FA70FFF75CFF4D
:101C500007B000BD0146002206E0501C80B20246DB
:101C6000C82801DD002070477F480830008800F058
:101C700002000028F1D07C480C300180002206E0F0
:101C8000501C80B20246C82801DD0020EBE77648F0
:101C90000830008800F001000028F1D072480C30B4
:101CA0000088E0E770B504464FF480516D4800F0BD
:101CB000FAFE2046FFF7CEFF6A48001D006820F0BC
:101CC00070406849091D08600846006840F070408F
:101CD00008606420FFF718FF4FF6FF70FFF7BAFFA8
:101CE00005464FF480515F4800F0DBFE5D48001D63
:101CF000006820F070405B49091D086008460068D4
:101D000040F030400860284670BD2DE9F0410024C5
:101D1000002648F23100FFF7C5FF0446C4F30E0465
:101D2000204603F08DF806465049304602F0A0FFE9
:101D300007464FF08E4102F0CDFF06464FF080413E
:101D4000304602F0C7FF074603F0A5F885B22846E3
:101D5000BDE8F08170B505460C464FF4805141480E
:101D600000F0A1FE2846FFF775FF2046FFF772FF3F
:101D70003C48001D006820F070403A49091D086089
:101D80000846006840F0704008606420FFF7BCFE21
:101D90004FF6FF70FFF75EFF06464FF48051314863
:101DA00000F07FFE2F48001D006820F070402D4994
:101DB000091D08600846006840F030400860304661
:101DC00070BD2DE9F04100240026002748F22100D3
:101DD000FFF768FF0446C4F30E044FF6FF7000EAF5
:101DE0004404204603F02CF806462049304602F011
:101DF0003FFF80464FF08F4102F06CFF06461C49C2
:101E0000304602F035FF804603F045F885B21948A8
:101E10000560BDE8F08110B5012145F29100FFF7A2
:101E200099FF4FF4FA70FFF76FFE002145F2E000D2
:101E3000FFF790FF4FF4FA70FFF766FE102145F2AE
:101E4000F100FFF787FF4FF4FA70FFF75DFE45F6EC
:101E5000FF211120FFF77EFF4FF4FA70FFF754FEC9
:101E600010BD0000000C0140003800400000B443E9
:101E70000000C842DC03002010B586B004460121F2
:101E8000042001F01DF80121880301F019F84FF436
:101E90008070ADF8140002208DF8160010208DF827
:101EA000170005A9F74800F04FFD4FF40070ADF89A
:101EB000140002208DF8160018208DF8170005A9CF
:101EC000F04800F041FD4FF48060ADF814000220AE
:101ED0008DF8160004208DF8170005A9E94800F0D8
:101EE00033FD01A802F090F901940020ADF808003C
:101EF000ADF80A00ADF80C000C20ADF80E00002083
:101F0000ADF8100001A9E04802F015F925208DF880
:101F1000000001208DF801008DF802008DF803000B
:101F2000684600F048FC012240F22551D64802F0F4
:101F30009AF90121D44802F08AF906B010BD10B513
:101F40000446012C04D10102CE4800F0AAFD04E0B1
:101F50004FF48071CB4800F0A6FD10BD10B50120F4
:101F6000FFF7EDFF0020C9490870C9480978445CB3
:101F70002146C54802F0D8F910BD70B502460C469E
:101F8000FF25FF2309E012F8010B80EA0501C14893
:101F9000405C80EA0305C048435C201EA4F10106B2
:101FA000B4B2F0D143EA052070BD704730B50246A7
:101FB0000B46002400201146642904DA0C46B74D74
:101FC00035F814501D8030BD2DE9F84300200090F5
:101FD000B348C078B249897800EB01201FFA80F934
:101FE0004F46AF484079AE49097900EB01201FFA0E
:101FF00080F8AB484079B0F5806F34DA4FF6FF7067
:1020000000EA4804002512E069463846FFF7CEFF93
:10201000BDF8000001129E4AE81C1154BDF80000F2
:10202000C1B2281D1154A81C85B2781C87B2A542E4
:10203000EADB9C48007896490870032048708C7051
:10204000E01C84B221469248FFF797FF0646301203
:102050008F490855601C84B20E55601C9249087067
:10206000FFF77CFF04E00020904908709049087059
:10207000BDE8F883704770B502460B460024002087
:102080001146642913DA0C461DB2844E26F814500A
:10209000142901DA012500E00025272901DD0126A8
:1020A00000E00026354315B10125824E357070BD24
:1020B0002DE9F047002500260024A14600BFA046D8
:1020C000002777488478C67825464FF6FF7000EAE7
:1020D00005253543A946724807794FF6FF7000EA97
:1020E00007276F484079074339464846FFF7C3FF43
:1020F0006C4800786649087006204870084684706D
:10210000C6706748007908716548407948710621B2
:102110005F48FFF732FF80464FEA28205C4988710C
:1021200081F8078008206049087001206249087022
:10213000FFF714FFBDE8F0872DE9F04700BF5848CE
:10214000C0785749897800EB012085B2A8465448E9
:1021500040795349097900EB012086B2504890F844
:1021600006A0002417E0082000EB44004C49085C5E
:10217000072101EB44014A4A515C00EB01201FFAA0
:1021800080F949464046FFF776FF601C84B208F1AB
:1021900001001FFA80F8B442E5DB424800783C4970
:1021A00008701020487028128870CD7030120871A5
:1021B0004E7106213648FFF7E0FE074638123449D3
:1021C0008871CF71082038490870FFF7C7FEBDE855
:1021D000F08770B539480078324908703348007884
:1021E00004284EDD2E48407806280FD006DC012852
:1021F00009D0032808D005287ED106E00F285FD03B
:102200001028F9D17FE000BF00BF00BF2748007849
:10221000082835DB224800782249097888422AD1EB
:102220002348007800BB06211D48FFF7A6FE05469F
:102230001B48C0791A49897900EB0120A8421AD1BC
:1022400017484078012802D1FFF7AFFE13E0144889
:102250004078032802D1FFF7B7FE0CE01048407821
:10226000052802D1FFF706FF05E00D484078062853
:1022700001D1FFF71DFF00200C4908700C490870C0
:102280007EE07EE00008014000380140EF030020BE
:102290005005002026590008265A00083C0400205A
:1022A00050060020EC030020ED030020EE03002088
:1022B000FC0300201E000020F10300201F0000206E
:1022C0007E48847909347E480078A0421ADB7B4836
:1022D00000787C49097888420FD17B48007860B942
:1022E000A01E81B27548FFF748FE054600207449DC
:1022F00008707549087005E03EE0002070490870DC
:10230000714908703CE06D4840796C49097900EBEF
:10231000012084B24FF6FF7000EA440404F1090082
:1023200084B267480078A04225DB6448007865499C
:10233000097888421AD164480078B8B9A01E81B2E1
:102340005E48FFF71AFE0546601E5C49095CA01E48
:102350005A4A105C01EB0020A84201D1FFF7ECFEC5
:102360000020574908705849087004E0002054497B
:1023700008705549087003E000205149087000BFFB
:1023800000BF70BD30B503460020C3F30B02D4B2CA
:10239000062C1CD2DFE804F003070B0F13174B4C7D
:1023A000A45C0C8014E0494CA45C0C8010E0474C09
:1023B000A45C0C800CE0454CA45C0C8008E0434C11
:1023C000A45C0C8004E0414CA45C0C8000E000BFE5
:1023D00000BF30BD30B503460020C3F30B02D4B2BA
:1023E000052C13D2DFE804F00306090C0F00374D6B
:1023F000A9540CE0354DA95409E0344DA95406E028
:10240000324DA95403E0314DA95400E000BF00BF94
:1024100030BD2DE9F84F4FF00008C1464FF4807AE7
:10242000C34640F227712A4802F002F8044640F2FF
:102430002661274801F0FCFF054640F2255124485B
:1024400001F0F6FF064640F22441214801F0F0FF7A
:102450000746012C08D180211D4801F0E0FF40F221
:1024600027711B4802F00EF8012D08D140211848B1
:1024700001F0D5FF40F22661154802F003F8012E65
:102480000FD140F22551124801F0D2FF40B110485F
:1024900001F04EFFC0B200900121684602F0A3F99E
:1024A00000BF012F08D11021094801F0B8FF40F208
:1024B0002441074801F0E6FFBDE8F88F50060020F0
:1024C000EE030020EC030020FC0300205007002056
:1024D000003801400EB500203A4908604860886025
:1024E0000861C8603848486100208861C8610846B2
:1024F000406900900846806901900846C0690290D2
:1025000003236A460121184602F0A3F903236A4611
:102510000121184602F09DF90EBD2A490860704756
:10252000284800687047274B58619961DA61704705
:102530002DE9F0470446234844600246516810687C
:1025400002F090FB1F4988600846C1684FF0804048
:1025500002F08EFB82461B488168504602F085FBE4
:10256000814618480169484602F02AFB8046154812
:10257000C169404602F07CFB0646124A91689069A8
:1025800002F076FB81460F4AD168906802F06AFB40
:1025900082460C484169504602F06AFB8046494633
:1025A00002F00EFB0746314602F00AFB05460548DD
:1025B000C0680449086108468068C8602846BDE8CC
:1025C000F087000070070020CDCC8C3F0CB50020B8
:1025D000019000906C48006840F480306A490860BF
:1025E00000BF6948006800F4003000900198401C6A
:1025F0000190009818B90198B0F5A06FF1D1624828
:10260000006800F4003010B10120009001E00020CB
:1026100000900098012843D15C48006840F0100009
:102620005A4908600846006820F003000860084620
:10263000006840F002000860534840685249486012
:102640000846406848600846406840F4806048603A
:102650000846406820F47C1048600846406840F412
:10266000E81048600846006840F08070086000BFCD
:102670004548006800F000700028F9D042484068E2
:1026800020F00300404948600846406840F00200DE
:10269000486000BF3C48406800F00C000828F9D1B1
:1026A0000CBD10B5FFF792FF10BD10B5364800689D
:1026B00040F0010034490860084640683449084049
:1026C0003149486008460068324908402E49086090
:1026D0000846006820F4802008600846406820F41E
:1026E000FE0048604FF41F008860FFF7DAFF4FF0EC
:1026F00000602949086010BD10B5002100200022AB
:10270000214B5B6803F00C0121B1042906D0082994
:1027100028D107E0214B224C236027E01F4B204C9F
:10272000236023E0184B5B6803F47010164B5B6862
:1027300003F48032022303EB904022B9194B434348
:10274000174C23600DE0104B5B6803F4003323B19A
:10275000144B4343124C236003E0104B4343104C93
:10276000236003E00D4B0E4C236000BF00BF064BFF
:102770005B68C3F303130C4CE15C094B1B68CB4053
:10278000074C236010BD00000010024000200240F2
:102790000000FFF8FFFFF6FE08ED00E000127A00EF
:1027A0000404002000093D000804002031490143D1
:1027B000314A1160704770B5002100230F22C478A0
:1027C00004B32D4C246804F4E064C4F5E064210AE9
:1027D000C1F10403CA40447804FA03F18478144038
:1027E00021430901254C0678A155047804F01F0502
:1027F0000124AC4005786D11AD0005F1E025C5F868
:10280000004109E0047804F01F050124AC401C4D90
:102810000678761145F8264070BD1A4A0A400243F0
:10282000154B1B1F1A60704739B1134A121D1268ED
:102830000243114B1B1D1A6006E00F4A121D12685D
:1028400082430D4B1B1D1A607047042808D14FF0BE
:10285000E021096941F004014FF0E022116107E035
:102860004FF0E021096921F004014FF0E0221161ED
:10287000704700000000FA050CED00E000E400E005
:1028800080E100E080FFFF1F10B50446CC48844281
:1028900008D10121042000F02DFB0021042000F0CC
:1028A00029FB46E0C748844208D10121082000F0F6
:1028B00021FB0021082000F01DFB3AE0C2488442C1
:1028C00008D10121102000F015FB0021102000F09C
:1028D00011FB2EE0BD48844208D10121202000F0E8
:1028E00009FB0021202000F005FB22E0B8488442CB
:1028F00008D10121402000F0FDFA0021402000F025
:10290000F9FA16E0B348844208D10121802000F092
:10291000F1FA0021802000F0EDFA0AE0AE4884428E
:1029200007D10121801500F0E5FA0021A01500F083
:10293000E1FA10BD10B50121084600F0DBFA0021D4
:10294000012000F0D7FA10BD2DE9F0410246002524
:102950000026002000230024002791F803C00CF07B
:102960000F0591F803C00CF0100CBCF1000F03D060
:1029700091F802C04CEA050591F800C0BCF1000FC7
:1029800031D0146800202BE04FF0010C0CFA00F35A
:10299000B1F800C00CEA03069E4220D183004FF03C
:1029A0000F0C0CFA03F7BC4305FA03FC4CEA0404D1
:1029B00091F803C0BCF1280F06D14FF0010C0CFABE
:1029C00000FCC2F814C00AE091F803C0BCF1480F43
:1029D00005D14FF0010C0CFA00FCC2F810C0401CED
:1029E0000828D1D31460B1F800C0BCF1FF0F34DD6A
:1029F000546800202EE000F1080C4FF0010808FA9E
:102A00000CF3B1F800C00CEA03069E4221D183000A
:102A10004FF00F0C0CFA03F7BC4305FA03FC4CEA29
:102A2000040491F803C0BCF1280F05D100F1080C93
:102A300008FA0CF8C2F8148091F803C0BCF1480FF2
:102A400007D100F1080C4FF0010808FA0CF8C2F8A1
:102A50001080401C0828CED35460BDE8F0814FF6AA
:102A6000FF710180022181700421C170704702460C
:102A7000002093680B400BB1012000E0002070475C
:102A80000146886880B2704702460020D3680B4038
:102A90000BB1012000E0002070470146C86880B2F9
:102AA000704701617047416170470AB1016100E000
:102AB00041617047C16070474FF480320A438261C0
:102AC0008161826182698269704702460020434BBE
:102AD00018684FF68073184040EA021008433F4BD5
:102AE000186070473E49C8617047F0B50A46002338
:102AF00000240021002500F00046B6F1004F02D16D
:102B0000364EF16901E0354E7168C0F3034583B27A
:102B100000F44016B6F5401F08D121F070612F4E29
:102B2000766826F070662D4F7E6012E000F4801605
:102B3000B6F5801F06D1032606FA05F4A14341F03D
:102B4000706106E0460D360103FA06F6B14341F026
:102B5000706122B1460D360103FA06F6314300F0EA
:102B60000046B6F1004F02D11C4EF16101E01B4E50
:102B70007160F0BD30B500228B071C0F0F2303FAE4
:102B800004F2164B08338C1053F824309343134C43
:102B900008348D1044F8253023468C1053F8243027
:102BA0008C07240F00FA04F423430C4C08348D10D6
:102BB00044F8253030BD0A49DC3108607047000018
:102BC00000080140000C01400010014000140140C9
:102BD00000180140001C014000200140000001409D
:102BE00000002042DF48006840F00100DD49086035
:102BF00008464068DC490840DA49486008460068F1
:102C0000DA490840D74908600846006820F4802067
:102C100008600846406820F4FE0048604FF41F003A
:102C200088607047CF49096821F48031CD4A11602E
:102C30001146096821F480211160B0F5803F03D06E
:102C4000B0F5802F0ED106E0C649096841F4803105
:102C5000C44A116007E0C349096841F4A021C14A90
:102C6000116000E000BF00BF704710B501460022B0
:102C7000002300204A11012A02D1BA4C236806E041
:102C8000022A02D1B74C236A01E0B64C636A01F014
:102C90001F02012494401C400CB1012000E00020E0
:102CA00010BD38B5002000900024002500BF312061
:102CB000FFF7DBFF05460098401C00900098B0F538
:102CC000A06F01D0002DF2D03120FFF7CEFF08B168
:102CD000012400E00024204638BD01460020A14A1E
:102CE000106820F0F80040EAC10010607047A04969
:102CF00008607047024600209A4B586820F47C1008
:102D000042EA01031843974B586070479849086698
:102D1000704701460020934A506820F003000843A2
:102D2000506070478F48406800F00C0070470146C3
:102D300000208C4A506820F0F00008435060704733
:102D400001460020874A506820F4E0600843506044
:102D5000704701460020834A506820F4605040EAE2
:102D6000C1005060704729B17E4A527A02437D4BC0
:102D70005A7204E07B4A527A82437A4B5A72704705
:102D80007B49D8310860704701460020754A506879
:102D900020F440400843506070470021714A2032BF
:102DA0001170704A82F82010012802D004280AD13C
:102DB00004E001216B4A2032117005E00521694AC7
:102DC0002032117000E000BF00BF70476949086001
:102DD00070476449096A0143624A11627047654954
:102DE00044390860704730B50021002200240023D8
:102DF0005C4D6D6805F00C0121B1042905D008294E
:102E000023D105E05C4D056022E05B4D05601FE0CD
:102E1000544D6D6805F47012524D6D6805F48034A0
:102E2000022505EB92421CB9544D554305600BE059
:102E30004C4D6D6805F400351DB1504D554305608E
:102E400002E04D4D5543056002E04B4D056000BF6B
:102E500000BF444D6D6805F0F0010909484D6B5CF9
:102E60000568DD4045603F4D6D6805F4E061090A85
:102E7000434D6B5C4568DD4085603A4D6D6805F4F7
:102E80006051C90A3E4D6B5C4568DD40C560354DFB
:102E90006D6805F44041890B3A4D6B5CC568B5FB24
:102EA000F3F5056130BD29B12E4A526902432D4B1D
:102EB0005A6104E02B4A526982432A4B5A61704797
:102EC00029B1284A92690243264B9A6104E0254AB7
:102ED00092698243234B9A61704729B1214AD26992
:102EE0000243204BDA6104E01E4AD26982431D4B43
:102EF000DA61704729B11B4AD2680243194BDA6084
:102F000004E0184AD2688243164BDA60704729B150
:102F1000144A12690243134B1A6104E0114A126900
:102F20008243104B1A61704712494039086070475C
:102F30000F49C86470470B49C87170470948406A17
:102F400040F0807007494862704701460020054AFA
:102F500092680A400AB1012000E000207047014950
:102F600088727047001002400000FFF8FFFFF6FE75
:102F7000000042428004424200127A0000093D00F3
:102F8000180400202804002010B50446BE488442DE
:102F900008D101218014FFF7ADFF0021A014FFF735
:102FA000A9FF16E0B948844208D101210014FFF7B7
:102FB000AEFF00212014FFF7AAFF0AE0B4488442C4
:102FC00007D10121C013FFF7A2FF0021E013FFF793
:102FD0009EFF10BD10B50022028802F441520B88FA
:102FE0004C8823438C882343CC8823430C89234378
:102FF0004C8923438C892343CC8923431A43028081
:10300000838B4FF2FF74234083830B8A038210BDAE
:103010002DE9F04F85B005460C464FF00009022718
:103020004FF000084FF0010B0026B246A88B4FF27C
:1030300040010840A88302202884B5F81C90A068AD
:10304000022801D100BF38E0A08810B94FF0010B71
:1030500001E04FF0020B8D48854200D100E000BF37
:103060006846FFF7C0FEDDF800A0E088B0F5007FFD
:103070000AD14FEA1A2000EB80004000A168B0FBA3
:10308000F1F0401D86B20BE04FEA4B10BAFBF0F0B6
:1030900000EB80004000A168B0FBF1F0401D86B25B
:1030A0000A20B6FBF0F606F00108A6EB0800C0F314
:1030B0004F074FF6FF7000EA0828022F01DBFF2FB1
:1030C00002DD02274FF00008E08840EA080038439C
:1030D0002884A088A189084361880843218808437F
:1030E00040F4006040EA0909A5F81C9005B0BDE86D
:1030F000F08F0021018041808180C1800181418168
:103100008181C181072101827047002101804180B6
:103110008180C1800221816000218181704721B1BD
:10312000028842F04002028004E002884FF6BF733A
:103130001A400280704721B1828B42F48062828300
:1031400004E0828B4FF6FF331A408283704730B51C
:10315000002400230C110125A540ABB21AB18588CB
:103160001D43858002E085889D43858030BD1AB16E
:1031700083880B43838002E083888B43838070477E
:10318000818170470146888970474FF6FF629142FE
:1031900004D0028842F48072028004E002884FF674
:1031A000FF631A400280704721B1828842F0040216
:1031B000828004E082884FF6FB731A408280704759
:1031C00002884FF2FF731A40028002880A4302808D
:1031D0007047018841F480510180704721B1028815
:1031E00042F40052028004E002884DF6FF731A4058
:1031F0000280704702460020012901D0108B00E0B8
:10320000908A70470146088A7047B1F5804F04D113
:10321000028842F48042028004E002884BF6FF7389
:103220001A40028070470246002013890B400BB100
:10323000012000E000207047CA4302817047F0B5CA
:103240000246002000240023002501F00F0701267C
:10325000BE40B4B20B1101269E40B3B2968806EA76
:1032600003051689264016B10DB1012000E00020AB
:10327000F0BD10B5002201F00F040123A3409AB263
:10328000D343038110BD00000030014000380040EE
:10329000003C004010B50446FE48844208D101219C
:1032A000C014FFF727FE0021E014FFF723FEC4E05F
:1032B000B4F1804F08D101210846FFF728FE002114
:1032C0000120FFF724FEB8E0F348844208D1012131
:1032D0000220FFF71CFE00210220FFF718FEACE0E1
:1032E000EE48844208D101210420FFF710FE00219E
:1032F0000420FFF70CFEA0E0E948844208D1012138
:103300000820FFF704FE00210820FFF700FE94E0EC
:10331000E448844208D101211020FFF7F8FD002184
:103320001020FFF7F4FD88E0DF48844208D1012136
:103330002020FFF7ECFD00212020FFF7E8FD7CE0D6
:10334000DA48844208D101214014FFF7D3FD00215F
:103350006014FFF7CFFD70E0D548844209D1012108
:10336000C804FFF7C7FD00214FF40020FFF7C2FD9E
:1033700063E0D048844209D101210805FFF7BAFD76
:1033800000214FF48010FFF7B5FD56E0CA48844293
:1033900009D101214805FFF7ADFD00214FF40010D0
:1033A000FFF7A8FD49E0C548844208D1012140202B
:1033B000FFF7ADFD00214020FFF7A9FD3DE0C0482B
:1033C000844208D101218020FFF7A1FD0021802047
:1033D000FFF79DFD31E0BB48844208D101218015F3
:1033E000FFF795FD0021A015FFF791FD25E0B648F8
:1033F000844209D101210804FFF77CFD00214FF42C
:103400008030FFF777FD18E0B048844209D10121F0
:103410004804FFF76FFD00214FF40030FFF76AFD0D
:103420000BE0AB48844208D101218804FFF762FD1C
:1034300000214FF48020FFF75DFD10BD00220288BF
:10344000944B98420ED0994B98420BD0B0F1804FDC
:1034500008D0914B984205D0904B984202D0904BA7
:10346000984204D14FF68F731A404B881A438D4B04
:10347000984207D08C4B984204D04FF6FF431A4035
:10348000CB881A4302808B8883850B880385814B08
:1034900098420BD0854B984208D08B4B984205D070
:1034A0008A4B984202D08A4B984201D10B7A03860C
:1034B00001238382704770B5002400220023058C0D
:1034C0004FF6FE7635400584028C8388048B4FF6D8
:1034D0008F752C40B51E2C400D882C43751E2A403C
:1034E0000D892A434D882A436A4DA8420BD06F4D5F
:1034F000A84208D0744DA84205D0744DA84202D00D
:10350000734DA84213D14FF6F7752A404D892A43CF
:103510004FF6FB752A408D882A434FF6FF652B40F6
:103520004FF6FF552B408D892B43CD892B4383804C
:103530000483CD888586028470BD70B50024002286
:103540000023058C4FF6EF7635400584028C838886
:10355000048B48F6FF752C404FF6FF452C400D8834
:103560004FF6FF7606EA05252C434FF6DF752A4015
:103570000D8906EA05152A434D8806EA05152A43F2
:10358000444DA84202D0494DA8421DD14FF67F7547
:103590002A404D894FF6FF7606EA05152A434FF675
:1035A000BF752A408D8806EA05152A434FF6FF3578
:1035B0002B404FF2FF752B408D8906EA85052B4382
:1035C000CD8906EA85052B4383800483CD88058752
:1035D000028470BD70B5002400220023058C4FF6D4
:1035E000FF6635400584028C8388848B4FF68F7587
:1035F0002C404FF6FC752C400D882C434FF6FF55A0
:103600002A400D894FF6FF7606EA05252A434D88A4
:1036100006EA05252A431F4DA84202D0234DA842A1
:103620001DD14FF2FF752A404D894FF6FF7606EA0D
:1036300005252A434FF6FF352A408D8806EA0525E1
:103640002A434EF6FF752B404DF6FF752B408D89B2
:1036500006EA05152B43CD8906EA05152B43838021
:103660008483CD888587028470BD70B500220023D5
:103670000024058C4EF6FF7635400584038C848843
:10368000828B48F6FF752A404FF6FF452A400D8889
:1036900020E00000002C0140000400400008004031
:1036A000000C0040001000400014004000340140B5
:1036B000004C0140005001400054014000180040FF
:1036C000001C004000200040004001400044014038
:1036D000004801404FF6FF7606EA05252A434DF6DD
:1036E000FF752B400D8906EA05352B434D8806EA08
:1036F00005352B43FA4DA84202D0FA4DA84208D115
:103700004BF6FF752C408D894FF6FF7606EA85153E
:103710002C4384808283CD88A0F84050038470BD00
:10372000828B4FF2FF331A408283828B4FF6FF73F6
:1037300003EA01231A4382837047F0B50C4615460D
:10374000002200210026078C4EF6FF7C07EA0C07BA
:103750000784828B018C4FF6FF7707EA043640F628
:10376000FF473A404FF6FF7707EA05273A434FF6FF
:10377000FF7707EA03373A43D94FB8420ED0D94F03
:10378000B8420BD0B0F1804F08D0D74FB84205D027
:10379000D64FB84202D0D64FB84206D14DF6FF7789
:1037A000394046F48057394305E047F6FF57394022
:1037B00044F48057394382830184F0BD828B4FF6F5
:1037C000F3731A408283828B0A4382837047F0B579
:1037D0000C461546002200210026078C4FF6FF6C90
:1037E00007EA0C070784828B018C4FF6FF7707EA04
:1037F00004264FF60C773A404FF6FF7707EA031797
:103800002F433A43B64FB8420ED0B64FB8420BD012
:10381000B0F1804F08D0B44FB84205D0B34FB84292
:1038200002D0B34FB84206D14FF6FF57394046F4A5
:103830008077394305E04FF2FF57394044F48077F1
:10384000394382830184F0BD028B4FF2FF331A406B
:103850000283028B4FF6FF7303EA01231A430283AC
:103860007047F0B50C461546002200210026078C53
:103870004FF6EF7C07EA0C070784028B018C4FF6AA
:10388000FF7707EA041640F6FF473A404FF6FF7706
:1038900007EA03373A434FF6FF7707EA05273A432B
:1038A0008F4FB8420ED08F4FB8420BD0B0F1804F3F
:1038B00008D08D4FB84205D08C4FB84202D08C4F03
:1038C000B84206D14FF6DF77394046F0100739434A
:1038D00005E04FF65F77394044F010073943028323
:1038E0000184F0BD028B4FF6F3731A400283028B02
:1038F0000A4302837047F0B50C46154600220021AA
:10390000068C4FF6FE773E400684028B018C4FF604
:103910000C7632407E1C06EA03162E433243704E6C
:10392000B0420ED06F4EB0420BD0B0F1804F08D0F5
:103930006D4EB04205D06D4EB04202D06C4EB042DA
:1039400006D14FF6FD76314044F00106314305E0E3
:103950004FF6F576314044F001063143028301848D
:10396000F0BD70B505460C465D4885420ED05D48F9
:1039700085420BD0B5F1804F08D05B48854205D019
:103980005A48854202D05A48854200D100E000BF23
:10399000208850B92389A28861882846FFF7ABFFA9
:1039A000E1882846FFF79EFF25E0208804280AD1F9
:1039B0002389A28861882846FFF753FFE1882846BB
:1039C000FFF742FF17E0208808280AD12389A28840
:1039D00061882846FFF7FBFEE1882846FFF7EEFEE8
:1039E00009E02389A28861882846FFF7A6FEE188BE
:1039F0002846FFF795FE70BD2DE9F04105460C46BF
:103A000000260127608808B9022600E00026A08869
:103A1000012801D1022700E001272088A0B92389CD
:103A2000A28861882846FFF766FFE1882846FFF7ED
:103A300059FF23893A4631462846FFF712FFE188AD
:103A40002846FFF701FF13E02389A28861882846F2
:103A5000FFF707FFE1882846FFF7F6FE23893A467D
:103A600031462846FFF747FFE1882846FFF73AFF2F
:103A7000BDE8F0810A884B881A438B881A43CB88AB
:103A80001A430B891A434B891A438B891A43A0F8AE
:103A9000442070474FF6FF71818000210180C18072
:103AA0004180017270470021018041808180C18086
:103AB000018141818181C181704700210180418064
:103AC000012181800021C180018170470021018096
:103AD00041808180C18001814181818170470000E6
:103AE000002C014000340140000400400008004068
:103AF000000C004021B1028842F00102028004E083
:103B000002884FF6FE731A400280704731B1B0F858
:103B1000442042F40042A0F8442005E0B0F84420DC
:103B2000C2F30E02A0F8442070471AB183890B43F8
:103B3000838102E083898B43838170478182704750
:103B400041EA0203A0F8483070471AB183890B4359
:103B5000838102E083898B438381704701894FF61B
:103B6000F8721140018170470A46002101894FF621
:103B70008F73194011430181704730B504460D46DB
:103B800029462046FFF7F0FF208940F007002081FA
:103B900030BD2DE9F04104460D4616461F46602D06
:103BA00006D13B46012231462046FFF75AFE05E08A
:103BB0003B46012231462046FFF79DFE294620461E
:103BC000FFF7D2FF208940F007002081BDE8F08197
:103BD00030B50C4600210189C9B24FF6FF7505EAE0
:103BE0000325154325432943018130BD2DE9F041CB
:103BF00005460E4617469846002443463A46314647
:103C00002846FFF7E5FF2C894FF6F870044044F092
:103C100007044FF68F70044044F070042C81BDE817
:103C2000F081F0B504460D4616461F463B46324627
:103C300029462046FFF7CCFF208940F480402081B0
:103C4000F0BD0185828270470A46002101884FF647
:103C50008F731940114301807047F0B50C4615462B
:103C60001E460021002200230189028B038C4FF69F
:103C7000F877394021434FF6FC473A4040F20117AC
:103C80003A434FF6DD773B404FF6FF7707EA0617DA
:103C90002F433B43018102830384F0BD0A46002188
:103CA000018B4FF68F7319401143018370470A4609
:103CB0000021018B48F6FF7319404FF6FF7303EAAA
:103CC00002231943018370470A460021818B4FF676
:103CD0008F7319401143818370470A460021818BFD
:103CE00048F6FF7319404FF6FF7303EA02231943A6
:103CF0008183704721B1028842F08002028004E093
:103D000002884FF67F731A400280704721B1828883
:103D100042F00402828004E082884FF6FB731A406E
:103D20008280704721B1828842F00802828004E0DC
:103D300082884FF6F7731A408280704721B18288DB
:103D400042F00102828004E082884FF6FE731A403E
:103D5000828070470A460021018B4FF6F7731940A5
:103D60001143018370470A460021018B4FF2FF7314
:103D700019404FF6FF7303EA02231943018370478A
:103D80000A460021818B4FF6F77319401143818356
:103D900070470A460021818B4FF2FF7319404FF69E
:103DA000FF7303EA02231943818370470A46002107
:103DB000018B4FF6FB7319401143018370470A468C
:103DC0000021018B4FF6FF3319404FF6FF7303EAD2
:103DD00002231943018370470A460021818B4FF665
:103DE000FB7319401143818370470A460021818B80
:103DF0004FF6FF3319404FF6FF7303EA02231943CE
:103E0000818370470A460021018B4FF67F7319406A
:103E10001143018370470A460021018BC1F30E0153
:103E20004FF6FF7303EA02231943018370470A46E2
:103E30000021818B4FF67F731940114381837047B6
:103E40000A460021818BC1F30E014FF6FF7303EA8E
:103E500002231943818370470A460021018C4FF6E3
:103E6000FD7319401143018470470A460021018CFB
:103E70004FF6F77319401143018470470A46002139
:103E8000018C4FF6DF7319404FF6FF7303EA0213FC
:103E90001943018470470A460021018C4FF67F7355
:103EA00019404FF6FF7303EA021319430184704768
:103EB0000A460021018C4FF6FF5319404FF6FF735D
:103EC00003EA02231943018470470A460021018C4A
:103ED0004FF2FF7319404FF6FF7303EA02231943B1
:103EE000018470470A460021018C4DF6FF7319408A
:103EF0004FF6FF7303EA023319430184704730B56C
:103F0000002301248C40A3B2048C9C430484048CC1
:103F100002FA01F5ADB22C43048430BD30B5002364
:103F200004248C40A3B2048C9C430484048C02FAC5
:103F300001F5ADB22C43048430BD70B503460020BA
:103F400000241846183001258D40ACB21D8CA543C5
:103F50001D8409B1082909D100EB6100056825F02D
:103F6000700505600568154305600EE00D1FC5F37B
:103F70004E052844056825F4E045056005684FF6C0
:103F8000FF7606EA02263543056070BD21B102883E
:103F900042F00202028004E002884FF6FD731A40EC
:103FA0000280704721B1028842F00402028004E0DE
:103FB00002884FF6FB731A400280704721B1828855
:103FC00042F08002828004E082884FF67F731A40BC
:103FD0008280704702884FF6F7731A400280028889
:103FE0000A430280704782884FF68F731A4082809E
:103FF00082880A438280704702894FF6F8731A401C
:10400000028102890A430281704702894FF67F7359
:104010001A40028102890A430281704781847047F5
:104020008185704781867047018770478187704717
:10403000A0F84010704702884FF6FF431A400280F4
:1040400002880A43028070470146888E7047014605
:10405000088F70470146888F70470146B1F84000CD
:1040600070470146888C70470146088D70470246AC
:104070000020138A0B400BB1012000E000207047A4
:10408000CA430282704730B5024600200023002454
:10409000158A05EA0103958905EA010413B10CB1FB
:1040A000012000E0002030BDCA43028270470000BA
:1040B00010B50446FB48844209D101218803FEF76C
:1040C00019FF00214FF48040FEF714FF32E0F6485C
:1040D000844209D101214804FEF719FF00214FF461
:1040E0000030FEF714FF25E0F048844209D1012199
:1040F0008804FEF70CFF00214FF48020FEF707FF35
:1041000018E0EB48844209D10121C804FEF7FFFE04
:1041100000214FF40020FEF7FAFE0BE0E548844250
:1041200008D101210805FEF7F2FE00214FF48010AE
:10413000FEF7EDFE10BD2DE9F04786B005460E46B0
:104140000024A24600BFA1460027B08900B100BFED
:104150002F462C8A4CF6FF700440F08804432C82D2
:10416000AC894EF6F3100440B08831890843718958
:1041700008430443AC81AC8A4FF6FF400440B08949
:104180000443AC8201A8FEF72EFEC648874202D146
:10419000DDF810A001E0DDF80CA0A88900F40040D3
:1041A00040B10AEBCA0000EB0A1031684900B0FBCD
:1041B000F1F807E00AEBCA0000EB0A103168890049
:1041C000B0FBF1F86420B8FBF0F004012009642191
:1041D00001FB1089A88900F4004040B1322000EBB7
:1041E000C900B0FBF1F000F00700044308E0322002
:1041F00000EB09106421B0FBF1F000F00F00044364
:104200002C8106B0BDE8F0874FF416510160002103
:104210008180C18001810C21418100218181704711
:1042200010B502460020108A4FF2FF0318400B8899
:104230004C8823438C882343CC8823431843108223
:1042400010BD0021018041808180C180704721B173
:10425000828942F40052828104E082894DF6FF7324
:104260001A4082817047F0B50346002400260025DD
:10427000002040F66A17B94200D100BF1846C1F3CA
:10428000421401F01F06012707FA06F5012C01D19F
:104290000C3004E0022C01D1103000E014301AB1CF
:1042A00007682F43076002E00768AF430760F0BD6F
:1042B0001AB1838A0B43838202E0838A8B43838211
:1042C0007047028A4FF6F0731A400282028A0A434C
:1042D0000282704782894FF2FF731A40828182897D
:1042E0000A438281704721B1828942F002028281B1
:1042F00004E082894FF6FD731A4082817047028A7A
:104300004FF6DF731A400282028A0A430282704724
:1043100021B1028A42F48042028204E0028A4BF612
:10432000FF731A4002827047C1F30802828070470F
:1043300001468888C0F308007047818941F0010177
:1043400081817047028BD2B20283028B42EA012242
:1043500002837047028B02F47F420283028B0A437E
:104360000283704721B1828A42F02002828204E0F7
:10437000828A4FF6DF731A408282704721B1828AA7
:1043800042F01002828204E0828A4FF6EF731A40F4
:104390008282704721B1828A42F00802828204E060
:1043A000828A4FF6F7731A408282704721B1828960
:1043B00042F40042828103E08289C2F30E028281CC
:1043C000704721B1828A42F40062828204E0828ACC
:1043D0004FF2FF731A4082827047828A4FF6FB7356
:1043E0001A408282828A0A438282704721B1828A7D
:1043F00042F00202828204E0828A4FF6FD731A4084
:104400008282704702460020B1F5007F00D100BFD4
:1044100013880B400BB1012000E00020704701F42D
:104420000072B2F5007F00D100BFCA43028070471E
:1044300070B50246002400230025002040F66A16CD
:10444000B14200D100BFC1F3421501F01F030126A4
:1044500006FA03F3012D02D19689334006E0022DBE
:1044600002D1168A334001E0968A33400C120126AD
:1044700006FA04F41688344013B10CB1012000E0B0
:10448000002070BD10B50022002340F66A14A1423E
:1044900000D100BF0A1201249440A3B2DC4304807F
:1044A00010BD0000003801400044004000480040BA
:1044B000004C004000500040064880470648004736
:1044C000FEE7FEE7FEE7FEE7FEE7FEE7FEE7FEE7C4
:1044D000FEE7FEE7AB260008ED00000830B5034616
:1044E000184603E00C780444E0B2491C141EA2F103
:1044F0000105EAB2F6D130BD024601F1090000F033
:104500007F00105C70470246481D00F07F00135C7E
:10451000881D00F07F00105C43EA0023C81D00F0F6
:104520007F00105C43EA004301F1080000F07F00C7
:10453000105C43EA006080B2704710B503460C4639
:10454000A018411EC81701EB5060C011A1EBC010AC
:10455000185C10BDF0B505460C46002100BF2BE0ED
:10456000501890FBF4F604FB16002E5C5018401C0B
:1045700090FBF4F704FB1700285C46EA002650186D
:10458000801C90FBF4F704FB1700285C46EA004609
:104590005018C01C90FBF4F704FB1700285C46EA97
:1045A0000060FB4EB04205D1501890FBF4F604FBBE
:1045B0001600F0BD481C81B2D81E8842D0DC4FF0F6
:1045C000FF30F6E730B5044600259A4202DC981A1F
:1045D00085B202E0881A184485B2AC4201DD0020A1
:1045E00030BD2846FCE72DE9F04705460E46144647
:1045F0001F46DDF8208004EB0800B0420FDD301BC1
:104600001FFA80F928194A46394600F0C7FAA8EB84
:10461000090207EB0901284600F0C0FA04E0281956
:104620004246394600F0BAFABDE8F0872DE9F04776
:1046300006460F464FF0FF0A00244FF0FF38A14610
:10464000D449CB888A8808898021FFF7BBFF84B2D0
:10465000092C02DA5046BDE8F087CE48408940BBBD
:10466000CC498A88234608688021FFF773FF0FFA38
:1046700080F8B8F1000F0EDB0120C6494881A1F88F
:104680000480CB888A8808898021FFF79BFF09284E
:104690000FDA5046DFE7BF4989882144C81EC11799
:1046A00000EB5161C911A0EBC111BA4A918050468B
:1046B000D1E7B848008960B9B64A91881068FFF719
:1046C00022FFB449088108460089A04201DD504616
:1046D000C1E7B0480089AF4989880844401E802856
:1046E0001CDDAC480068AB4B9B88C118A94880888A
:1046F000C0F18000C2B24846FFF7F0FE8146A548EF
:10470000007A401EA34B1B7918448038C2B2A148DE
:1047100001684846FFF7E2FE81460CE09D480068CC
:104720009C4B9B88C1189B48007A401EC2B24846E9
:10473000FFF7D4FE8146974B1A8999881868FFF7CE
:10474000FCFE48453ED19348808892490989084437
:10475000802816DD8F488088C0F1800085B28D48A2
:1047600000688C4A928881182A46304600F016FA72
:10477000884B1B895A1B874B7019196800F00EFA79
:1047800009E084480068834B9B88C11881480289EE
:10479000304600F003FA7F48008938807D4A9188CE
:1047A0001068FFF7A9FE82467A498988794A1289FA
:1047B0008818C11700EB5161C911A0EBC111754AEE
:1047C00091800AE073498988481CC11700EB516148
:1047D000C911A0EBC1116F4A918000206D49088179
:1047E0004881504637E738B505460C46694900947C
:1047F000CA882B4608688021FFF7F5FE6549C988FD
:104800000819C11700EB5161C911A0EBC111614A30
:10481000D18038BD5F4800210160416081605E4801
:104820005C4908600020704770B505460E460024BC
:104830000CE000BF40215948FFF7E4FD0028F9D003
:10484000295D5648FFF770FD601CC4B2B442F0DB2E
:1048500070BDF8B506460F4615461C460020009070
:10486000A006040E4A484E4908600846077104F144
:104870000B00C1F80500084646720A220020FFF727
:104880002DFE0090224629469DF80000FFF726FEE7
:1048900000900120FDF753FB0A214148FFF7C4FFB8
:1048A00021462846FFF7C0FF01216846FFF7BCFFFD
:1048B0000020FDF744FBF8BD2DE9F047A2B0002031
:1048C0000190FF24B4E001A902A8FFF7AFFE04465F
:1048D000132C5CD006DC102C0FD0112C62D0122CC3
:1048E0007ED186E0142C7CD0152C7BD0FF2C77D188
:1048F0004FF0FF3022B0BDE8F0879DF815004FF073
:104900007F4101EA00609DF814104FF47F0202EA33
:10491000014108439DF81310121202EA01210843D5
:104920009DF8121040EA01059DF81900110401EAF2
:1049300000609DF81810120202EA014108439DF838
:104940001710121202EA012108439DF8161040EADE
:1049500001069DF81D00110401EA00609DF81C107D
:10496000120202EA014108439DF81B10121202EAEA
:10497000012108439DF81A1040EA0107A846B146F4
:10498000BA46524649464046FDF7CDFD4FE031E07C
:10499000535A4859900700209C07002000380140D6
:1049A0001C0800209DF815004FF07F4101EA0060CF
:1049B0009DF814104FF47F0202EA014108439DF86C
:1049C0001310121202EA012108439DF81210084345
:1049D0000090009800F02BFA16490860012302E0CD
:1049E00022E008E008E06A4619461846FFF731FF62
:1049F0001DE01CE01BE01AE09DF815104FF07F420F
:104A000002EA01619DF814204FF47F0303EA024299
:104A100011439DF813201B1203EA022211439DF853
:104A2000122041EA020002E04FF0FF3062E700BFCF
:104A300049E700007007002030B15049097821F0A3
:104A400004014E4A117006E04C49097821F0040136
:104A5000091D4A4A117070474848007820F002004A
:104A600046490870704700B50020FFF7E5FF43484E
:104A7000007820F00400001D4049087008460078C6
:104A800020F00200801C087000BD00B502463B48C3
:104A9000007800F00100904201D0FFF7DDFF00BD7B
:104AA0007FB5002003900290019000213920FBF790
:104AB00078FE00213920FBF774FE039030490398FB
:104AC0000860039800F0B3F905462E4801682846AF
:104AD00000F0CBF8044600F0C5F900B22A4908807E
:104AE000B1F90000002801DB014600E0414209B2B3
:104AF000254A11801046B0F900000A2833DB0398DC
:104B000000F095F90546FDF713FD04461F480168BE
:104B1000204600F055F81D4908600846006820F05E
:104B2000004001901A49019800F0E8F902D81848AD
:104B3000019000E000BF1548006800F093F90446BA
:104B400021462D20FBF7E9FD1048006800F08AF9A6
:104B5000104908600398009001236A461946022014
:104B6000FFF777FE09E000200B490860074908605D
:104B70000449486088600861C8607FBD2C0400203B
:104B800010000020700700203804002034040020AA
:104B900000401C46000000203004002040EA0103D1
:104BA0009B0703D009E008C9121F08C0042AFAD2E3
:104BB00003E011F8013B00F8013B521EF9D27047A7
:104BC000F0B480EA0102D40F4200B2EB410F02D2EE
:104BD0000246084611464A0042D0C30DDDB2C1F379
:104BE000C752AD1A202D35DAC1F3160141F4000287
:104BF00004B15242C5F1200602FA06F12A411044DE
:104C0000B3EBD05F23D0C4B1012DA0EBC35009DCBE
:104C1000F0BC4FF0004202EAC352DBB200F50000E4
:104C200000F08FB9400000F1807000EBC350A0F19C
:104C3000807040EAD170490009E0490841EAC0713A
:104C4000A0EBC35000F50000400800EBC350F0BCDF
:104C500000F06EB96142012202EB4101001BF6E750
:104C6000F0BC704781F00041AAE780F00040A7E760
:104C700080EA010210B502F00043400022D04A0051
:104C80001FD0010E01EB1261C0F35600C2F35602B1
:104C900040F4000042F40002A0FB022000047F392F
:104CA000140400D0401C50EA124001D44000491EB8
:104CB000C2B20C0604EBD010401C4008802A02D07F
:104CC00003E0002010BD20F00100002900DA0020E0
:104CD000184310BD30B480EA010202F0004530F004
:104CE000004221F0004013D090B1C30DD40DC2F3A7
:104CF0001601C0F31600E41A41F4000140F400026A
:104D00007D34914201D3641C00E04900002C02DA9A
:104D100030BC002070474FF400000023914201D3C3
:104D2000891A034340084FEA4101F7D151B191423A
:104D300002D14FF0004105E002D24FF0010101E045
:104D40006FF0010103EBC450284430BC00F0F0B810
:104D50002DE9F04D81EA030404F0004B21F00045F9
:104D600014464FF0000A23F0004150EA050220D01B
:104D700054EA01021DD0C5F30A570246C5F31303D6
:104D8000C1F31300C1F30A5640F4801543F48013B5
:104D9000A7EB0608101BD64608F2FD3873EB05009A
:104DA00002D308F1010801E092185B41B8F1000F4D
:104DB00003DA00200146BDE8F08D00204FF4801199
:104DC000064684460EE0171B73EB050705D3121B3E
:104DD00063EB050306434CEA010C49084FEA300037
:104DE00092185B4150EA0107EDD152EA030012D05C
:104DF00082EA040083EA0501084305D0101BAB4199
:104E000006D20122002306E000224FF0004302E018
:104E10006FF0010253101AEB06004CEB085110EB37
:104E20000A0041EB0B01BDE8F04D00F0B8B8C10F2E
:104E300080EAE0700844CA079623002100F081B898
:104E400096230022114600F07CB80EB540F23341A3
:104E500002910021CDE900110A460B4600F0AEF8A0
:104E600003B000BD00F0004220F00040C10DC0F3CF
:104E7000160040F400007F2901DA002070479629CF
:104E800003DCC1F19601C84001E096398840002A50
:104E9000F4D04042704720F00040C10DC0F316002E
:104EA00040F400007F2901DA00207047962903DCD6
:104EB000C1F19601C840704796398840704770B577
:104EC000C1F30A5201F000450024C1F3130140F27E
:104ED000FF3341F480119A4201DA002070BD40F2A4
:104EE00033439A42A2F2334203DC524200F010F8FC
:104EF00000E090402C43F1D0404270BD002801DB1F
:104F0000C0F10040002901DBC1F100418842704737
:104F1000202A04DB203A21FA02F00021704721FA0E
:104F200002F3D040C2F12002914008431946704775
:104F30000029A8BF7047401C490008BF20F00100AD
:104F4000704710B4B0FA80FC00FA0CF050EA01048B
:104F500004BF10BC704749B1CCF1200421FA04F41D
:104F600011FA0CF118BF012121430843A3EB0C01F6
:104F7000CB1D4FEA00614FEA102042BF002010BC59
:104F8000704700EBC35010440029A4BF10BC704709
:104F9000401C490008BF20F0010010BC704710B54C
:104FA000141E73F1000408DA401C41F1000192184C
:104FB0005B411A4301D120F0010010BD2DE9F04DF5
:104FC00092469B4611B1B1FA81F202E0B0FA80F24A
:104FD0002032904600F052F804460F4640EA0A009C
:104FE00041EA0B0153465A46084313D0114653EA8F
:104FF000010019D0C8F140025046FFF789FF05466D
:105000000E4650465946424600F038F8084305D04F
:10501000012004E020463946BDE8F08D002005431C
:1050200046EAE0762C4337430A986305E40AA0EB8E
:1050300008000022FD0A44EA47540A3002D5002045
:105040000146E9E7010510196941DDE90845001944
:105050006941BDE8F04DA2E7064C074D06E0E06867
:1050600040F0010394E8070098471034AC42F6D3AF
:10507000FBF740F8285B0008485B0008202A04DBA7
:10508000203A00FA02F1002070479140C2F120035B
:1050900020FA03F319439040704770B58C1810F84C
:1050A000015B15F0070301D110F8013B2A1106D16D
:1050B00010F8012B03E010F8016B01F8016B5B1E87
:1050C000F9D12B0705D40023521E0DD401F8013B62
:1050D000FAE710F8013BCB1A921C03E013F8015BCE
:1050E00001F8015B521EF9D5A142D8D3002070BD52
:1050F00002E008C8121F08C1002AFAD170477047A1
:10510000002001E001C1121F002AFBD170470000FE
:10511000000000000000002F000000000700070052
:1051200000147F147F1400242A7F2A12006264086E
:1051300013230036495522500000050300000000EB
:105140001C224100000041221C000014083E0814EB
:105150000008083E0808000000A0600000080808D9
:105160000808000060600000002010080402003EF3
:105170005149453E0000427F40000042615149468E
:10518000002141454B31001814127F10002745457E
:105190004539003C4A494930000171090503003690
:1051A0004949493600064949291E000036360000A3
:1051B00000005636000000081422410000141414A8
:1051C00014140000412214080002015109060032A3
:1051D0004959513E007C1211127C007F49494936E1
:1051E000003E41414122007F4141221C007F49494C
:1051F0004941007F09090901003E4149497A007F80
:105200000808087F0000417F4100002040413F0125
:10521000007F08142241007F40404040007F020C84
:10522000027F007F0408107F003E4141413E007F25
:1052300009090906003E4151215E007F09192946EE
:105240000046494949310001017F0101003F4040CA
:10525000403F001F2040201F003F4038403F006378
:10526000140814630007087008070061514945439A
:1052700000007F41410000552A552A550000414158
:105280007F00000402010204004040404040000052
:1052900001020400002054545478007F48444438EC
:1052A00000384444442000384444487F0038545473
:1052B000541800087E0901020018A4A4A47C007FF1
:1052C000080404780000447D4000004080847D0094
:1052D000007F102844000000417F4000007C04183B
:1052E0000478007C0804047800384444443800FC06
:1052F000242424180018242418FC007C0804040822
:1053000000485454542000043F444020003C404096
:10531000207C001C2040201C003C4030403C0044CD
:1053200028102844001CA0A0A07C004464544C44D5
:1053300014141414141400000000000000000000F5
:10534000000000000000000000F800000000000065
:1053500000333000000000100C06100C06000000A6
:1053600000000000000040C07840C0784000043FCA
:1053700004043F040400007088FC0830000000189A
:1053800020FF211E0000F008F000E01800000021BE
:105390001C031E211E0000F00888700000001E2162
:1053A00023241927211010160E0000000000000011
:1053B000000000000000000000E0180402000000EF
:1053C00000071820400000020418E0000000004020
:1053D000201807000000404080F08040400002029A
:1053E000010F01020200000000F0000000000101B6
:1053F000011F01010100000000000000000080B05A
:10540000700000000000000000000000000000012B
:105410000101010101010000000000000000003056
:1054200030000000000000000000806018040060F0
:1054300018060100000000E010080810E000000F4E
:10544000102020100F00001010F8000000000020B5
:10545000203F2020000000700808088870000030FD
:1054600028242221300000300888884830000018A5
:10547000202020110E000000C02010F800000007BE
:105480000424243F240000F8088888080800001934
:10549000212020110E0000E0108888180000000F65
:1054A000112020110E0000380808C838080000003C
:1054B000003F000000000070880808887000001C91
:1054C000222121221C0000E010080810E00000004A
:1054D000312222110F00000000C0C00000000000B7
:1054E00000303000000000000080000000000000DC
:1054F00080600000000000008040201008000001D3
:105500000204081020004040404040404000040495
:10551000040404040400000810204080000000205F
:10552000100804020100007048080808F00000009C
:10553000003036010000C030C828E810E00007182D
:10554000272423140B000000C038E0000000203C9A
:1055500023020227382008F8888888700000203F3E
:10556000202020110E00C030080808083800071855
:1055700020202010080008F808080810E000203F4C
:10558000202020100F0008F88888E8081000203F2D
:1055900020202320180008F88888E8081000203F01
:1055A000200003000000C030080808380000071879
:1055B0002020221E020008F808000008F808203FFA
:1055C000210101213F20000808F808080000002000
:1055D000203F2020000000000808F8080800C080D4
:1055E00080807F00000008F888C028180800203F4D
:1055F00020012638200008F8080000000000203FA5
:1056000020202020300008F8F800F8F80800203F9B
:10561000003F003F200008F830C00008F808203F95
:10562000200007183F00E01008080810E0000F10E5
:10563000202020100F0008F808080808F000203F7C
:10564000210101010000E01008080810E0000F1817
:10565000242438504F0008F8888888887000203F3C
:105660002000030C3020007088080808380000383B
:10567000202121221C00180808F808081800000042
:10568000203F2000000008F808000008F808001F6C
:10569000202020201F000878880000C8380800005B
:1056A00007380E010000F80800F80008F800033C75
:1056B0000700073C0300081868808068180820303D
:1056C0002C03032C30200838C800C838080000001C
:1056D000203F2000000010080808C83808002038C3
:1056E000262120201800000000FE02020200000017
:1056F000007F40404000000C30C00000000000006F
:1057000000010638C00000020202FE000000004056
:1057100040407F000000000004020202040000007C
:105720000000000000000000000000000000808079
:105730008080808080800002020400000000000061
:105740000000000000000000808080800000001940
:10575000242222223F2008F8008080000000003F21
:10576000112020110E000000008080800000000E3B
:10577000112020201100000000808088F800000E19
:10578000112020103F200000808080800000001F3A
:10579000222222221300008080F0888888180020AE
:1057A000203F202000000000808080808000006B6F
:1057B00094949493600008F8008080800000203F5B
:1057C000210000203F200080989800000000002069
:1057D000203F20200000000000809898000000C0BA
:1057E0008080807F000008F8000080808000203FDB
:1057F00024022D302000000808F8000000000020DE
:10580000203F202000008080808080808000203F1A
:1058100020003F20003F8080008080800000203FEB
:10582000210000203F200000808080800000001FB9
:10583000202020201F00808000808000000080FF4A
:10584000A12020110E000000008080808000000E4A
:10585000112020A0FF808080800080808000202098
:105860003F21200001000000808080808000003304
:10587000242424241900008080E08080000000009F
:10588000001F202000008080000000808000001F9A
:10589000202020103F208080800000808080000138
:1058A0000E300806010080800080008080800F306C
:1058B0000C030C300F0000808000808080000020EE
:1058C000312E0E3120008080800000808080808119
:1058D0008E7018060100008080808080800000218A
:1058E000302C2221300000000000807C02020000E9
:1058F0000000003F404000000000FF0000000000EA
:105900000000FF0000000002027C80000000004058
:10591000403F0000000000060101020204040000F4
:1059200000000000000000C1814001C0804101C0B2
:10593000804100C1814001C0804100C1814000C15F
:10594000814001C0804101C0804100C1814000C14F
:10595000814001C0804100C1814001C0804101C03F
:10596000804100C1814001C0804100C1814000C12F
:10597000814001C0804100C1814001C0804101C01F
:10598000804100C1814000C1814001C0804101C00F
:10599000804100C1814001C0804100C1814000C1FF
:1059A000814001C0804101C0804100C1814000C1EF
:1059B000814001C0804100C1814001C0804101C0DF
:1059C000804100C1814000C1814001C0804101C0CF
:1059D000804100C1814001C0804100C1814000C1BF
:1059E000814001C0804100C1814001C0804101C0AF
:1059F000804100C1814001C0804100C1814000C19F
:105A0000814001C0804101C0804100C1814000C18E
:105A1000814001C0804100C1814001C0804101C07E
:105A2000804100C1814000C0C101C30302C2C6065B
:105A300007C705C5C404CC0C0DCD0FCFCE0E0ACAC6
:105A4000CB0BC90908C8D81819D91BDBDA1A1EDE16
:105A5000DF1FDD1D1CDC14D4D515D71716D6D212C6
:105A600013D311D1D010F03031F133F3F23236F6D6
:105A7000F737F53534F43CFCFD3DFF3F3EFEFA3A86
:105A80003BFB39F9F83828E8E929EB2B2AEAEE2E16
:105A90002FEF2DEDEC2CE42425E527E7E62622E286
:105AA000E323E12120E0A06061A163A3A26266A6D6
:105AB000A767A56564A46CACAD6DAF6F6EAEAA6A46
:105AC0006BAB69A9A86878B8B979BB7B7ABABE7E96
:105AD0007FBF7DBDBC7CB47475B577B7B67672B246
