:020000040800F2
:10000000800B00205D470008250300082703000837
:100010002B0300082F030008330300080000000032
:10002000000000000000000000000000370300088E
:1000300039030008000000003B0300083D030008EE
:100040007747000877470008774700087747000898
:100050007747000877470008774700087747000888
:100060007747000877470008774700087747000878
:100070007747000877470008774700087747000868
:100080007747000877470008774700087747000858
:100090007747000877470008774700087747000848
:1000A0007747000877470008774700087747000838
:1000B0005B0300083F030008774700087747000804
:1000C0007747000877470008774700087747000818
:1000D000774700085325000877470008774700084E
:1000E000774700087747000877470008DFF810D007
:1000F00004F02CFF0048004705010008AFF3008022
:10010000800B002008B500F039F900F0B6FA00F0D5
:10011000DAFA01F0D3F801F0FDFC01F092FB642063
:1001200001F09DFD102369A20021084601F063FC47
:10013000102368A20221002001F05DFC102367A2B9
:100140000521002001F057FC4FF4FA7001F070FD1A
:1001500001F09EFD4FF4FA7001F06AFD01F0EFFE30
:1001600001F024F85F4880785F4908705D48808816
:100170005E4908800846008801F012FF002001F067
:100180007EFF00F0C3FA00F0E6FB00F0B9FE642049
:1001900001F065FD00F050FD00F048FA02F0DCFAD5
:1001A00000205349086090E05248007830B101289F
:1001B0001ED0022824D003287FD14DE000F0CEFCD1
:1001C00000F08DFC00F00EFD00F07DFE00F024FE3E
:1001D0000021222000F06DFB0021222000F069FBAD
:1001E0004549086043480078401C4249087065E072
:1001F00000F00BF93F480078401C3E4908705DE074
:100200000021212000F055FB0021212000F051FBAE
:100210003A4908600021392000F04BFB00213920C9
:1002200000F047FB3649086010200A23009033484D
:1002300000210268282001F09AFB10200A23009078
:100240002F4802210268282001F091FB29480078FC
:10025000401C2849087031E001F047FE2948006839
:100260000A21B0FBF1F000B21E494886B1F9320014
:1002700004F0BDFB2449086024492348006804F0C9
:1002800009FB2149086008460068214908600846C2
:10029000006804F013FC044622460B461DA11F48CB
:1002A00004F0B2FE10231D4A0521462001F0A3FBF5
:1002B00000201049087001E0FFE700BF00BF1848A8
:1002C0000078012801D102F024F86DE7506F733AED
:1002D00000000000456E633A00000000416E673A7E
:1002E000000000002C0400201F0000201C00002043
:1002F00060070020040000200C00002008000020FF
:1003000010000020DC030020180000200000204125
:100310001400002025362E31660000002C05002038
:10032000F0030020704700BFFEE700BFFEE700BFFC
:10033000FEE700BFFEE7704770477047704710B593
:1003400001210D4803F0F1FF012805D100F0CAF8A2
:100350000121094803F0E6FF10BD10B5012188070F
:1003600003F0E3FF012805D102F04AFA01218807D2
:1003700003F0D8FF10BD00000004004008B5684637
:1003800002F0BFFC0121082002F0ECFE2020ADF8B5
:10039000000002208DF8020048208DF80300694615
:1003A000984802F023FC4020ADF8000002208DF8B0
:1003B000020048208DF803006946924802F016FCBE
:1003C0008020ADF8000002208DF8020048208DF852
:1003D000030069468B4802F009FC0121042002F069
:1003E000C1FE4FF48070ADF8000002208DF80200CD
:1003F00010208DF803006946834802F0F7FB4FF4A4
:100400008071814802F0A1FC08BD10B57F480078DA
:10041000012804D0022816D0032860D139E07C4896
:100420000078012805D100207949087077490870C3
:1004300008E077480078022804D100207449087049
:10044000724908704CE072480078012817D1714950
:10045000B1F9100004F0CBFA04466F480168204659
:1004600004F08EF96C490860086804F0DBFA6B4907
:1004700008600020664908706449087008E0644814
:100480000078022804D10020614908705F49087093
:1004900026E05F480078012817D15E49B1F91000C5
:1004A00004F0A5FA04465C480168204604F0BDF952
:1004B00059490860086804F0B5FA584908600020F6
:1004C000534908705149087008E0514800780228E3
:1004D00004D100204E4908704C49087000E000BF6C
:1004E00000BF10BD10B54E48007820B101281AD0C9
:1004F000022870D170E08021424802F00AFC48B125
:100500004021404802F005FC20B120213D4802F086
:1005100000FC10B9012042490870002041490870D0
:10052000414908706CE08021364802F0F2FB48B186
:100530004021344802F0EDFB20B12021314802F087
:10054000E8FBA0BB80212F4802F0E3FB18B9012093
:100550002E49087010E040212A4802F0DAFB18B951
:1005600002202A49087007E02021264802F0D1FB2A
:1005700010B90320254908702B48007810B90120D4
:100580002949087027480078401C26490870084609
:10059000007864281EDD02201D49087000202149D2
:1005A00008702149087002201D49087012E0FFE719
:1005B0001D48007801280AD1154908700020194902
:1005C00008701949087002201549087002E00020DF
:1005D0001349087014E012E080210A4802F099FBE8
:1005E00060B14021074802F094FB38B12021054852
:1005F00002F08FFB10B100200949087000E000BF35
:1006000000BF10BD000C0140000801402200002086
:10061000210000202C0400206007002000000020A2
:100620002000002023000020240000200EB501211E
:10063000084602F0A4FD0020ADF806006320ADF8E6
:10064000040041F61F40ADF800000020ADF80200A4
:100650008DF8080069464FF0804003F041F8012111
:10066000880703F05FFE01221146900703F0AFFBFD
:100670000121880703F090FB0EBD0EB50121022079
:1006800002F07DFD0020ADF806006320ADF8040007
:1006900041F61F40ADF800000020ADF802008DF8D3
:1006A00008006946184803F01BF80121164803F0BA
:1006B00039FE01221146144803F089FB012112483A
:1006C00003F06AFB0EBD08B54FF4407002F0C0F9AC
:1006D0001D208DF8000001208DF801008DF802002A
:1006E0008DF80300684602F0B8F91C208DF8000070
:1006F00002208DF8010001208DF802008DF8030022
:10070000684602F0AAF908BD0004004000B587B0B1
:100710000121080302F026FD0121042002F022FD40
:100720002020ADF8180018208DF81B0003208DF84C
:100730001A0006A9F64802F059FA8020ADF8180010
:1007400018208DF81B0003208DF81A0006A9F04828
:1007500002F04CFA4020ADF8180004208DF81B0080
:1007600003208DF81A0006A9E94802F03FFA10208C
:10077000ADF818008DF81B0003208DF81A0006A9AB
:10078000E34802F033FA1021E14802F0DCFA0021DC
:10079000E04802F016FE0020ADF804004FF482702D
:1007A000ADF806000020ADF808000220ADF80A0000
:1007B0000120ADF80C004002ADF80E002820ADF885
:1007C00010000020ADF812000720ADF8140001A9B8
:1007D000D04802F051FD0121CE4802F0F2FD07B0F1
:1007E00000BD0146002206E0501C80B20246C82827
:1007F00001DD00207047C748008900F00200002892
:10080000F2D0C4488181002206E0501C80B202462A
:10081000C82801DD0020EDE7BE48008900F0010096
:100820000028F2D0BB488089E4E77FB505460C4636
:1008300000261021B64802F088FA45F080008DF8B5
:100840000800200E8DF80900200C8DF80A00200AFF
:100850008DF80B00E0B28DF80C009DF80800FFF752
:10086000C0FFC0B28DF800009DF80900FFF7B9FF86
:10087000C0B28DF801009DF80A00FFF7B2FFC0B2C8
:100880008DF802009DF80B00FFF7ABFFC0B28DF8AA
:1008900003009DF80C00FFF7A4FFC0B28DF8040020
:1008A00010219B4802F04FFA9DF80060304604B0DA
:1008B00070BD7FB506460D4600241021944802F015
:1008C00044FA8DF80860280E8DF80900280C8DF880
:1008D0000A00280A8DF80B00E8B28DF80C009DF88C
:1008E0000800FFF77EFFC0B28DF800009DF80900F8
:1008F000FFF777FFC0B28DF801009DF80A00FFF7FF
:1009000070FFC0B28DF802009DF80B00FFF769FF81
:10091000C0B28DF803009DF80C00FFF762FFC0B273
:100920008DF8040010217A4802F00DFA9DF80000BD
:10093000794908809DF8014024029DF80200044393
:1009400024029DF80300044324029DF8040004439C
:10095000204604B070BD10B504210020FFF765FFEC
:1009600000210320FFF761FF00210520FFF75DFF55
:1009700000210620FFF759FF0E210820FFF755FF41
:1009800066490920FFF751FF65490A20FFF74DFF2F
:1009900000210B20FFF749FF05211020FFF745FF3D
:1009A0000A211120FFF741FF10211320FFF73DFF1F
:1009B00010211420FFF739FF10211520FFF735FF14
:1009C00000212020FFF731FF00212120FFF72DFF1C
:1009D0004FF480712320FFF728FF4FF4805124202B
:1009E000FFF723FF00212520FFF71FFF4FF4804171
:1009F0002620FFF71AFF4FF480312720FFF715FF5D
:100A00004FF480412820FFF710FF4FF480512A2037
:100A1000FFF70BFF0A212B20FFF707FF4FF4807130
:100A20002C20FFF702FF00212D20FFF7FEFE002102
:100A30003320FFF7FAFE00213420FFF7F6FE4FF4D3
:100A400080613820FFF7F1FE00213920FFF7EDFE2D
:100A500034493A20FFF7E9FE00213D20FFF7E5FE8B
:100A600031496020FFF7E1FE30496120FFF7DDFEEC
:100A70002F496220FFF7D9FE2E496320FFF7D5FEEC
:100A80006FF080616420FFF7D0FE2B496520FFF7EF
:100A9000CCFE2A496620FFF7C8FE29496720FFF7E8
:100AA000C4FE28496820FFF7C0FE4FF47701692093
:100AB000FFF7BBFE24496C20FFF7B7FE00216D2035
:100AC000FFF7B3FE00216E20FFF7AFFE1F49702035
:100AD000FFF7ABFE04211E4802F037F910BD70B5D8
:100AE0000A24032600251B48408A84B21A4800883D
:100AF000A0420CD0184804807504202C00DB202470
:100B000045EA0425354329461020FFF78EFE70BDC7
:100B100000080140003001402C00002006060100C2
:100B2000000408007017010054B5AAAAAA54954AF7
:100B300029294924224210107D77BBB556552949F1
:100B4000224240005680FFFF530141041E000CC4A6
:100B5000000C01402C0400202800002070B5002566
:100B60000024FE48C08885B2FD480088A84238D0DD
:100B7000FB480580FB4C102D1DD008DC092D2BD225
:100B8000DFE805F02825222A1F2A2A2A1C00202D0A
:100B90000ED0402D09D0802D04D0B5F5807F1BD11B
:100BA00000BF19E044F0807416E044F0007413E0D4
:100BB00044F0407410E044F080640DE044F0A06420
:100BC0000AE044F0C06407E044F0E06404E044F06C
:100BD000006401E000BF00BF00BF21466C20FFF7AA
:100BE00024FE70BD70B500BF00BF00BFDB48B0F988
:100BF0000C4004EB840044002646D848B0F90E505F
:100C000005EB85004500D8480068A04209D0D648C9
:100C1000046021462620FFF708FE31462820FFF712
:100C200004FED2480068A84205D0D0480560294695
:100C30002720FFF7FAFD70BD2DE9F84F002700BF10
:100C400000BF4FF48049C82400BFC448B0F9060073
:100C500010284AD008DC012871D0042861D005286A
:100C600070D008286DD14EE0202830D0402820D008
:100C7000802810D0B0F5807FF4D1200203F0B7FEB9
:100C80000746484603F0BCFE82465146384603F00C
:100C900001FE074681E0E00103F0A9FE0746484651
:100CA00003F0AEFE82465146384603F0F3FD074698
:100CB00073E0A00103F09BFE0746484603F0A0FE48
:100CC00082465146384603F0E5FD074665E060017F
:100CD00003F08DFE0746484603F092FE82465146D9
:100CE000384603F0D7FD074657E0200103F07FFEAA
:100CF0000746484603F084FE82465146384603F0D4
:100D0000C9FD074649E0E00003F071FE074648468A
:100D100003F076FE82465146384603F0BBFD074697
:100D20003BE0A00003F063FE0746484603F068FE80
:100D300082465146384603F0ADFD07462DE010E0EF
:100D400000E01CE004EB440003F051FE0746484677
:100D500003F056FE82465146384603F09BFD074697
:100D60001BE0204603F043FE0746484603F048FEDA
:100D700082465146384603F08DFD07460DE02002BD
:100D800003F035FE0746484603F03AFE82465146D8
:100D9000384603F07FFD074600BF00BF7449384660
:100DA00003F046FD07467249384603F073FD82465C
:100DB00003F051FE054642F2107105FB01F003F00D
:100DC0001FFE8346394603F030FD824603F043FEA2
:100DD0008046404603F014FE07466549384603F056
:100DE00059FD07466249384603F022FD8346280430
:100DF00003F006FE5946009003F0C2FC824603F061
:100E000011FE064631463A20FFF70FFD002139203A
:100E1000FFF70BFDBDE8F88F10B55048B0F934006E
:100E200054490968884201D0012000E000204B4964
:100E3000B1F93610504A1268914201D0012100E008
:100E40000021084328B34548B0F9340049490860F7
:100E50004248B0F936004849086008460088000456
:100E6000464908604348008880B2096808434349FE
:100E70000860084601682D20FFF7D7FC3F4800882E
:100E800000B2364988863D480068000C00B2C8862A
:100E900018E03B48006839490968884212D0374851
:100EA000006837490860354801682D20FFF7BDFC10
:100EB0003248008800B22949888630480068000C12
:100EC00000B2C88610BD2DE9F0410024002600279D
:100ED000002500213920FFF7ECFC0446204603F0F2
:100EE00086FD054620B21D490887200C00B24887C0
:100EF00024480168284603F0CDFC0546BDE8F08192
:100F000010B521496C20FFF790FC20496D20FFF7B8
:100F10008CFC1F490A20FFF788FC1E499020FFF730
:100F200084FC1D491020FFF780FC0A211120FFF7E7
:100F30007CFC04210020FFF778FC4FF44021702056
:100F4000FFF773FC4FF4FA711320FFF76EFC42F2C7
:100F500010712420FFF769FC104921E02C040020C7
:100F60002A000020530141003C00002040000020E6
:100F700000401C46480000204C00002000000020DB
:100F80005000002054000020C300010013E30001C2
:100F9000100718000A1F06000614060020A107000B
:100FA0002520FFF742FC41F288312620FFF73DFC67
:100FB00074492720FFF739FC41F658312820FFF704
:100FC00034FC43F2B0612A20FFF72FFC64212B2070
:100FD000FFF72BFC00212020FFF727FC40F2044103
:100FE0003820FFF722FC00213920FFF71EFC66495C
:100FF0003A20FFF71AFC10BD70B5044621462D209B
:10100000FFF713FC00212120FFF70FFC0021212016
:10101000FFF70BFC00212120FFF74BFC5B49086028
:10102000002512E0012000F01AFE00212120FFF728
:1010300040FC564908605648007800F028002828EF
:1010400001D140F6B835681C85B240F6B83085420B
:10105000E8DB70BD2DE9F047044642F22831262036
:10106000FFF7E3FB4B492720FFF7DFFB42F2283174
:101070002820FFF7DAFB48492A20FFF7D6FB4FF478
:10108000FA712B20FFF7D1FB4FF47A342046FFF79B
:10109000B3FF4FF0000915E000213920FFF709FCEC
:1010A000824603F0B2FC074600223C4B03F030FCC2
:1010B000054603F0E4FC3A4908600A2000F0CFFD41
:1010C00009F10109B9F1050FE6DB42F210712420A4
:1010D000FFF7ABFB33492520FFF7A7FB41F288312F
:1010E0002620FFF7A2FB30492720FFF79EFB41F6A1
:1010F00058312820FFF799FB43F2B0612A20FFF70F
:1011000094FB64212B20FFF790FB4FF47A7000F0E2
:10111000A6FD23490968601AFFF76EFF4FF47A7045
:1011200000F09DFDBDE8F08770B5002400254FF468
:1011300080613420FFF779FB40F204613820FFF72B
:1011400074FB01212020FFF770FB00BF00213B2032
:10115000FFF7AFFB0228F9D000213B20FFF7A9FBE6
:10116000C4B2022C03D102213B20FFF75EFB002119
:101170003620FFF79EFB00213620FFF79AFB05463D
:1011800070BD0000002D3101D00733003000002079
:101190002E000020404B4C00905F010000001040EA
:1011A0003800002020A1070080841E000020424952
:1011B0000880012048804FF4165088800420C880A1
:1011C0001220088132204881502088816420C88103
:1011D000000108820520488200208882C882088396
:1011E00048838883C883088448848884C8840885A1
:1011F00048858885C885088648868886C886088781
:1012000048878887C887A1F84000A1F84200A1F864
:101210004400A1F84600A1F84800A1F84A00A1F84E
:101220004C00A1F84E00A1F85000A1F85200A1F81E
:101230005400A1F85600A1F85800A1F85A00A1F8EE
:101240005C00A1F85E00A1F86000A1F86200A1F8BE
:10125000C800A1F8CA00A1F8CC00A1F8CE00A1F8FE
:10126000D000A1F8D200A1F8D400A1F8D600A1F8CE
:10127000D800A1F8DA00A1F8DC00A1F8DE00A1F89E
:10128000E000A1F8E200A1F8E400A1F8E600A1F86E
:10129000E800A1F8EA00A1F8EC00A1F8EE00A1F83E
:1012A000F000A1F8F200A1F8F400A1F8F600A1F80E
:1012B000F800A1F8FA0070472C04002008B50121BD
:1012C0001D2001F04FFF684601F01BFD0120ADF825
:1012D000000002208DF8020048208DF803006946C6
:1012E000D44801F083FC0220ADF800008DF8020024
:1012F00048208DF803006946CE4801F077FC0420B1
:10130000ADF8000001208DF8020048208DF80300A0
:101310006946C84801F06AFC0820ADF800000120C9
:101320008DF8020048208DF803006946C14801F09D
:101330005DFC1020ADF8000002208DF802001020A6
:101340008DF803006946BB4801F050FC2020ADF841
:10135000000002208DF8020010208DF8030069467D
:10136000B44801F043FC4020ADF8000002208DF8A5
:10137000020010208DF803006946AE4801F036FCEB
:101380008020ADF8000002208DF8020010208DF8BA
:1013900003006946A74801F029FC4FF48070ADF8BE
:1013A000000002208DF8020010208DF8030069462D
:1013B000A04801F01BFC4FF40070ADF800000220C3
:1013C0008DF8020018208DF803006946994801F055
:1013D0000DFC4FF48060ADF8000002208DF8020093
:1013E00004208DF803006946924801F0FFFB4FF49A
:1013F0000060ADF8000002208DF8020010208DF88A
:10140000030069468B4801F0F1FB4FF48050ADF8C2
:10141000000002208DF8020010208DF803006946BC
:10142000844801F0E3FB0120ADF8000002208DF8B4
:10143000020010208DF8030069467F4801F0D6FBBA
:101440000220ADF800008DF8020010208DF8030096
:101450006946794801F0CAFB0420ADF8000002207B
:101460008DF8020010208DF803006946724801F0E3
:10147000BDFB0820ADF8000002208DF802004820D6
:101480008DF8030069466C4801F0B0FB1020ADF800
:10149000000002208DF8020048208DF80300694604
:1014A000654801F0A3FB2020ADF8000002208DF874
:1014B000020048208DF8030069465F4801F096FB62
:1014C0004020ADF8000002208DF8020048208DF881
:1014D00003006946584801F089FB8020ADF8000000
:1014E00002208DF8020048208DF80300694652481A
:1014F00001F07CFB4FF48070ADF8000001208DF806
:10150000020014208DF8030069464B4801F06EFB81
:101510004FF40070ADF8000001208DF80200142097
:101520008DF803006946444801F060FB4FF4806089
:10153000ADF8000002208DF8020048208DF803006D
:1015400069463D4801F052FB4FF40060ADF80000E1
:1015500002208DF8020048208DF8030069463648C5
:1015600001F044FB4FF48050ADF8000002208DF8EC
:10157000020010208DF8030069462F4801F036FB69
:101580004FF40050ADF8000002208DF8020010204A
:101590008DF803006946284801F028FB4FF480408D
:1015A000ADF8000002208DF8020048208DF80300FD
:1015B0006946214801F01AFB4FF40040ADF80000E5
:1015C00002208DF8020010208DF8030069461A48A9
:1015D00001F00CFB4FF40050ADF8000002208DF834
:1015E000020014208DF803006946144801F0FEFA49
:1015F0004FF48040ADF8000002208DF80200142066
:101600008DF8030069460D4801F0F0FA4FF40040F0
:10161000ADF8000002208DF8020048208DF803008C
:101620006946064801F0E2FA0121054801F0AFFBE6
:1016300008BD000000080140000C014000100140FE
:101640000002300010B54FF48041F94801F07BFBF7
:101650004FF40051F64801F076FB4FF40051F44886
:1016600001F073FB4FF48041F14801F06EFB10BDB7
:1016700010B54FF48041EE4801F065FB4FF4005186
:10168000EB4801F062FB4FF40051E94801F05BFBCD
:1016900010BD10B54FF48041E54801F054FB4FF404
:1016A0008041E34801F051FB10BD2DE9F0410546B2
:1016B0002C464FF48041DE4801F047FB00261CE039
:1016C000274607F08007802F04D1B901D84801F0E0
:1016D0003AFB04E04FF40051D54801F036FB6006B8
:1016E000040E4FF48041D24801F02DFB4FF48041AD
:1016F000CF4801F02AFB701CC6B2082EE0DBBDE823
:10170000F08110B50446FFF79DFF7820FFF7CDFF6D
:10171000FFF7BFFF0020FFF7C8FFFFF7BAFF204623
:10172000FFF7C3FFFFF7B5FFFFF7A2FF10BD10B52E
:101730000446FFF787FF7820FFF7B7FFFFF7A9FF01
:101740004020FFF7B2FFFFF7A4FF2046FFF7ADFFF1
:10175000FFF79FFFFFF78CFF10BD70B504460D46E5
:101760001DB1E0B2FFF7E3FF02E0E0B2FFF7C9FF0F
:1017700070BD70B50646002418E004F1B0000021E9
:10178000FFF7EBFF00210846FFF7E7FF00211020DD
:10179000FFF7E3FF002505E001213046FFF7DDFFFD
:1017A000681CC5B2802DF7DB601CC4B2082CE4DBDA
:1017B00070BD06E041F6650100E0491E0029FCD13C
:1017C000401E0028F6D17047014605E0002001E0E8
:1017D000421CD0B27B28FBDB0A1EA1F10101F5D12E
:1017E000704770B504460D4605F1B0000021FFF7C3
:1017F000B4FF102141EA14100021FFF7AEFF04F0FE
:101800000F000021FFF7A9FF70BD10B500218D204A
:10181000FFF7A3FF00211420FFF79FFF0021AF2057
:10182000FFF79BFF10BD10B500218D20FFF795FF3E
:1018300000211020FFF791FF0021AE20FFF78DFF60
:1018400010BD70B5002418E004F1B0000021FFF7CE
:1018500084FF00210846FFF780FF00211020FFF7DA
:101860007CFF002505E001210020FFF776FF681CC2
:10187000C5B2802DF7DB601CC4B2082CE4DB70BD60
:1018800070B5002418E004F1B0000021FFF765FFF7
:1018900000210846FFF761FF00211020FFF75DFFE0
:1018A000002505E001210846FFF757FF681CC5B277
:1018B000802DF7DB601CC4B2082CE4DB70BD2DE981
:1018C000F04707460E469046994600250024A8F1A9
:1018D0002000C5B27F2F02DD0027B01CC6B2B9F1CF
:1018E000100F24D131463846FFF77BFF002408E073
:1018F00004EB05114F4A505C0121FFF72EFF601CDD
:10190000C4B2082CF4DB701CC1B23846FFF769FF83
:10191000002409E004EB05110831464A505C01211E
:10192000FFF71BFF601CC4B2082CF3DB12E031464A
:101930003846FFF756FF00240AE005EB45013E4A12
:1019400002EB4101085D0121FFF707FF601CC4B2F3
:10195000062CF2DBBDE8F08710B50246012000E05E
:1019600050430B1EA1F10104E1B2F9D110BD2DE9E4
:10197000FF5F074691461E460E9D4FF0000A002469
:1019800035E0301B401EC1B20A20FFF7E5FFB9FB6E
:10199000F0F00A21B0FBF1F201FB1208BAF1000FDE
:1019A00014D1701EA04211DDB8F1000F0CD1AB466E
:1019B00005EBDB71491001FB0471C8B22B462022F4
:1019C0000199FFF77CFF10E04FF0010AAB4605EBF1
:1019D000DB71491001FB0471C8B208F13001CAB2D1
:1019E0002B460199FFF76BFF00BF601CC4B2B442E5
:1019F000C7DBBDE8FF9F2DE9F04104460F461546C1
:101A0000984600260FE0AA5D434639462046FFF778
:101A100056FF04F10800C4B2782C02DD0024B81C83
:101A2000C7B2701CC6B2A85D0028ECD1BDE8F08139
:101A3000001001400C5B0008E45800082DE9F0415B
:101A400080460E461546002731464046FFF7C9FE40
:101A500000240AE0744A02EB8511085D0121FFF7BA
:101A60007CFE781CC7B2601CC4B2102CF2DB701C68
:101A7000C1B24046FFF7B5FE00240CE06900491CE6
:101A8000694A02EB4111085D0121FFF766FE781CEF
:101A9000C7B2601CC4B2102CF0DBBDE8F0812DE9A8
:101AA000F05F06460F4690461C46DDF828A04FF032
:101AB000000BE11704EB5171C910A4EBC10131B95E
:101AC0002046E11704EB5171C1F3C70506E020463B
:101AD000E11704EB5171C910491CCDB23D4615E028
:101AE00029463046FFF77DFEB1460BE059460BF123
:101AF000010B1AF801000121FFF72FFE09F1010087
:101B000000F0FF09C145F1DB681CC5B2A542E7DB67
:101B1000BDE8F09F08B50121082001F023FB4FF438
:101B20004060ADF8000010208DF8030003208DF810
:101B3000020069463D4801F059F84FF440613B48C6
:101B400001F001F94FF4487000F089F80021AE204F
:101B5000FFF703FE00210846FFF7FFFD00211020DC
:101B6000FFF7FBFD00214020FFF7F7FD0021B0202B
:101B7000FFF7F3FD00218120FFF7EFFD0021FF209B
:101B8000FFF7EBFD0021A120FFF7E7FD0021A620D4
:101B9000FFF7E3FD0021A820FFF7DFFD00213F2034
:101BA000FFF7DBFD0021C820FFF7D7FD0021D32080
:101BB000FFF7D3FD00210846FFF7CFFD0021D52018
:101BC000FFF7CBFD00218020FFF7C7FD0021D820C3
:101BD000FFF7C3FD00210520FFF7BFFD0021D9203D
:101BE000FFF7BBFD0021F120FFF7B7FD0021DA2050
:101BF000FFF7B3FD00211220FFF7AFFD0021DB202E
:101C0000FFF7ABFD00213020FFF7A7FD00218D205D
:101C1000FFF7A3FD00211420FFF79FFD0021AF2057
:101C2000FFF79BFD08BD000058000020000C01409C
:101C300000EBC001C9004FF0E02251610021916129
:101C40000521116100BF4FF0E021096901F48031E5
:101C50000029F8D004214FF0E0221161704700B54F
:101C6000034603E04FF47A70FFF7E2FF181EA3F17A
:101C70000103F7D100BD10B5044603E04FF47A70BC
:101C8000FFF7EDFF201EA4F10104F7D110BD000005
:101C900000B587B00121880301F071FA0121082005
:101CA00001F060FA4FF40050ADF8180018208DF8DC
:101CB0001B0003208DF81A0006A9B44800F096FF17
:101CC0004FF40040ADF8180018208DF81B000320D9
:101CD0008DF81A0006A9AD4800F088FF4FF4804047
:101CE000ADF8180004208DF81B0003208DF81A00B1
:101CF00006A9A64800F07AFF4FF48050ADF818000E
:101D000010208DF81B0003208DF81A0006A99F48AB
:101D100000F06CFF4FF480519C4801F014F8002152
:101D20009B4801F04EFB0020ADF804004FF4827098
:101D3000ADF806004FF40060ADF808000020ADF8E3
:101D40000A000120ADF80C004002ADF80E00202082
:101D5000ADF810000020ADF812000720ADF8140017
:101D600001A98B4801F088FA0121894801F029FB7B
:101D70004FF4FA70FFF75CFF07B000BD0146002288
:101D800006E0501C80B20246C82801DD00207047E2
:101D90007F480830008800F002000028F1D07C481D
:101DA0000C300180002206E0501C80B20246C82898
:101DB00001DD0020EBE776480830008800F00100E4
:101DC0000028F1D072480C300088E0E770B5044676
:101DD0004FF480516D4800F0B8FF2046FFF7CEFF6A
:101DE0006A48001D006820F070406849091D0860BD
:101DF0000846006840F0704008606420FFF718FF54
:101E00004FF6FF70FFF7BAFF05464FF480515F4869
:101E100000F099FF5D48001D006820F070405B49AC
:101E2000091D08600846006840F0304008602846F8
:101E300070BD2DE9F0410024002648F23100FFF783
:101E4000C5FF0446C4F30E04204602F0D9FD064641
:101E50005049304602F0ECFC07464FF08E4102F04C
:101E600019FD06464FF08041304602F013FD07464B
:101E700002F0F1FD85B22846BDE8F08170B5054657
:101E80000C464FF48051414800F05FFF2846FFF7B1
:101E900075FF2046FFF772FF3C48001D006820F0E8
:101EA00070403A49091D08600846006840F07040DB
:101EB00008606420FFF7BCFE4FF6FF70FFF75EFF7F
:101EC00006464FF48051314800F03DFF2F48001D79
:101ED000006820F070402D49091D08600846006820
:101EE00040F030400860304670BD2DE9F0410024DC
:101EF0000026002748F22100FFF768FF0446C4F3DC
:101F00000E044FF6FF7000EA4404204602F078FD0C
:101F100006462049304602F08BFC80464FF08F4148
:101F200002F0B8FC06461C49304602F081FC8046AF
:101F300002F091FD85B219480560BDE8F08110B549
:101F4000012145F29100FFF799FF4FF4FA70FFF776
:101F50006FFE002145F2E000FFF790FF4FF4FA70AA
:101F6000FFF766FE102145F2F100FFF787FF4FF4FF
:101F7000FA70FFF75DFE45F6FF211120FFF77EFFA7
:101F80004FF4FA70FFF754FE10BD0000000C014042
:101F9000003800400000B4430000C842DC030020C9
:101FA00010B586B004460121042001F0DBF80121C0
:101FB000880301F0D7F84FF48070ADF814000220C8
:101FC0008DF8160010208DF8170005A9F74800F0CD
:101FD0000DFE4FF40070ADF8140002208DF81600CD
:101FE00018208DF8170005A9F04800F0FFFD4FF408
:101FF0008060ADF8140002208DF8160004208DF8E2
:10200000170005A9E94800F0F1FD01A802F04EFA19
:1020100001940020ADF80800ADF80A00ADF80C00FE
:102020000C20ADF80E000020ADF8100001A9E0482A
:1020300002F0D3F925208DF8000001208DF8010071
:102040008DF802008DF80300684600F006FD0122BD
:1020500040F22661D64802F058FA002240F2277179
:10206000D34802F052FA012240F22551D04802F042
:102070004CFA0121CE4802F03CFA06B010BD10B572
:102080000446012C04D10102C84800F05CFE04E0C3
:102090004FF48071C54800F058FE10BD10B5012006
:1020A000FFF7EDFF0020C3490870C3480978445C7E
:1020B0002146BF4802F08AFA10BD70B502460C46B0
:1020C000FF25FF2309E012F8010B80EA0501BB4858
:1020D000405C80EA0305BA48435C201EA4F1010677
:1020E000B4B2F0D143EA052070BD704730B5024666
:1020F0000B46002400201146642904DA0C46B14D39
:1021000035F814501D8030BD2DE9F84300200090B3
:10211000AD48C078AC49897800EB01201FFA80F9FE
:102120004F46A9484079A849097900EB01201FFAD8
:1021300080F8A5484079B0F5806F34DA4FF6FF702B
:1021400000EA4804002512E069463846FFF7CEFF52
:10215000BDF800000112984AE81C1154BDF80000B7
:10216000C1B2281D1154A81C85B2781C87B2A542A3
:10217000EADB9648007890490870032048708C701C
:10218000E01C84B221468C48FFF797FF06463012C8
:1021900089490855601C84B20E55601C8C49087032
:1021A000FFF77CFF04E000208A4908708A49087024
:1021B000BDE8F883704770B502460B460024002046
:1021C0001146642913DA0C461DB27E4E26F81450CF
:1021D000142901DA012500E00025272901DD012667
:1021E00000E00026354315B101257C4E357070BDE9
:1021F0002DE9F047002500260024A14600BFA04697
:10220000002771488478C67825464FF6FF7000EAAB
:1022100005253543A9466C4807794FF6FF7000EA5B
:10222000072769484079074339464846FFF7C3FF07
:102230006648007860490870062048700846847037
:10224000C6706148007908715F484079487106217D
:102250005948FFF732FF80464FEA282056498871D7
:1022600081F8078008205A49087001205C490870ED
:10227000FFF714FFBDE8F0872DE9F04700BF524893
:10228000C0785149897800EB012085B2A8464E48B4
:1022900040794D49097900EB012086B24A4890F80F
:1022A00006A0002417E0082000EB44004649085C23
:1022B000072101EB4401444A515C00EB01201FFA65
:1022C00080F949464046FFF776FF601C84B208F16A
:1022D00001001FFA80F8B442E5DB3C48007836493B
:1022E00008701020487028128870CD703012087164
:1022F0004E7106213048FFF7E0FE074638122E499E
:102300008871CF71082032490870FFF7C7FEBDE819
:10231000F08770B5334800782C4908702D48007854
:10232000042842DD2848407806280FD006DC012822
:1023300009D0032808D005287ED106E00F285FD0F9
:102340001028F9D17FE000BF00BF00BF214800780E
:10235000082854DB1C4800781C490978884249D178
:102360001D48007800BB06211748FFF7A6FE05466A
:102370001548C0791449897900EB0120A84239D168
:1023800011484078012802D1FFF7AFFE32E00E4835
:102390004078032802D1FFF7B7FE2BE00A484078C7
:1023A000052821D1FFF706FF24E08AE0000801405C
:1023B00000380140EF03002040050020FC600008C9
:1023C000FC6100082C04002040060020EC030020E3
:1023D000ED030020EE030020FC0300201E0000207F
:1023E000F10300201F000020CF484078062801D1CB
:1023F000FFF7FEFE0020CD490870CD4908705FE070
:10240000C94884790934C9480078A0421ADBC64813
:102410000078C849097888420FD1C548007860B96A
:10242000A01E81B2C048FFF748FE05460020BF4904
:102430000870BF49087005E03EE00020BB49087005
:10244000BB4908703CE0B8484079B749097900EBCE
:10245000012084B24FF6FF7000EA440404F1090041
:1024600084B2B2480078A04225DBAF480078B14979
:10247000097888421AD1AE480078B8B9A01E81B256
:10248000A948FFF71AFE0546601EA749095CA01E71
:10249000A54A105C01EB0020A84201D1FFF7ECFE39
:1024A0000020A2490870A249087004E000209F495A
:1024B00008709F49087003E000209C49087000BF25
:1024C00000BF70BD30B503460020C3F30B02D4B289
:1024D000062C1CD2DFE804F003070B0F1317964CF1
:1024E000A45C0C8014E0944CA45C0C8010E0924C32
:1024F000A45C0C800CE0904CA45C0C8008E08E4C3A
:10250000A45C0C8004E08C4CA45C0C8000E000BF58
:1025100000BF30BD30B503460020C3F30B02D4B278
:10252000052C13D2DFE804F00306090C0F00824DDE
:10253000A9540CE0804DA95409E07F4DA95406E050
:102540007D4DA95403E07C4DA95400E000BF00BFBD
:1025500030BD2DE9FE4F4FF0000B002002904FF4EC
:10256000807001900020009040F22771734802F0C3
:10257000B1F8044640F22661704802F0ABF8054617
:1025800040F225516D4802F0A5F806464FF4587107
:102590006A4802F09FF8074640F22441674802F07B
:1025A00099F880464FF4B071644802F093F8814680
:1025B0002821624802F08EF88246012C08D1802141
:1025C0005E4802F07EF840F227715C4802F0ACF8F9
:1025D000012D1FD14021594802F073F85848007866
:1025E000401E5849097888420DDD56480078401C45
:1025F0005449087054480978405C00904F4800994D
:1026000001F0E4FF06E000204849087048490870DE
:10261000FFF735FD012E57D12021484802F051F82F
:1026200040F22551454802F07FF8444801F0D2FFBE
:1026300083464648008830B1012807D0022808D0D8
:1026400003280CD108E0502002900BE028200290D3
:1026500008E01420029005E00420029002E05020DF
:10266000029000BF00BF3A4801880298814213DD02
:1026700000202E4908703649088000214FF0804024
:1026800001F08AFB00214FF0804001F019FE01218A
:10269000880701F081FB02E000202D4908802249D3
:1026A000224A127801F802B020480078401C1F49E5
:1026B0000870084601780198814202D100201B4928
:1026C0000870012023490870012F08D108211B48F8
:1026D00001F0F7FF4FF45871184802F025F8B8F1EF
:1026E000010F08D11021154801F0EBFF40F2244101
:1026F000124802F019F8B9F1010F08D102210F4870
:1027000001F0DFFF4FF4B0710C4802F00DF8BAF1A0
:10271000010F07D10121094801F0D3FF2821074803
:1027200002F002F8BDE8FE8F40060020EE03002014
:10273000FC030020EC03002040070020003801408B
:10274000ED030020EF030020400500201C000020C6
:10275000FE030020F003002000204049086048608C
:102760008860C860C8613E480861002048613D48F3
:102770008861704739490860704738480068704779
:10278000364B186159619A6170472DE9F041044652
:102790003248446002465168106802F043F82F49FD
:1027A00088600A469168D06901F0EAFF2B49C86148
:1027B0000A46D168906802F035F8074627488169D3
:1027C000384602F035F80546244AD169506902F0CE
:1027D0002FF80746214A9168106902F029F88046CF
:1027E000394601F0CDFF0646294601F0C9FF1B49D5
:1027F000486008468068C86008464068BDE8F081C7
:102800003EB50020029001900090174800681749DB
:102810000968884218D000213920FEF74AF80021C3
:102820003920FEF746F80190019802F0E0F80546DD
:10283000FFF7ABFF044602F0F5F80090009802F0B5
:10284000D6F80649086007E000200290009003498E
:1028500048608860C860C8613EBD00006007002015
:10286000CDCC4C3ECDCCCC3D000000201000002053
:102870000CB50020019000906C48006840F4803056
:102880006A49086000BF6948006800F400300090A1
:102890000198401C0190009818B90198B0F5A06FFC
:1028A000F1D16248006800F4003010B101200090BE
:1028B00001E0002000900098012843D15C480068A6
:1028C00040F010005A4908600846006820F00300F4
:1028D00008600846006840F00200086053484068FD
:1028E000524948600846406848600846406840F4DD
:1028F000806048600846406820F47C1048600846C4
:10290000406840F4E81048600846006840F0807075
:10291000086000BF4548006800F000700028F9D04A
:102920004248406820F0030040494860084640683B
:1029300040F00200486000BF3C48406800F00C00D6
:102940000828F9D10CBD10B5FFF792FF10BD10B5E6
:102950003648006840F00100344908600846406885
:102960003449084031494860084600683249084007
:102970002E4908600846006820F480200860084658
:10298000406820F4FE0048604FF41F008860FFF7A5
:10299000DAFF4FF000602949086010BD10B5002132
:1029A00000200022214B5B6803F00C0121B10429B7
:1029B00006D0082928D107E0214B224C236027E0CC
:1029C0001F4B204C236023E0184B5B6803F470100E
:1029D000164B5B6803F48032022303EB904022B96C
:1029E000194B4343174C23600DE0104B5B6803F415
:1029F000003323B1144B4343124C236003E0104BCC
:102A00004343104C236003E00D4B0E4C236000BF8A
:102A100000BF064B5B68C3F303130C4CE15C094B2E
:102A20001B68CB40074C236010BD00000010024023
:102A3000002002400000FFF8FFFFF6FE08ED00E076
:102A400000127A000404002000093D000804002060
:102A500031490143314A1160704770B500210023AC
:102A60000F22C47804B32D4C246804F4E064C4F548
:102A7000E064210AC1F10403CA40447804FA03F176
:102A80008478144021430901254C0678A155047827
:102A900004F01F050124AC4005786D11AD0005F16F
:102AA000E025C5F8004109E0047804F01F05012481
:102AB000AC401C4D0678761145F8264070BD1A4A88
:102AC0000A400243154B1B1F1A60704739B1134A65
:102AD000121D12680243114B1B1D1A6006E00F4ABB
:102AE000121D126882430D4B1B1D1A60704704288B
:102AF00008D14FF0E021096941F004014FF0E022D4
:102B0000116107E04FF0E021096921F004014FF065
:102B1000E0221161704700000000FA050CED00E0B2
:102B200000E400E080E100E080FFFF1F10B50446F4
:102B3000CC48844208D10121042000F02DFB002163
:102B4000042000F029FB46E0C748844208D1012157
:102B5000082000F021FB0021082000F01DFB3AE0D6
:102B6000C248844208D10121102000F015FB002149
:102B7000102000F011FB2EE0BD48844208D1012155
:102B8000202000F009FB0021202000F005FB22E0BE
:102B9000B848844208D10121402000F0FDFA00210C
:102BA000402000F0F9FA16E0B348844208D1012130
:102BB000802000F0F1FA0021802000F0EDFA0AE018
:102BC000AE48844207D10121801500F0E5FA0021CA
:102BD000A01500F0E1FA10BD10B50121084600F083
:102BE000DBFA0021012000F0D7FA10BD2DE9F041F9
:102BF000024600250026002000230024002791F82B
:102C000003C00CF00F0591F803C00CF0100CBCF1E0
:102C1000000F03D091F802C04CEA050591F800C0FE
:102C2000BCF1000F31D0146800202BE04FF0010CF4
:102C30000CFA00F3B1F800C00CEA03069E4220D162
:102C400083004FF00F0C0CFA03F7BC4305FA03FCAA
:102C50004CEA040491F803C0BCF1280F06D14FF0F0
:102C6000010C0CFA00FCC2F814C00AE091F803C091
:102C7000BCF1480F05D14FF0010C0CFA00FCC2F872
:102C800010C0401C0828D1D31460B1F800C0BCF1BA
:102C9000FF0F34DD546800202EE000F1080C4FF0E7
:102CA000010808FA0CF3B1F800C00CEA03069E42D2
:102CB00021D183004FF00F0C0CFA03F7BC4305FA47
:102CC00003FC4CEA040491F803C0BCF1280F05D1C1
:102CD00000F1080C08FA0CF8C2F8148091F803C04F
:102CE000BCF1480F07D100F1080C4FF0010808FAB9
:102CF0000CF8C2F81080401C0828CED35460BDE800
:102D0000F0814FF6FF710180022181700421C170B2
:102D100070470246002093680B400BB1012000E091
:102D2000002070470146886880B270470246002044
:102D3000D3680B400BB1012000E000207047014632
:102D4000C86880B2704701617047416170470AB13D
:102D5000016100E041617047C16070474FF480320B
:102D60000A43826181618261826982697047024699
:102D70000020434B18684FF68073184040EA021059
:102D800008433F4B186070473E49C8617047F0B533
:102D90000A46002300240021002500F00046B6F179
:102DA000004F02D1364EF16901E0354E7168C0F333
:102DB000034583B200F44016B6F5401F08D121F058
:102DC00070612F4E766826F070662D4F7E6012E09F
:102DD00000F48016B6F5801F06D1032606FA05F426
:102DE000A14341F0706106E0460D360103FA06F694
:102DF000B14341F0706122B1460D360103FA06F687
:102E0000314300F00046B6F1004F02D11C4EF16193
:102E100001E01B4E7160F0BD30B500228B071C0F26
:102E20000F2303FA04F2164B08338C1053F82430A6
:102E30009343134C08348D1044F8253023468C10EE
:102E400053F824308C07240F00FA04F423430C4C6D
:102E500008348D1044F8253030BD0A49DC31086053
:102E60007047000000080140000C014000100140C4
:102E70000014014000180140001C014000200140E6
:102E80000000014000002042DF48006840F00100DF
:102E9000DD49086008464068DC490840DA49486076
:102EA00008460068DA490840D749086008460068C3
:102EB00020F4802008600846406820F4FE00486046
:102EC0004FF41F0088607047CF49096821F48031B2
:102ED000CD4A11601146096821F480211160B0F5D6
:102EE000803F03D0B0F5802F0ED106E0C6490968B7
:102EF00041F48031C44A116007E0C349096841F4D4
:102F0000A021C14A116000E000BF00BF704710B5AA
:102F100001460022002300204A11012A02D1BA4CA6
:102F2000236806E0022A02D1B74C236A01E0B64CBE
:102F3000636A01F01F02012494401C400CB101207F
:102F400000E0002010BD38B50020009000240025CE
:102F500000BF3120FFF7DBFF05460098401C0090C2
:102F60000098B0F5A06F01D0002DF2D03120FFF70E
:102F7000CEFF08B1012400E00024204638BD014600
:102F80000020A14A106820F0F80040EAC10010605B
:102F90007047A04908607047024600209A4B586865
:102FA00020F47C1042EA01031843974B58607047A5
:102FB00098490866704701460020934A506820F0FF
:102FC00003000843506070478F48406800F00C00D1
:102FD0007047014600208C4A506820F0F0000843FA
:102FE0005060704701460020874A506820F4E06036
:102FF00008435060704701460020834A506820F41F
:10300000605040EAC1005060704729B17E4A527A50
:1030100002437D4B5A7204E07B4A527A82437A4BD8
:103020005A7270477B49D8310860704701460020CA
:10303000754A506820F440400843506070470021B2
:10304000714A20321170704A82F82010012802D093
:1030500004280AD104E001216B4A2032117005E0F6
:103060000521694A2032117000E000BF00BF70479F
:103070006949086070476449096A0143624A1162FC
:103080007047654944390860704730B50021002217
:10309000002400235C4D6D6805F00C0121B104296A
:1030A00005D0082923D105E05C4D056022E05B4D89
:1030B00005601FE0544D6D6805F47012524D6D6847
:1030C00005F48034022505EB92421CB9544D55435A
:1030D00005600BE04C4D6D6805F400351DB1504D99
:1030E0005543056002E04D4D5543056002E04B4DF0
:1030F000056000BF00BF444D6D6805F0F00109098F
:10310000484D6B5C0568DD4045603F4D6D6805F4DA
:10311000E061090A434D6B5C4568DD4085603A4DCE
:103120006D6805F46051C90A3E4D6B5C4568DD4031
:10313000C560354D6D6805F44041890B3A4D6B5CB7
:10314000C568B5FBF3F5056130BD29B12E4A52695A
:1031500002432D4B5A6104E02B4A526982432A4BA9
:103160005A61704729B1284A92690243264B9A61F5
:1031700004E0254A92698243234B9A61704729B142
:10318000214AD2690243204BDA6104E01E4AD26927
:1031900082431D4BDA61704729B11B4AD268024352
:1031A000194BDA6004E0184AD2688243164BDA60A1
:1031B000704729B1144A12690243134B1A6104E0A3
:1031C000114A12698243104B1A6170471249403903
:1031D000086070470F49C86470470B49C871704751
:1031E0000948406A40F080700749486270470146CC
:1031F0000020054A92680A400AB1012000E0002040
:103200007047014988727047001002400000FFF8C3
:10321000FFFFF6FE000042428004424200127A00A4
:1032200000093D00180400202804002010B50446C1
:10323000BE48844208D101218014FFF7ADFF002170
:10324000A014FFF7A9FF16E0B948844208D1012174
:103250000014FFF7AEFF00212014FFF7AAFF0AE0D9
:10326000B448844207D10121C013FFF7A2FF002117
:10327000E013FFF79EFF10BD10B50022028802F494
:1032800041520B884C8823438C882343CC882343AA
:103290000C8923434C8923438C892343CC892343C2
:1032A0001A430280838B4FF2FF74234083830B8A7F
:1032B000038210BD2DE9F04F85B005460C464FF056
:1032C000000902274FF000084FF0010B0026B2461C
:1032D000A88B4FF240010840A88302202884B5F84B
:1032E0001C90A068022801D100BF38E0A08810B966
:1032F0004FF0010B01E04FF0020B8D48854200D1E9
:1033000000E000BF6846FFF7C0FEDDF800A0E088DF
:10331000B0F5007F0AD14FEA1A2000EB8000400090
:10332000A168B0FBF1F0401D86B20BE04FEA4B10F4
:10333000BAFBF0F000EB80004000A168B0FBF1F0B8
:10334000401D86B20A20B6FBF0F606F00108A6EB97
:103350000800C0F34F074FF6FF7000EA0828022F5D
:1033600001DBFF2F02DD02274FF00008E08840EA72
:10337000080038432884A088A1890843618808434D
:103380002188084340F4006040EA0909A5F81C9030
:1033900005B0BDE8F08F0021018041808180C180AF
:1033A000018141818181C181072101827047002112
:1033B000018041808180C180022181600021818162
:1033C000704721B1028842F04002028004E0028886
:1033D0004FF6BF731A400280704721B1828B42F4CE
:1033E0008062828304E0828B4FF6FF331A4082832F
:1033F000704730B5002400230C110125A540ABB265
:103400001AB185881D43858002E085889D438580AB
:1034100030BD1AB183880B43838002E083888B43DD
:1034200083807047818170470146888970474FF6D5
:10343000FF62914204D0028842F48072028004E06C
:1034400002884FF6FF631A400280704721B18288DC
:1034500042F00402828004E082884FF6FB731A4037
:103460008280704702884FF2FF731A400280028800
:103470000A4302807047018841F4805101807047FF
:1034800021B1028842F40052028004E002884DF625
:10349000FF731A400280704702460020012901D0C4
:1034A000108B00E0908A70470146088A7047B1F59A
:1034B000804F04D1028842F48042028004E00288F6
:1034C0004BF6FF731A4002807047024600201389B2
:1034D0000B400BB1012000E000207047CA4302817D
:1034E0007047F0B50246002000240023002501F0BB
:1034F0000F070126BE40B4B20B1101269E40B3B2A5
:10350000968806EA03051689264016B10DB10120FA
:1035100000E00020F0BD10B5002201F00F040123EF
:10352000A3409AB2D343038110BD00000030014094
:1035300000380040003C004010B50446FE4884427C
:1035400008D10121C014FFF727FE0021E014FFF786
:1035500023FEC4E0B4F1804F08D101210846FFF7F3
:1035600028FE00210120FFF724FEB8E0F348844242
:1035700008D101210220FFF71CFE00210220FFF7E5
:1035800018FEACE0EE48844208D101210420FFF788
:1035900010FE00210420FFF70CFEA0E0E948844261
:1035A00008D101210820FFF704FE00210820FFF7C1
:1035B00000FE94E0E448844208D101211020FFF786
:1035C000F8FD00211020FFF7F4FD88E0DF48844279
:1035D00008D101212020FFF7ECFD00212020FFF77A
:1035E000E8FD7CE0DA48844208D101214014FFF76D
:1035F000D3FD00216014FFF7CFFD70E0D548844271
:1036000009D10121C804FFF7C7FD00214FF40020B4
:10361000FFF7C2FD63E0D048844209D101210805CB
:10362000FFF7BAFD00214FF48010FFF7B5FD56E01B
:10363000CA48844209D101214805FFF7ADFD0021A8
:103640004FF40010FFF7A8FD49E0C548844208D1B7
:1036500001214020FFF7ADFD00214020FFF7A9FD2B
:103660003DE0C048844208D101218020FFF7A1FD40
:1036700000218020FFF79DFD31E0BB48844208D146
:1036800001218015FFF795FD0021A015FFF791FDA1
:1036900025E0B648844209D101210804FFF77CFDEA
:1036A00000214FF48030FFF777FD18E0B0488442E6
:1036B00009D101214804FFF76FFD00214FF40030CC
:1036C000FFF76AFD0BE0AB48844208D10121880472
:1036D000FFF762FD00214FF48020FFF75DFD10BD74
:1036E00000220288944B98420ED0994B98420BD0FE
:1036F000B0F1804F08D0914B984205D0904B984242
:1037000002D0904B984204D14FF68F731A404B88E9
:103710001A438D4B984207D08C4B984204D04FF6F9
:10372000FF431A40CB881A4302808B8883850B881D
:103730000385814B98420BD0854B984208D08B4B28
:10374000984205D08A4B984202D08A4B984201D1C8
:103750000B7A038601238382704770B50024002210
:103760000023058C4FF6FE7635400584028C838855
:10377000048B4FF68F752C40B51E2C400D882C43C2
:10378000751E2A400D892A434D882A436A4DA84256
:103790000BD06F4DA84208D0744DA84205D0744D8F
:1037A000A84202D0734DA84213D14FF6F7752A40B4
:1037B0004D892A434FF6FB752A408D882A434FF6E0
:1037C000FF652B404FF6FF552B408D892B43CD894C
:1037D0002B4383800483CD888586028470BD70B5B9
:1037E000002400220023058C4FF6EF763540058437
:1037F000028C8388048B48F6FF752C404FF6FF45FA
:103800002C400D884FF6FF7606EA05252C434FF62F
:10381000DF752A400D8906EA05152A434D8806EA18
:1038200005152A43444DA84202D0494DA8421DD156
:103830004FF67F752A404D894FF6FF7606EA05154B
:103840002A434FF6BF752A408D8806EA05152A439C
:103850004FF6FF352B404FF2FF752B408D8906EA5E
:1038600085052B43CD8906EA85052B438380048398
:10387000CD880587028470BD70B500240022002326
:10388000058C4FF6FF6635400584028C8388848B57
:103890004FF68F752C404FF6FC752C400D882C434D
:1038A0004FF6FF552A400D894FF6FF7606EA0525AB
:1038B0002A434D8806EA05252A431F4DA84202D017
:1038C000234DA8421DD14FF2FF752A404D894FF676
:1038D000FF7606EA05252A434FF6FF352A408D88F4
:1038E00006EA05252A434EF6FF752B404DF6FF7577
:1038F0002B408D8906EA05152B43CD8906EA05156F
:103900002B4383808483CD888587028470BD70B506
:10391000002200230024058C4EF6FF7635400584F6
:10392000038C8488828B48F6FF752A404FF6FF454A
:103930002A400D8820E00000002C014000040040D7
:1039400000080040000C004000100040001400403F
:1039500000340140004C014000500140005401403F
:1039600000180040001C00400020004000400140C2
:1039700000440140004801404FF6FF7606EA052565
:103980002A434DF6FF752B400D8906EA05352B437A
:103990004D8806EA05352B43FA4DA84202D0FA4D70
:1039A000A84208D14BF6FF752C408D894FF6FF7663
:1039B00006EA85152C4384808283CD88A0F8405088
:1039C000038470BD828B4FF2FF331A408283828B57
:1039D0004FF6FF7303EA01231A4382837047F0B561
:1039E0000C461546002200210026078C4EF6FF7C6F
:1039F00007EA0C070784828B018C4FF6FF7707EAF2
:103A0000043640F6FF473A404FF6FF7707EA0527AE
:103A10003A434FF6FF7707EA03373A43D94FB842A4
:103A20000ED0D94FB8420BD0B0F1804F08D0D74F4D
:103A3000B84205D0D64FB84202D0D64FB84206D1D0
:103A40004DF6FF77394046F48057394305E047F695
:103A5000FF57394044F48057394382830184F0BDD5
:103A6000828B4FF6F3731A408283828B0A438283E0
:103A70007047F0B50C461546002200210026078C41
:103A80004FF6FF6C07EA0C070784828B018C4FF618
:103A9000FF7707EA04264FF60C773A404FF6FF7798
:103AA00007EA03172F433A43B64FB8420ED0B64F3A
:103AB000B8420BD0B0F1804F08D0B44FB84205D017
:103AC000B34FB84202D0B34FB84206D14FF6FF57BA
:103AD000394046F48077394305E04FF2FF573940CB
:103AE00044F48077394382830184F0BD028B4FF226
:103AF000FF331A400283028B4FF6FF7303EA012360
:103B00001A4302837047F0B50C4615460022002187
:103B10000026078C4FF6EF7C07EA0C070784028B20
:103B2000018C4FF6FF7707EA041640F6FF473A404C
:103B30004FF6FF7707EA03373A434FF6FF7707EA76
:103B400005273A438F4FB8420ED08F4FB8420BD063
:103B5000B0F1804F08D08D4FB84205D08C4FB8429D
:103B600002D08C4FB84206D14FF6DF77394046F08D
:103B70001007394305E04FF65F77394044F01007EE
:103B8000394302830184F0BD028B4FF6F3731A4070
:103B90000283028B0A4302837047F0B50C46154638
:103BA00000220021068C4FF6FE773E400684028BF1
:103BB000018C4FF60C7632407E1C06EA03162E432B
:103BC0003243704EB0420ED06F4EB0420BD0B0F1C7
:103BD000804F08D06D4EB04205D06D4EB04202D03D
:103BE0006C4EB04206D14FF6FD76314044F00106EE
:103BF000314305E04FF6F576314044F0010631439C
:103C000002830184F0BD70B505460C465D488542CF
:103C10000ED05D4885420BD0B5F1804F08D05B488F
:103C2000854205D05A48854202D05A48854200D183
:103C300000E000BF208850B92389A2886188284607
:103C4000FFF7ABFFE1882846FFF79EFF25E02088BD
:103C500004280AD12389A28861882846FFF753FFE8
:103C6000E1882846FFF742FF17E0208808280AD19C
:103C70002389A28861882846FFF7FBFEE188284651
:103C8000FFF7EEFE09E02389A28861882846FFF746
:103C9000A6FEE1882846FFF795FE70BD2DE9F041AC
:103CA00005460C4600260127608808B9022600E078
:103CB0000026A088012801D1022700E001272088E2
:103CC000A0B92389A28861882846FFF766FFE188AA
:103CD0002846FFF759FF23893A4631462846FFF721
:103CE00012FFE1882846FFF701FF13E02389A2882D
:103CF00061882846FFF707FFE1882846FFF7F6FEB0
:103D000023893A4631462846FFF747FFE18828468F
:103D1000FFF73AFFBDE8F0810A884B881A438B8889
:103D20001A43CB881A430B891A434B891A438B8950
:103D30001A43A0F8442070474FF6FF71818000219C
:103D40000180C18041800172704700210180418063
:103D50008180C180018141818181C18170470021C1
:103D600001804180012181800021C1800181704753
:103D70000021018041808180C18001814181818158
:103D800070470000002C0140003401400004004056
:103D900000080040000C004021B1028842F00102FE
:103DA000028004E002884FF6FE731A4002807047DA
:103DB00031B1B0F8442042F40042A0F8442005E0BC
:103DC000B0F84420C2F30E02A0F8442070471AB1A4
:103DD00083890B43838102E083898B43838170470E
:103DE0008182704741EA0203A0F8483070471AB157
:103DF00083890B43838102E083898B4383817047EE
:103E000001894FF6F8721140018170470A4600217E
:103E100001894FF68F73194011430181704730B506
:103E200004460D4629462046FFF7F0FF208940F062
:103E30000700208130BD2DE9F04104460D461646AD
:103E40001F46602D06D13B46012231462046FFF732
:103E50005AFE05E03B46012231462046FFF79DFE13
:103E600029462046FFF7D2FF208940F00700208135
:103E7000BDE8F08130B50C4600210189C9B24FF68A
:103E8000FF7505EA0325154325432943018130BD0C
:103E90002DE9F04105460E46174698460024434654
:103EA0003A4631462846FFF7E5FF2C894FF6F87071
:103EB000044044F007044FF68F70044044F070044F
:103EC0002C81BDE8F081F0B504460D4616461F462C
:103ED0003B46324629462046FFF7CCFF208940F476
:103EE00080402081F0BD0185828270470A46002112
:103EF00001884FF68F731940114301807047F0B568
:103F00000C4615461E460021002200230189028B23
:103F1000038C4FF6F877394021434FF6FC473A407F
:103F200040F201173A434FF6DD773B404FF6FF77FB
:103F300007EA06172F433B43018102830384F0BD48
:103F40000A460021018B4FF68F73194011430183FC
:103F500070470A460021018B48F6FF7319404FF65F
:103F6000FF7303EA02231943018370470A460021C5
:103F7000818B4FF68F7319401143818370470A4636
:103F80000021818B48F6FF7319404FF6FF7303EA57
:103F9000022319438183704721B1028842F08002D5
:103FA000028004E002884FF67F731A400280704757
:103FB00021B1828842F00402828004E082884FF6B8
:103FC000FB731A408280704721B1828842F0080258
:103FD000828004E082884FF6F7731A40828070472F
:103FE00021B1828842F00102828004E082884FF68B
:103FF000FE731A40828070470A460021018B4FF6FB
:10400000F77319401143018370470A460021018B61
:104010004FF2FF7319404FF6FF7303EA022319436F
:10402000018370470A460021818B4FF6F7731940D0
:104030001143818370470A460021818B4FF2FF7341
:1040400019404FF6FF7303EA022319438183704737
:104050000A460021018B4FF6FB731940114301837F
:1040600070470A460021018B4FF6FF3319404FF687
:10407000FF7303EA02231943018370470A460021B4
:10408000818B4FF6FB7319401143818370470A46B9
:104090000021818B4FF6FF3319404FF6FF7303EA7F
:1040A00002231943818370470A460021018B4FF692
:1040B0007F7319401143018370470A460021018B29
:1040C000C1F30E014FF6FF7303EA02231943018384
:1040D00070470A460021818B4FF67F7319401143C8
:1040E000818370470A460021818BC1F30E014FF690
:1040F000FF7303EA02231943818370470A460021B4
:10410000018C4FF6FD7319401143018470470A4634
:104110000021018C4FF6F773194011430184704759
:104120000A460021018C4FF6DF7319404FF6FF73EA
:1041300003EA02131943018470470A460021018CE7
:104140004FF67F7319404FF6FF7303EA02131943CA
:10415000018470470A460021018C4FF6FF53194035
:104160004FF6FF7303EA02231943018470470A469E
:104170000021018C4FF2FF7319404FF6FF7303EAE1
:1041800002231943018470470A460021018C4DF631
:10419000FF7319404FF6FF7303EA0233194301849A
:1041A000704730B5002301248C40A3B2048C9C439B
:1041B0000484048C02FA01F5ADB22C43048430BDB2
:1041C00030B5002304248C40A3B2048C9C430484A7
:1041D000048C02FA01F5ADB22C43048430BD70B5F5
:1041E0000346002000241846183001258D40ACB24B
:1041F0001D8CA5431D8409B1082909D100EB61007C
:10420000056825F0700505600568154305600EE03A
:104210000D1FC5F34E052844056825F4E0450560EB
:1042200005684FF6FF7606EA02263543056070BD45
:1042300021B1028842F00202028004E002884FF6B7
:10424000FD731A400280704721B1028842F00402D7
:10425000028004E002884FF6FB731A400280704728
:1042600021B1828842F08002828004E082884FF689
:104270007F731A408280704702884FF6F7731A40A6
:10428000028002880A430280704782884FF68F734B
:104290001A40828082880A438280704702894FF6E2
:1042A000F8731A40028102890A4302817047028929
:1042B0004FF67F731A40028102890A4302817047D8
:1042C0008184704781857047818670470187704778
:1042D00081877047A0F84010704702884FF6FF436F
:1042E0001A40028002880A43028070470146888E85
:1042F00070470146088F70470146888F7047014616
:10430000B1F8400070470146888C70470146088D1F
:10431000704702460020138A0B400BB1012000E0D9
:1043200000207047CA430282704730B50246002021
:1043300000230024158A05EA0103958905EA010492
:1043400013B10CB1012000E0002030BDCA4302824D
:104350007047000010B50446FB48844209D1012192
:104360008803FEF719FF00214FF48040FEF714FF89
:1043700032E0F648844209D101214804FEF719FFD2
:1043800000214FF40030FEF714FF25E0F04884428E
:1043900009D101218804FEF70CFF00214FF4802091
:1043A000FEF707FF18E0EB48844209D10121C80459
:1043B000FEF7FFFE00214FF40020FEF7FAFE0BE0AF
:1043C000E548844208D101210805FEF7F2FE0021EC
:1043D0004FF48010FEF7EDFE10BD2DE9F04786B0DA
:1043E00005460E460024A24600BFA1460027B0891C
:1043F00000B100BF2F462C8A4CF6FF700440F088B5
:1044000004432C82AC894EF6F3100440B088318905
:104410000843718908430443AC81AC8A4FF6FF40DE
:104420000440B0890443AC8201A8FEF72EFEC648C2
:10443000874202D1DDF810A001E0DDF80CA0A889C8
:1044400000F4004040B10AEBCA0000EB0A103168EA
:104450004900B0FBF1F807E00AEBCA0000EB0A10D4
:1044600031688900B0FBF1F86420B8FBF0F004017A
:104470002009642101FB1089A88900F4004040B1A3
:10448000322000EBC900B0FBF1F000F0070004435C
:1044900008E0322000EB09106421B0FBF1F000F0DD
:1044A0000F0004432C8106B0BDE8F0874FF416518D
:1044B000016000218180C18001810C2141810021A6
:1044C0008181704710B502460020108A4FF2FF0329
:1044D00018400B884C8823438C882343CC88234383
:1044E0001843108210BD0021018041808180C1806D
:1044F000704721B1828942F40052828104E08289AE
:104500004DF6FF731A4082817047F0B503460024D0
:1045100000260025002040F66A17B94200D100BFEE
:104520001846C1F3421401F01F06012707FA06F5E9
:10453000012C01D10C3004E0022C01D1103000E03C
:1045400014301AB107682F43076002E00768AF43D1
:104550000760F0BD1AB1838A0B43838202E0838A2D
:104560008B4383827047028A4FF6F0731A400282AF
:10457000028A0A430282704782894FF2FF731A400F
:10458000828182890A438281704721B1828942F007
:104590000202828104E082894FF6FD731A40828113
:1045A0007047028A4FF6DF731A400282028A0A437A
:1045B0000282704721B1028A42F48042028204E002
:1045C000028A4BF6FF731A4002827047C1F3080259
:1045D0008280704701468888C0F30800704781894F
:1045E00041F0010181817047028BD2B20283028BBC
:1045F00042EA012202837047028B02F47F42028367
:10460000028B0A430283704721B1828A42F0200262
:10461000828204E0828A4FF6DF731A4082827047FA
:1046200021B1828A42F01002828204E0828A4FF62F
:10463000EF731A408282704721B1828A42F00802E9
:10464000828204E0828A4FF6F7731A4082827047B2
:1046500021B1828942F40042828103E08289C2F35F
:104660000E028281704721B1828A42F40062828206
:1046700004E0828A4FF2FF731A4082827047828A76
:104680004FF6FB731A408282828A0A438282704705
:1046900021B1828A42F00202828204E0828A4FF6CD
:1046A000FD731A408282704702460020B1F5007FF8
:1046B00000D100BF13880B400BB1012000E00020A7
:1046C000704701F40072B2F5007F00D100BFCA4309
:1046D0000280704770B502460024002300250020A8
:1046E00040F66A16B14200D100BFC1F3421501F095
:1046F0001F03012606FA03F3012D02D196893340E8
:1047000006E0022D02D1168A334001E0968A33403A
:104710000C12012606FA04F41688344013B10CB1C9
:10472000012000E0002070BD10B50022002340F6FB
:104730006A14A14200D100BF0A1201249440A3B21E
:10474000DC43048010BD00000038014000440040FC
:1047500000480040004C00400050004006488047A0
:1047600006480047FEE7FEE7FEE7FEE7FEE7FEE756
:10477000FEE7FEE7FEE7FEE74F290008ED00000830
:10478000F0B480EA0102D40F4200B2EB410F02D232
:104790000246084611464A0042D0C30DDDB2C1F3BD
:1047A000C752AD1A202D35DAC1F3160141F40002CB
:1047B00004B15242C5F1200602FA06F12A41104422
:1047C000B3EBD05F23D0C4B1012DA0EBC35009DC03
:1047D000F0BC4FF0004202EAC352DBB200F5000029
:1047E00000F0DFB9400000F1807000EBC350A0F191
:1047F000807040EAD170490009E0490841EAC0717F
:10480000A0EBC35000F50000400800EBC350F0BC23
:1048100000F0BEB96142012202EB4101001BF6E744
:10482000F0BC704781F00041AAE780F00040A7E7A4
:1048300080EA010210B502F00043400022D04A0095
:104840001FD0010E01EB1261C0F35600C2F35602F5
:1048500040F4000042F40002A0FB022000047F3973
:10486000140400D0401C50EA124001D44000491EFC
:10487000C2B20C0604EBD010401C4008802A02D0C3
:1048800003E0002010BD20F00100002900DA002024
:10489000184310BD30B480EA010202F0004530F048
:1048A000004221F0004013D090B1C30DD40DC2F3EB
:1048B0001601C0F31600E41A41F4000140F40002AE
:1048C0007D34914201D3641C00E04900002C02DADF
:1048D00030BC002070474FF400000023914201D308
:1048E000891A034340084FEA4101F7D151B191427F
:1048F00002D14FF0004105E002D24FF0010101E08A
:104900006FF0010103EBC450284430BC00F040B903
:104910002DE9F04D81EA030404F0004B21F000453D
:1049200014464FF0000A23F0004150EA050220D05F
:1049300054EA01021DD0C5F30A570246C5F313031A
:10494000C1F31300C1F30A5640F4801543F48013F9
:10495000A7EB0608101BD64608F2FD3873EB0500DE
:1049600002D308F1010801E092185B41B8F1000F91
:1049700003DA00200146BDE8F08D00204FF48011DD
:10498000064684460EE0171B73EB050705D3121B82
:1049900063EB050306434CEA010C49084FEA30007B
:1049A00092185B4150EA0107EDD152EA030012D0A0
:1049B00082EA040083EA0501084305D0101BAB41DD
:1049C00006D20122002306E000224FF0004302E05D
:1049D0006FF0010253101AEB06004CEB085110EB7C
:1049E0000A0041EB0B01BDE8F04D00F008B9C10F22
:1049F00080EAE0700844CA079623002100F0D1B88D
:104A000096230022114600F0CCB80EB540F2334197
:104A100002910021CDE900110A460B4600F0FEF894
:104A200003B000BD00F0004220F00040C10DC0F313
:104A3000160040F400007F2901DA00207047962913
:104A400003DCC1F19601C84001E096398840002A94
:104A5000F4D04042704720F00040C10DC0F3160072
:104A600040F400007F2901DA00207047962903DC1A
:104A7000C1F19601C840704796398840704770B5BB
:104A8000C1F30A5201F000450024C1F3130140F2C2
:104A9000FF3341F480119A4201DA002070BD40F2E8
:104AA00033439A42A2F2334203DC524200F060F8F0
:104AB00000E090402C43F1D0404270BD00F0004235
:104AC00030F000400AD0C10D01F56071C0F316004E
:104AD00042EA0151C20840071143704700200146D5
:104AE000704730B50B46014600202022012409E022
:104AF00021FA02F59D4205D303FA02F5491B04FA97
:104B000002F52844151EA2F10102F1DC30BD2DE9A9
:104B1000F05F0546002092469B4688460646814641
:104B200040241BE0284641464746224600F020F834
:104B300053465A46C01A914110D311461846224690
:104B400000F016FA2D1A67EB01084F4622460120A5
:104B5000002100F00DFA17EB00094E41201EA4F1D0
:104B60000104DFDC484631462A464346BDE8F09F53
:104B7000202A04DB203A21FA02F00021704721FAB2
:104B800002F3D040C2F12002914008431946704719
:104B90000029A8BF7047401C490008BF20F0010051
:104BA000704710B4B0FA80FC00FA0CF050EA01042F
:104BB00004BF10BC704749B1CCF1200421FA04F4C1
:104BC00011FA0CF118BF012121430843A3EB0C019A
:104BD000CB1D4FEA00614FEA102042BF002010BCFD
:104BE000704700EBC35010440029A4BF10BC7047AD
:104BF000401C490008BF20F0010010BC704710B5F0
:104C0000141E73F1000408DA401C41F100019218EF
:104C10005B411A4301D120F0010010BD2DE9F04D98
:104C200092469B4611B1B1FA81F202E0B0FA80F2ED
:104C30002032904600F09CF904460F4640EA0A00F4
:104C400041EA0B0153465A46084313D0114653EA32
:104C5000010019D0C8F140025046FFF789FF054610
:104C60000E4650465946424600F082F9084305D0A8
:104C7000012004E020463946BDE8F08D00200543C0
:104C800046EAE0762C4337430A986305E40AA0EB32
:104C900008000022FD0A44EA47540A3002D50020E9
:104CA0000146E9E7010510196941DDE908450019E8
:104CB0006941BDE8F04DA2E72DE9FE4F804681EA4B
:104CC0000300C00F0C46009021F0004123F0004586
:104CD000B8EB0200A94105D24046214690461C4649
:104CE0000B46024623F00040104347D0270DC7F380
:104CF0000A00C3F30A510290401A019040286BDA6F
:104D0000C3F3130040F4801B0098924620B10023A7
:104D1000D2EB030A63EB0B0B01985946C0F140023A
:104D2000504600F025F906460D4650465946019A70
:104D300000F02DF910EB08006141002487EA1152C0
:104D400084EAE7731A4340D0009A62B3019A012AB9
:104D50004FEA075215DC001B61EB02014FF00042E5
:104D600002EA0752CDE90042001C41F580113246AB
:104D70002B46FFF753FF03B0BDE8F08F40462146B6
:104D8000F9E7001B61EB0201001C41F580130018DC
:104D90005B412018A2F5001747EB030140EAD570EC
:104DA000B6196D4111E06D084FEA360645EAC07547
:104DB0004FEA0752001B61EB0201001C41F5801114
:104DC00049084FEA30000019514132462B4603B0E2
:104DD000BDE8F04FFFF713BF009801224000002309
:104DE000D0EB020263EBE073009821464FEAE074D7
:104DF000B8EB000061EB0401E9E783F000435BE7F7
:104E000081F0004158E72DE9FE4F81EA030404F0E8
:104E1000004421F0004100944FF0000B23F00043C8
:104E200050EA01045ED052EA03045BD0C3F30A5493
:104E3000C1F30A552C44A4F2F3340194A0FB0254AC
:104E4000C1F3130141F48011C3F3130343F480133E
:104E500001FB024400FB034E840A970A44EA815492
:104E600047EA8357A4FB076802958D0A05FB07856F
:104E70004FEA932C04FB0C542705029D4FEA065879
:104E800047EA1637B5EB08056EEB070C870E920E56
:104E900047EA811742EA8312A7FB0201B6EB0B0136
:104EA00064EB00042B0D43EA0C335E1844EB1C50FA
:104EB000DA465146E7FB0201C5F313044FEA0B3310
:104EC00043EA14534FEA0432019C43EA0603A4F177
:104ED0000C040294009CCDE900B4FFF79FFE03B0E0
:104EE000BDE8F08F00200146F9E7C1F30A52C1F393
:104EF000130140F2FF3341F480119A4202DA00209C
:104F00000146704740F233439A42A2F2334202DC38
:104F10005242FFF72DBE00F02BB8000030B5041E42
:104F200071F1000404DB4FF00044404264EB0101E6
:104F3000141E73F1000405DB1C464FF0004352427F
:104F400063EB0403994208BF904230BD064C074D05
:104F500006E0E06840F0010394E807009847103449
:104F6000AC42F6D3FBF7C6F8FC6200081C630008ED
:104F7000202A04DB203A00FA02F100207047914019
:104F8000C2F1200320FA03F3194390407047202A0E
:104F900006DBCB17203A41FA02F043EAE07306E061
:104FA00041FA02F3D040C2F1200291400843194671
:104FB000704770B58C1810F8015B15F0070301D12C
:104FC00010F8013B2A1106D110F8012B03E010F86C
:104FD000016B01F8016B5B1EF9D12B0705D400238F
:104FE000521E0DD401F8013BFAE710F8013BCB1A31
:104FF000921C03E013F8015B01F8015B521EF9D526
:10500000A142D8D3002070BD0FB4084B10B504A93D
:1050100002AA039800F0DEF8044602A9002000F07E
:105020005CFC204610BC5DF814FB0000DB58000857
:1050300002E008C8121F08C1002AFAD17047704761
:10504000002001E001C1121F002AFBD170470000BF
:105050002DE9FF5F82B00021DDE90430020DDDF8AB
:1050600040B0034318D044F61050A2F2FF3242433E
:105070001514119801281FD0A5EB0B00401C5FEA06
:10508000000A4FF000064E4FDFF83891B046504608
:1050900015D5CAF1000413E0119801244AA3012890
:1050A00001D16FEA0B010298119AC0E90031C0E901
:1050B000024206B0BDE8F09FCBF10000DFE70446F6
:1050C0000021404A491842EB0450CDE9001012E09B
:1050D000E00707D032463B4640464946FFF793FE7D
:1050E0008046894632463B4610461946FFF78BFEFE
:1050F00006460F466410002CEAD1DDE90401DDE923
:105100000023BAF1000F06DAFFF77DFE42464B4658
:10511000FFF779FE05E0FFF7FBFB42464B46FFF742
:10512000F7FB04460E460022284BFFF7F7FE03D894
:105130004FF0FF30014607E00022254B2046314664
:10514000FFF7BAFDFFF7D1FE102409E0002C0ADBBF
:105150000A220023FFF7DBFC039B30321A55641E42
:1051600050EA0102F2D1641C039AC4F11103144401
:10517000119A012A03D0012208430DD10AE0084305
:1051800004D000204FF0110B119072E7A3EB0B0538
:105190006D1E0DE05B4504DD4FF0000205F10105D9
:1051A00004E003DA4FF00002A5F10105002AECD07B
:1051B00002981199C0E90231C0E9004579E7000081
:1051C000000014400000F03F300000000000F043F9
:1051D0000000E03F2DE9FF4F95B09A46884606460D
:1051E0000025EEE1252877D100242746F94A012140
:1051F000039400E0044316F8013F203B01FA03F05A
:105200001042F7D130782A2811D06FF02F03307870
:10521000A0F13002092A16D8039A44F0020402EBE6
:10522000820203EB42021044761C0390EFE758F829
:10523000042B0392002A03DA504244F400540390F2
:1052400044F00204761C30782E2816D116F8010F8F
:1052500044F004042A280DD06FF02F023078A0F11A
:105260003003092B09D807EB870302EB4303C71868
:10527000761CF3E758F8047B761C30786C280FD046
:1052800006DC4C2817D068280DD06A2814D104E019
:10529000742810D07A280FD10DE044F400140AE0ED
:1052A00044F4801401E044F440147278824202D144
:1052B00004F58014761C761C307866280BD013DC3D
:1052C000582877D009DC002875D04528F6D0462824
:1052D000F4D047281AD193E118E0632835D0642828
:1052E00079D0652812D18BE1702873D008DC67284B
:1052F000F1D069286FD06E280DD06F2806D1ACE0B0
:1053000073282CD0752874D0782853D0524617991A
:1053100090476D1C54E1C4F30250022809D00328C1
:105320000DD0D8F8001004280DD00D6008F1040845
:1053300046E1D8F80010EA17C1E90052F6E7D8F8BC
:1053400000100D80F2E70D70F0E718F8041B8DF8DF
:10535000001000208DF80100EB46012003E058F812
:1053600004BB4FF0FF3061074FF0000102D40DE0A5
:1053700009F101018946B9420FDA8145F8DB1BF8D2
:1053800009100029F4D108E009F1010189468142A0
:10539000FADB1BF809100029F6D103985346A0EB5D
:1053A000090721463846179A00F080FA284400EB96
:1053B000090507E044E008E10DE01BF8010B524647
:1053C00017999047B9F10109F7D25346214638465B
:1053D000179AF2E039E00A21C4F302524FF0000BB1
:1053E0000091022A06D058F8040BC117032A09D0ED
:1053F0000AE023E008F1070020F00702F2E80201CA
:10540000904605E000B2C117042A01D140B2C1178D
:10541000002906DA0A460021404261EB02012D22F2
:1054200002E0220504D52B228DF80420012203E09E
:10543000E20701D02022F7E7914657E00A2100E079
:1054400010214FF0000B00910BE010214FF0000BEA
:1054500044F004040827009103E008204FF0000BFB
:105460000090C4F30252022A05D058F8040B002120
:10547000032A08D008E008F1070020F00702F2E84C
:105480000201904603E080B2042A00D1C0B24FF07E
:10549000000922072AD53278702A07D0DDF800C02B
:1054A0008CF0100C5CEA0B0C05D00EE040228DF85D
:1054B0000420012208E050EA010306D030238DF8D1
:1054C00004308DF8052002229146009B83F00803EA
:1054D00053EA0B030AD150EA010201D1620705D554
:1054E00030228DF804204FF001097F1E3278582AAF
:1054F00004D039A20C920CAA02920BE03BA2F9E76D
:105500005B46009AFFF703FB0C9B9B5C029A521EC2
:105510000292137050EA0102F2D1029804A9081A0B
:1055200000F1200B600702D524F4803400E001274D
:105530005F4502DDA7EB0B0000E0002000EB0B0154
:10554000009003984944401A0390E00306D4534660
:105550002146179A039800F0A9F90544002706E0B0
:1055600001A85246C05D179990476D1C7F1C4F459E
:10557000F6DBE0030CD553462146179A039800F05A
:1055800095F9054404E030205246179990476D1C68
:105590000099481E00900029F5DC08E00298029965
:1055A00052460078491C0291179990476D1CBBF137
:1055B0000001ABF1010BF1DC5BE100F065F90544A2
:1055C000761C307800287FF40DAE19B02846BDE86F
:1055D000F08F00000928010030313233343536377E
:1055E000383961626364656600000000303132332F
:1055F00034353637383941424344454600000000CF
:10560000600700D4062708F1070020F00700F0E843
:105610000223804603F0004C5FEA0C0001D097A003
:1056200009E0200501D596A005E0E00701D095A08E
:1056300001E0AFF24C001390307823F0004365286E
:105640000CD006DC452809D046281DD047287FD13C
:105650003BE0662818D067287AD136E00021112F68
:1056600001DB112000E0781CCDE9000104A90CA8A1
:10567000FFF7EEFCDDE90D010C9A4FF0000B07F18E
:105680000109109200914EE04FF000400097CDE9E3
:10569000011004A90CA8FFF7DBFCDDE90D020C9B4F
:1056A0000F994FF0000B91461093009211B9791C9D
:1056B00000EB0109B7EB090003D4C0F1FF3B07F190
:1056C0000109A9EB0700019042E0012F00DA012750
:1056D0000021112F01DD112000E03846CDE9000145
:1056E00004A90CA8FFF7B4FCDDE90D010C9A0091A8
:1056F0004FF0000BB946109221070FD4009A4A458B
:1057000003DA914601E0A9F10109B9F1010F05DDC4
:10571000109AA9F10101515C3029F4D0B84202DAA3
:1057200010F1040F03DA0121CDE9011010E0002887
:1057300003DC8344A9EB000102E0411C494500DD84
:105740008946A0EB0B00401C01904FF000400290F6
:10575000200705D40198484502DB4FF0FF30019047
:1057600000208DF84B0002980DF14B07B0F1004F6F
:1057700025D002200C902B200D90029800280CDAE6
:10578000404202902D200D9007E00A210298FFF779
:10579000A8F93031029007F8011D0C99481E0C90B1
:1057A0000029F2DC02980028EFD1791E0D980870CC
:1057B000307800F0200040F0450007F8020D11A8F5
:1057C000C01BC01D02901398007800B1012000EBAF
:1057D0000901019801EBE071029801440398401A15
:1057E000401E0390E00306D453462146179A0398BF
:1057F00000F05CF805441398007818B152461799E8
:1058000090476D1CE00323D553462146179A039811
:1058100000F04CF805441BE0BBF1000F07DB0098DB
:10582000584504DD1098179910F80B0001E01799FE
:1058300030205246904701980BF1010B401E05F1B4
:105840000105019004D12E205246179990476D1CF6
:10585000B9F10001A9F10109DEDC05E017F8010B3F
:105860005246179990476D1C0299481E02900029D4
:10587000F4DC53462146179A03989EE62D0000005B
:105880002B000000200000002DE9F0410446002517
:105890001E461746880404D405E039462020B04748
:1058A0006D1C641EF9D52846BDE8F0812DE9F04154
:1058B000044600251E469046C80301D5302700E067
:1058C0002027880404D505E041463846B0476D1CC2
:1058D000641EF9D52846BDE8F0810A68531C0B60A8
:1058E000107070470000000000000000002F000052
:1058F00000000700070000147F147F1400242A7F93
:105900002A12006264081323003649552250000011
:105910000503000000001C224100000041221C0081
:105920000014083E08140008083E0808000000A003
:1059300060000008080808080000606000000020FF
:1059400010080402003E5149453E0000427F4000DD
:10595000004261514946002141454B310018141263
:105960007F10002745454539003C4A494930000130
:105970007109050300364949493600064949291E7F
:1059800000003636000000005636000000081422E1
:1059900041000014141414140000412214080002E1
:1059A0000151090600324959513E007C1211127C06
:1059B000007F49494936003E41414122007F414133
:1059C000221C007F49494941007F09090901003E25
:1059D0004149497A007F0808087F0000417F410063
:1059E000002040413F01007F08142241007F4040D9
:1059F0004040007F020C027F007F0408107F003EC1
:105A00004141413E007F09090906003E4151215EA6
:105A1000007F091929460046494949310001017FA3
:105A20000101003F4040403F001F2040201F003F39
:105A30004038403F006314081463000708700807EB
:105A400000615149454300007F41410000552A55FE
:105A50002A55000041417F00000402010204004079
:105A6000404040400000010204000020545454789B
:105A7000007F4844443800384444442000384444BB
:105A8000487F00385454541800087E090102001859
:105A9000A4A4A47C007F080404780000447D400096
:105AA000004080847D00007F102844000000417F7A
:105AB0004000007C04180478007C08040478003856
:105AC0004444443800FC242424180018242418FCDE
:105AD000007C0804040800485454542000043F4447
