:020000040800F2
:10000000500B002039430008B1020008B302000879
:10001000B7020008BB020008BF0200080000000091
:10002000000000000000000000000000C302000803
:10003000C502000800000000C7020008C90200084D
:100040005343000853430008534300085343000838
:100050005343000853430008534300085343000828
:100060005343000853430008534300085343000818
:100070005343000853430008534300085343000808
:1000800053430008534300085343000853430008F8
:1000900053430008534300085343000853430008E8
:1000A00053430008534300085343000853430008D8
:1000B00053430008CB020008534300085343000891
:1000C00053430008534300085343000853430008B8
:1000D00053430008472200085343000853430008D5
:1000E000534300085343000853430008DFF810D07F
:1000F00004F080FC0048004705010008AFF30080D1
:10010000500B002008B500F0F1F800F049FA00F0BB
:100110006DFA00F073FF01F09DFB01F032FA6420EC
:1001200001F03DFC10234DA20021084601F003FB25
:1001300010234DA20521002001F0FDFA642001F0FA
:100140002EFC01F045FC00F0CDFE4C4880784C4977
:1001500008704A4880884B4908800846008801F0AA
:1001600099FD002001F005FE00F056FA00F081FB39
:10017000642001F014FC00F0EDFC00F07DFC00F0C8
:100180003CFC00F0BDFC00F035FE66E03E48007827
:1001900030B101280CD0022812D0032855D124E018
:1001A00000F0C9FD38480078401C374908704DE020
:1001B00000F0E3F834480078401C3349087045E00B
:1001C0000021212000F0FFFA3049086010200A23A6
:1001D00000900846022102681E2001F068FA2A48B1
:1001E0000078401C2849087030E001F01EFD2848C6
:1001F00000680A21B0FBF1F000B220494886B1F94D
:10020000320004F073F9234908602349214800684B
:1002100004F02EF91F490860084600681F4908606D
:100220000846006804F09DF9044622460B461CA1CE
:100230001D4804F0ABFC10231B4A0521322001F0BD
:100240007AFA00201049087000E000BF00BF17488C
:100250000078012801D101F0D6FE97E7506F73694D
:1002600074696F6E3A000000416E676C653A202039
:100270002020202020202020000000001C0400203E
:1002800017000020140000200400002008000020B7
:10029000CC03002010000020000020410C000020B2
:1002A00025362E31660000001C050020E0030020EA
:1002B000704700BFFEE700BFFEE700BFFEE700BFDC
:1002C000FEE7704770477047704710B50121064838
:1002D00003F019FE012805D100F0C0F80121024801
:1002E00003F00EFE10BD00000004004008B5684693
:1002F00002F0F5FA0121082002F022FD2020ADF8DD
:10030000000002208DF8020048208DF803006946A5
:100310009A4802F059FA4020ADF8000002208DF80A
:10032000020048208DF803006946944802F04CFA18
:100330008020ADF8000002208DF8020048208DF8E2
:10034000030069468D4802F03FFA0121042002F0C3
:10035000F7FC4FF48070ADF8000002208DF8020029
:1003600010208DF803006946854802F02DFA4FF4FD
:100370008071834802F0D7FA08BD10B58148007833
:10038000012804D002282ED0032864D147E07E48FB
:10039000007801281DD1002145F2F10001F00EFC8A
:1003A000322001F0FCFA45F6FF21112001F006FC95
:1003B000322001F0F4FA002145F2910001F0FEFB39
:1003C000322001F0ECFA00206F4908706D49087086
:1003D00008E06D480078022804D100206A490870BE
:1003E0006849087038E06848007801280DD16748EE
:1003F000B0F91000664909680844654908600020A2
:10040000614908705F49087008E05F480078022879
:1004100004D100205C4908705A4908701CE05A4811
:10042000007801280DD15948B0F9100058490968E1
:10043000081A57490860002053490870514908704C
:1004400008E051480078022804D100204E49087085
:100450004C49087000E000BF00BF10BD10B54D480A
:10046000007820B101281AD0022870D170E08021D4
:10047000424802F03CFA48B14021404802F037FAC5
:1004800020B120213D4802F032FA10B90120414943
:100490000870002040490870404908706CE08021D5
:1004A000364802F024FA48B14021344802F01FFADD
:1004B00020B12021314802F01AFAA0BB80212F4838
:1004C00002F015FA18B901202E49087010E04021F9
:1004D0002A4802F00CFA18B902202A49087007E0ED
:1004E0002021264802F003FA10B90320254908709C
:1004F0002A48007810B90120284908702648007859
:10050000401C254908700846007864281EDD02203A
:100510001D490870002020490870204908700220F9
:100520001C49087012E0FFE71C48007801280AD136
:1005300015490870002018490870184908700220F1
:100540001449087002E000201249087014E012E01B
:1005500080210A4802F0CBF960B14021074802F03F
:10056000C6F938B12021054802F0C1F910B10020C8
:100570000849087000E000BF00BF10BD000C01403A
:10058000000801401A000020190000201C0400206F
:1005900000000020180000201B0000201C0000208C
:1005A0000EB50121022002F0D8FB0020ADF80600B4
:1005B0006320ADF8040041F61F40ADF800000020B4
:1005C000ADF802008DF808006946124802F076FE88
:1005D0000121104803F094FC012211460D4803F05C
:1005E000E4F901210B4803F0C5F90EBD08B54FF43D
:1005F000407002F01BF81D208DF8000001208DF8DE
:1006000001008DF802008DF80300684602F013F82F
:1006100008BD00000004004000B587B001210803B8
:1006200002F08EFB0121042002F08AFB2020ADF8AD
:10063000180018208DF81B0003208DF81A0006A959
:10064000FA4802F0C1F88020ADF8180018208DF8A3
:100650001B0003208DF81A0006A9F44802F0B4F834
:100660004020ADF8180004208DF81B0003208DF801
:100670001A0006A9ED4802F0A7F81020ADF81800FE
:100680008DF81B0003208DF81A0006A9E74802F038
:100690009BF81021E54802F044F90021E44802F0FB
:1006A0007EFC0020ADF804004FF48270ADF8060027
:1006B0000020ADF808000220ADF80A000120ADF8D6
:1006C0000C004002ADF80E002820ADF8100000200C
:1006D000ADF812000720ADF8140001A9D44802F0CB
:1006E000B9FB0121D24802F05AFC07B000BD014617
:1006F000002206E0501C80B20246C82801DD00201E
:100700007047CB48008900F002000028F2D0C848AA
:100710008181002206E0501C80B20246C82801DD1B
:100720000020EDE7C248008900F001000028F2D067
:10073000BF488089E4E770B586B005460C460026C0
:100740000020009001901021B84802F0ECF845F02C
:1007500080008DF81000200E8DF81100200C8DF80F
:100760001200200A8DF81300E0B28DF814009DF8F5
:100770001000FFF7BCFFC0B28DF808009DF8110013
:10078000FFF7B5FFC0B28DF809009DF81200FFF722
:10079000AEFFC0B28DF80A009DF81300FFF7A7FF67
:1007A000C0B28DF80B009DF81400FFF7A0FFC0B297
:1007B0008DF80C0010219D4802F0B3F89DF80860F8
:1007C000304606B070BD70B586B006460D460024B2
:1007D0000020009001901021944802F0A4F88DF8B8
:1007E0001060280E8DF81100280C8DF81200280AD0
:1007F0008DF81300E8B28DF814009DF81000FFF793
:1008000076FFC0B28DF808009DF81100FFF76FFF6A
:10081000C0B28DF809009DF81200FFF768FFC0B262
:100820008DF80A009DF81300FFF761FFC0B28DF844
:100830000B009DF81400FFF75AFFC0B28DF80C00B2
:1008400010217A4802F06DF89DF808007949088077
:100850009DF8094024029DF80A00044324029DF8F3
:100860000B00044324029DF80C000443204606B00C
:1008700070BD10B504210020FFF75DFF00210320AB
:10088000FFF759FF00210520FFF755FF0021062043
:10089000FFF751FF0E210820FFF74DFF66490920A1
:1008A000FFF749FF65490A20FFF745FF00210B20AC
:1008B000FFF741FF05211020FFF73DFF0A2111201E
:1008C000FFF739FF10211320FFF735FF1021142007
:1008D000FFF731FF10211520FFF72DFF0021202009
:1008E000FFF729FF00212120FFF725FF4FF480713A
:1008F0002320FFF720FF4FF480512420FFF71BFF38
:1009000000212520FFF717FF4FF480412620FFF735
:1009100012FF4FF480312720FFF70DFF4FF4804185
:100920002820FFF708FF4FF480512A20FFF703FF2C
:100930000A212B20FFF7FFFE4FF480712C20FFF7D8
:10094000FAFE00212D20FFF7F6FE00213320FFF7ED
:10095000F2FE00213420FFF7EEFE4FF480613820D4
:10096000FFF7E9FE00213920FFF7E5FE34493A2080
:10097000FFF7E1FE00213D20FFF7DDFE3149602059
:10098000FFF7D9FE30496120FFF7D5FE2F496220DD
:10099000FFF7D1FE2E496320FFF7CDFE6FF0806197
:1009A0006420FFF7C8FE2B496520FFF7C4FE2A49E3
:1009B0006620FFF7C0FE29496720FFF7BCFE2849E3
:1009C0006820FFF7B8FE4FF477016920FFF7B3FE08
:1009D00024496C20FFF7AFFE00216D20FFF7ABFE2E
:1009E00000216E20FFF7A7FE1F497020FFF7A3FE2E
:1009F00004211E4801F097FF10BD70B50A2403269C
:100A000000251B48408A84B21A480088A0420CD0B6
:100A1000184804807504202C00DB202445EA0425B6
:100A2000354329461020FFF786FE70BD00080140BF
:100A300000300140240000200606010000040800E8
:100A40007017010054B5AAAAAA54954A2929492425
:100A5000224210107D77BBB55655294922424000ED
:100A60005680FFFF530141041E000CC4000C0140DE
:100A70001C0400202000002070B500250024FE4842
:100A8000C08885B2FD480088A84238D0FB48058060
:100A9000FB4C102D1DD008DC092D2BD2DFE805F012
:100AA0002825222A1F2A2A2A1C00202D0ED0402D5C
:100AB00009D0802D04D0B5F5807F1BD100BF19E08F
:100AC00044F0807416E044F0007413E044F0407485
:100AD00010E044F080640DE044F0A0640AE044F0CB
:100AE000C06407E044F0E06404E044F0006401E026
:100AF00000BF00BF00BF21466C20FFF71CFE70BD89
:100B000070B500BF00BF00BFDB48B0F90C4004EB7C
:100B1000840044002646D848B0F90E5005EB850005
:100B20004500D8480068A04209D0D6480460214654
:100B30002620FFF700FE31462820FFF7FCFDD248B3
:100B40000068A84205D0D048056029462720FFF755
:100B5000F2FD70BD2DE9F84F002700BF00BF4FF434
:100B60008049C82400BFC448B0F9060010284BD003
:100B700008DC012872D0042862D0052871D008282A
:100B80006ED14FE0202831D0402821D0802811D0CC
:100B9000A0F209100028F3D1200203F0A7FC0746B9
:100BA000484603F0ACFC82465146384603F060FCF0
:100BB000074681E0E00103F099FC0746484603F050
:100BC0009EFC82465146384603F052FC074673E0CD
:100BD000A00103F08BFC0746484603F090FC8246D8
:100BE0005146384603F044FC074665E0600103F0D7
:100BF0007DFC0746484603F082FC82465146384653
:100C000003F036FC074657E0200103F06FFC07466F
:100C1000484603F074FC82465146384603F028FCEF
:100C2000074649E0E00003F061FC0746484603F050
:100C300066FC82465146384603F01AFC07463BE004
:100C4000A00003F053FC0746484603F058FC8246D8
:100C50005146384603F00CFC07462DE010E000E05A
:100C60001CE004EB440003F041FC0746484603F057
:100C700046FC82465146384603F0FAFB07461BE025
:100C8000204603F033FC0746484603F038FC824612
:100C90005146384603F0ECFB07460DE0200203F016
:100CA00025FC0746484603F02AFC82465146384652
:100CB00003F0DEFB074600BF00BF7449384603F06F
:100CC000A5FB07467149384603F0D2FB824603F084
:100CD00034FC054642F2107105FB01F003F00FFCF5
:100CE0008346394603F08FFB824603F026FC80469C
:100CF000404603F004FC07466449384603F0B8FB5D
:100D000007466249384603F081FB8346280403F016
:100D1000F6FB5946009003F021FB824603F0F4FBFA
:100D2000064631463A20FFF706FD00213920FFF73D
:100D300002FDBDE8F88F10B54F48B0F934005449B2
:100D40000968884201D0012000E000204A49B1F939
:100D50003610504A1268914201D0012100E0002172
:100D6000084368B34448B0F9340049490860424830
:100D7000B0F9360047490860084600880004464933
:100D800008604348008880B2096808434249086007
:100D9000084601682D20FFF7CEFC00212120FFF737
:100DA00012FD00212120FFF70EFD3B48008800B214
:100DB0003149888638480068000C00B2C88618E0BF
:100DC0003648006834490968884212D032480068C1
:100DD00032490860304801682D20FFF7ACFC2E48EE
:100DE000008800B2244988862B480068000C00B2B5
:100DF000C88610BD2DE9F0410024002600270025FB
:100E000000213920FFF7DFFC0446204603F06EFB8B
:100E1000054620B218490887200C00B248872048B0
:100E20000168284603F024FB0546BDE8F08110B5B3
:100E30001C496C20FFF77FFC1B491020FFF77BFC4F
:100E40000A211120FFF777FC04210020FFF773FC33
:100E50004FF4FA711320FFF76EFC4FF47A712420DF
:100E6000FFF769FC4CF250312520FFF764FC4FF48A
:100E7000FA7126201AE000001C0400202200002045
:100E8000530141002C0000203000002000401C468F
:100E9000380000203C00002000000020400000201E
:100EA00044000020C30001080A1F0600FFF743FCAE
:100EB0000B492720FFF73FFC4FF42F712820FFF745
:100EC0003AFC4FF4AF612A20FFF735FC0A212B20B2
:100ED000FFF731FC00212020FFF72DFC10BD0000A2
:100EE000400D0300002044490880012048804FF451
:100EF000165088801020C880122008814FF4967008
:100F000048814FF4FA7088814FF44870C88180009E
:100F100008820520488200208882C882088348838E
:100F20008883C883088448848884C8840885488561
:100F30008885C885088648868886C8860887488741
:100F40008887C887A1F84000A1F84200A1F84400B2
:100F5000A1F84600A1F84800A1F84A00A1F84C0009
:100F6000A1F84E00A1F85000A1F85200A1F85400D9
:100F7000A1F85600A1F85800A1F85A00A1F85C00A9
:100F8000A1F85E00A1F86000A1F86200A1F8C80015
:100F9000A1F8CA00A1F8CC00A1F8CE00A1F8D000B9
:100FA000A1F8D200A1F8D400A1F8D600A1F8D80089
:100FB000A1F8DA00A1F8DC00A1F8DE00A1F8E00059
:100FC000A1F8E200A1F8E400A1F8E600A1F8E80029
:100FD000A1F8EA00A1F8EC00A1F8EE00A1F8F000F9
:100FE000A1F8F200A1F8F400A1F8F600A1F8F800C9
:100FF000A1F8FA00704700001C04002008B5012188
:101000001D2001F09DFE684601F069FC0120ADF84D
:10101000000002208DF8020048208DF80300694688
:10102000D44801F0D1FB0220ADF800008DF8020099
:1010300048208DF803006946CE4801F0C5FB042026
:10104000ADF8000001208DF8020048208DF8030063
:101050006946C84801F0B8FB0820ADF8000001203F
:101060008DF8020048208DF803006946C14801F060
:10107000ABFB1020ADF8000002208DF8020010201C
:101080008DF803006946BB4801F09EFB2020ADF8B7
:10109000000002208DF8020010208DF80300694640
:1010A000B44801F091FB4020ADF8000002208DF81B
:1010B000020010208DF803006946AE4801F084FB61
:1010C0008020ADF8000002208DF8020010208DF87D
:1010D00003006946A74801F077FB4FF48070ADF834
:1010E000000002208DF8020010208DF803006946F0
:1010F000A04801F069FB4FF40070ADF80000022039
:101100008DF8020018208DF803006946994801F017
:101110005BFB4FF48060ADF8000002208DF8020008
:1011200004208DF803006946924801F04DFB4FF40E
:101130000060ADF8000002208DF8020010208DF84C
:10114000030069468B4801F03FFB4FF48050ADF837
:10115000000002208DF8020010208DF8030069467F
:10116000844801F031FB0120ADF8000002208DF829
:10117000020010208DF8030069467F4801F024FB2F
:101180000220ADF800008DF8020010208DF8030059
:101190006946794801F018FB0420ADF800000220F0
:1011A0008DF8020010208DF803006946724801F0A6
:1011B0000BFB0820ADF8000002208DF8020048204B
:1011C0008DF8030069466C4801F0FEFA1020ADF876
:1011D000000002208DF8020048208DF803006946C7
:1011E000654801F0F1FA2020ADF8000002208DF8EA
:1011F000020048208DF8030069465F4801F0E4FAD8
:101200004020ADF8000002208DF8020048208DF843
:1012100003006946584801F0D7FA8020ADF8000075
:1012200002208DF8020048208DF8030069465248DC
:1012300001F0CAFA4FF48070ADF8000001208DF87B
:10124000020014208DF8030069464B4801F0BCFAF7
:101250004FF40070ADF8000001208DF8020014205A
:101260008DF803006946444801F0AEFA4FF48060FF
:10127000ADF8000002208DF8020048208DF8030030
:1012800069463D4801F0A0FA4FF40060ADF8000057
:1012900002208DF8020048208DF803006946364888
:1012A00001F092FA4FF48050ADF8000002208DF862
:1012B000020010208DF8030069462F4801F084FADF
:1012C0004FF40050ADF8000002208DF8020010200D
:1012D0008DF803006946284801F076FA4FF4804003
:1012E000ADF8000002208DF8020048208DF80300C0
:1012F0006946214801F068FA4FF40040ADF800005B
:1013000002208DF8020010208DF8030069461A486B
:1013100001F05AFA4FF40050ADF8000002208DF8A9
:10132000020014208DF803006946144801F04CFABD
:101330004FF48040ADF8000002208DF80200142028
:101340008DF8030069460D4801F03EFA4FF4004065
:10135000ADF8000002208DF8020048208DF803004F
:101360006946064801F030FA0121054801F0FDFA0E
:1013700008BD000000080140000C014000100140C1
:101380000002300010B54FF48041F94801F0C9FA6D
:101390004FF40051F64801F0C4FA4FF40051F448FC
:1013A00001F0C1FA4FF48041F14801F0BCFA10BDE0
:1013B00010B54FF48041EE4801F0B3FA4FF40051FC
:1013C000EB4801F0B0FA4FF40051E94801F0A9FAF6
:1013D00010BD10B54FF48041E54801F0A2FA4FF47A
:1013E0008041E34801F09FFA10BD2DE9F041054628
:1013F0002C464FF48041DE4801F095FA00261CE0AF
:10140000274607F08007802F04D1B901D84801F0A2
:1014100088FA04E04FF40051D54801F084FA6006E0
:10142000040E4FF48041D24801F07BFA4FF4804122
:10143000CF4801F078FA701CC6B2082EE0DBBDE898
:10144000F08110B50446FFF79DFF7820FFF7CDFF30
:10145000FFF7BFFF0020FFF7C8FFFFF7BAFF2046E6
:10146000FFF7C3FFFFF7B5FFFFF7A2FF10BD10B5F1
:101470000446FFF787FF7820FFF7B7FFFFF7A9FFC4
:101480004020FFF7B2FFFFF7A4FF2046FFF7ADFFB4
:10149000FFF79FFFFFF78CFF10BD70B504460D46A8
:1014A0001DB1E0B2FFF7E3FF02E0E0B2FFF7C9FFD2
:1014B00070BD70B50646002418E004F1B0000021AC
:1014C000FFF7EBFF00210846FFF7E7FF00211020A0
:1014D000FFF7E3FF002505E001213046FFF7DDFFC0
:1014E000681CC5B2802DF7DB601CC4B2082CE4DB9D
:1014F00070BD06E041F6650100E0491E0029FCD1FF
:10150000401E0028F6D17047014605E0002001E0AA
:10151000421CD0B27B28FBDB0A1EA1F10101F5D1F0
:10152000704770B504460D4605F1B0000021FFF785
:10153000B4FF102141EA14100021FFF7AEFF04F0C0
:101540000F000021FFF7A9FF70BD10B500218D200D
:10155000FFF7A3FF00211420FFF79FFF0021AF201A
:10156000FFF79BFF10BD10B500218D20FFF795FF01
:1015700000211020FFF791FF0021AE20FFF78DFF23
:1015800010BD70B5002418E004F1B0000021FFF791
:1015900084FF00210846FFF780FF00211020FFF79D
:1015A0007CFF002505E001210020FFF776FF681C85
:1015B000C5B2802DF7DB601CC4B2082CE4DB70BD23
:1015C00070B5002418E004F1B0000021FFF765FFBA
:1015D00000210846FFF761FF00211020FFF75DFFA3
:1015E000002505E001210846FFF757FF681CC5B23A
:1015F000802DF7DB601CC4B2082CE4DB70BD2DE944
:10160000F04707460E469046994600250024A8F16B
:101610002000C5B27F2F02DD0027B01CC6B2B9F191
:10162000100F24D131463846FFF77BFF002408E035
:1016300004EB05114F4A505C0121FFF72EFF601C9F
:10164000C4B2082CF4DB701CC1B23846FFF769FF46
:10165000002409E004EB05110831464A505C0121E1
:10166000FFF71BFF601CC4B2082CF3DB12E031460D
:101670003846FFF756FF00240AE005EB45013E4AD5
:1016800002EB4101085D0121FFF707FF601CC4B2B6
:10169000062CF2DBBDE8F08710B50246012000E021
:1016A00050430B1EA1F10104E1B2F9D110BD2DE9A7
:1016B000FF5F074691461E460E9D4FF0000A00242C
:1016C00035E0301B401EC1B20A20FFF7E5FFB9FB31
:1016D000F0F00A21B0FBF1F201FB1208BAF1000FA1
:1016E00014D1701EA04211DDB8F1000F0CD1AB4631
:1016F00005EBDB71491001FB0471C8B22B462022B7
:101700000199FFF77CFF10E04FF0010AAB4605EBB3
:10171000DB71491001FB0471C8B208F13001CAB293
:101720002B460199FFF76BFF00BF601CC4B2B442A7
:10173000C7DBBDE8FF9F2DE9F04104460F46154683
:10174000984600260FE0AA5D434639462046FFF73B
:1017500056FF04F10800C4B2782C02DD0024B81C46
:10176000C7B2701CC6B2A85D0028ECD1BDE8F081FC
:101770000010014090560008685400082DE9F0411F
:1017800080460E461546002731464046FFF7C9FE03
:1017900000240AE0744A02EB8511085D0121FFF77D
:1017A0007CFE781CC7B2601CC4B2102CF2DB701C2B
:1017B000C1B24046FFF7B5FE00240CE06900491CA9
:1017C000694A02EB4111085D0121FFF766FE781CB2
:1017D000C7B2601CC4B2102CF0DBBDE8F0812DE96B
:1017E000F05F06460F4690461C46DDF828A04FF0F5
:1017F000000BE11704EB5171C910A4EBC10131B921
:101800002046E11704EB5171C1F3C70506E02046FD
:10181000E11704EB5171C910491CCDB23D4615E0EA
:1018200029463046FFF77DFEB1460BE059460BF1E5
:10183000010B1AF801000121FFF72FFE09F1010049
:1018400000F0FF09C145F1DB681CC5B2A542E7DB2A
:10185000BDE8F09F08B50121082001F071FA4FF4AE
:101860004060ADF8000010208DF8030003208DF8D3
:10187000020069463D4800F0A7FF4FF440613B4835
:1018800001F04FF84FF4487000F089F80021AE20C5
:10189000FFF703FE00210846FFF7FFFD002110209F
:1018A000FFF7FBFD00214020FFF7F7FD0021B020EE
:1018B000FFF7F3FD00218120FFF7EFFD0021FF205E
:1018C000FFF7EBFD0021A120FFF7E7FD0021A62097
:1018D000FFF7E3FD0021A820FFF7DFFD00213F20F7
:1018E000FFF7DBFD0021C820FFF7D7FD0021D32043
:1018F000FFF7D3FD00210846FFF7CFFD0021D520DB
:10190000FFF7CBFD00218020FFF7C7FD0021D82085
:10191000FFF7C3FD00210520FFF7BFFD0021D920FF
:10192000FFF7BBFD0021F120FFF7B7FD0021DA2012
:10193000FFF7B3FD00211220FFF7AFFD0021DB20F0
:10194000FFF7ABFD00213020FFF7A7FD00218D2020
:10195000FFF7A3FD00211420FFF79FFD0021AF201A
:10196000FFF79BFD08BD000048000020000C01406F
:1019700000EBC001C9004FF0E022516100219161EC
:101980000521116100BF4FF0E021096901F48031A8
:101990000029F8D004214FF0E0221161704700B512
:1019A000034603E04FF47A70FFF7E2FF181EA3F13D
:1019B0000103F7D100BD10B5044603E04FF47A707F
:1019C000FFF7EDFF201EA4F10104F7D110BD0000C8
:1019D00000B587B00121880301F0BFF9012108207B
:1019E00001F0AEF94FF40050ADF8180018208DF852
:1019F0001B0003208DF81A0006A9A14800F0E4FEA0
:101A00004FF40040ADF8180018208DF81B0003209B
:101A10008DF81A0006A99A4800F0D6FE4FF48040CF
:101A2000ADF8180004208DF81B0003208DF81A0073
:101A300006A9934800F0C8FE4FF48050ADF8180096
:101A400010208DF81B0003208DF81A0006A98C4881
:101A500000F0BAFE4FF48051894800F062FF002187
:101A6000884801F09CFA0020ADF804004FF4827021
:101A7000ADF806004FF40060ADF808000020ADF8A6
:101A80000A000120ADF80C004002ADF80E00202045
:101A9000ADF810000020ADF812000720ADF81400DA
:101AA00001A9784801F0D6F90121764801F077FACA
:101AB0004FF4FA70FFF75CFF07B000BD014600224B
:101AC00006E0501C80B20246C82801DD00207047A5
:101AD0006C480830008800F002000028F1D0694806
:101AE0000C300180002206E0501C80B20246C8285B
:101AF00001DD0020EBE763480830008800F00100BA
:101B00000028F1D05F480C300088E0E770B504464B
:101B10004FF480515A4800F006FF2046FFF7CEFFF1
:101B20005748001D006820F070405549091D0860A5
:101B30000846006840F0704008606420FFF718FF16
:101B40004FF6FF70FFF7BAFF05464FF480514C483F
:101B500000F0E7FE4A48001D006820F07040484948
:101B6000091D08600846006840F0304008602846BB
:101B700070BD2DE9F0410024002648F23100FFF746
:101B8000C5FF0446C4F30E04204602F0B8FC064626
:101B90003D49304602F03AFC07464FF08E4102F0D4
:101BA00067FC06464FF08041304602F061FC074674
:101BB00002F0C3FC85B22846BDE8F08170B5054649
:101BC0000C464FF480512E4800F0ADFE2846FFF73A
:101BD00075FF2046FFF772FF2948001D006820F0BE
:101BE00070402749091D08600846006840F07040B1
:101BF00008606420FFF7BCFE4FF6FF70FFF75EFF42
:101C000006464FF480511E4800F08BFE1C48001D14
:101C1000006820F070401A49091D086008460068F5
:101C200040F030400860304670BD2DE9F04100249E
:101C30000026002748F22100FFF768FF0446C4F39E
:101C40000E044FF6FF7000EA4404204602F057FCF1
:101C500006460D49304602F0D9FB80464FF08F41D1
:101C600002F006FC06460949304602F0CFFB8046EA
:101C700002F063FC85B206480560BDE8F081000013
:101C8000000C0140003800400000B4430000C8428E
:101C9000CC03002010B586B004460121042001F0D9
:101CA0004FF80121880301F04BF84FF48070ADF834
:101CB000140002208DF8160010208DF8170005A9D9
:101CC000F74800F081FD4FF40070ADF814000220D9
:101CD0008DF8160018208DF8170005A9F04800F0BF
:101CE00073FD4FF48060ADF8140002208DF81600EB
:101CF00004208DF8170005A9E94800F065FD01A84A
:101D000002F0C2F901940020ADF80800ADF80A0015
:101D1000ADF80C000C20ADF80E000020ADF810005E
:101D200001A9E04802F047F925208DF800000120C4
:101D30008DF801008DF802008DF80300684600F070
:101D40007AFC012240F22661D64802F0CCF900224A
:101D500040F22771D34802F0C6F9012240F2255122
:101D6000D04802F0C0F90121CE4802F0B0F906B027
:101D700010BD10B50446012C04D10102C84800F082
:101D8000D0FD04E04FF48071C54800F0CCFD10BDDB
:101D900010B50120FFF7EDFF0020C3490870C348CC
:101DA0000978445C2146BF4802F0FEF910BD70B5C9
:101DB00002460C46FF25FF2309E012F8010B80EADA
:101DC0000501BB48405C80EA0305BA48435C201E1D
:101DD000A4F10106B4B2F0D143EA052070BD70470A
:101DE00030B502460B46002400201146642904DA6F
:101DF0000C46B14D35F814501D8030BD2DE9F84327
:101E000000200090AD48C078AC49897800EB0120F3
:101E10001FFA80F94F46A9484079A849097900EB93
:101E200001201FFA80F8A5484079B0F5806F34DAB8
:101E30004FF6FF7000EA4804002512E06946384674
:101E4000FFF7CEFFBDF800000112984AE81C1154BC
:101E5000BDF80000C1B2281D1154A81C85B2781C21
:101E600087B2A542EADB96480078904908700320C3
:101E700048708C70E01C84B221468C48FFF797FFB5
:101E80000646301289490855601C84B20E55601C04
:101E90008C490870FFF77CFF04E000208A49087035
:101EA0008A490870BDE8F883704770B502460B4652
:101EB000002400201146642913DA0C461DB27E4E20
:101EC00026F81450142901DA012500E000252729FD
:101ED00001DD012600E00026354315B101257C4EC9
:101EE000357070BD2DE9F047002500260024A1467D
:101EF00000BFA046002771488478C67825464FF673
:101F0000FF7000EA05253543A9466C4807794FF66E
:101F1000FF7000EA07276948407907433946484679
:101F2000FFF7C3FF664800786049087006204870D4
:101F300008468470C6706148007908715F4840792E
:101F4000487106215948FFF732FF80464FEA2820A2
:101F50005649887181F8078008205A490870012085
:101F60005C490870FFF714FFBDE8F0872DE9F047E2
:101F700000BF5248C0785149897800EB012085B2F2
:101F8000A8464E4840794D49097900EB012086B2B8
:101F90004A4890F806A0002417E0082000EB44000F
:101FA0004649085C072101EB4401444A515C00EBBF
:101FB00001201FFA80F949464046FFF776FF601C72
:101FC00084B208F101001FFA80F8B442E5DB3C4816
:101FD0000078364908701020487028128870CD703B
:101FE000301208714E7106213048FFF7E0FE0746B7
:101FF00038122E498871CF71082032490870FFF7D6
:10200000C7FEBDE8F08770B5334800782C490870EA
:102010002D480078042842DD2848407806280FD053
:1020200006DC012809D0032808D005287ED106E067
:102030000F285FD01028F9D17FE000BF00BF00BF9C
:1020400021480078082854DB1C4800781C4909788E
:10205000884249D11D48007800BB06211748FFF788
:10206000A6FE05461548C0791449897900EB012080
:10207000A84239D111484078012802D1FFF7AFFEBC
:1020800032E00E484078032802D1FFF7B7FE2BE07C
:102090000A484078052821D1FFF706FF24E08AE0AE
:1020A0000008014000380140DF0300203005002017
:1020B000805C0008805D00081C04002030060020C1
:1020C000DC030020DD030020DE030020EC03002001
:1020D00016000020E103002017000020CF484078C0
:1020E000062801D1FFF7FEFE0020CD490870CD493A
:1020F00008705FE0C94884790934C9480078A04273
:102100001ADBC6480078C849097888420FD1C5480B
:10211000007860B9A01E81B2C048FFF748FE0546AE
:102120000020BF490870BF49087005E03EE000206C
:10213000BB490870BB4908703CE0B8484079B749D2
:10214000097900EB012084B24FF6FF7000EA4404E5
:1021500004F1090084B2B2480078A04225DBAF4800
:102160000078B149097888421AD1AE480078B8B9E8
:10217000A01E81B2A948FFF71AFE0546601EA749B6
:10218000095CA01EA54A105C01EB0020A84201D109
:10219000FFF7ECFE0020A2490870A249087004E095
:1021A00000209F4908709F49087003E000209C4967
:1021B000087000BF00BF70BD30B503460020C3F3F8
:1021C0000B02D4B2062C1CD2DFE804F003070B0F7D
:1021D0001317964CA45C0C8014E0944CA45C0C8007
:1021E00010E0924CA45C0C800CE0904CA45C0C8041
:1021F00008E08E4CA45C0C8004E08C4CA45C0C8049
:1022000000E000BF00BF30BD30B503460020C3F37F
:102210000B02D4B2052C13D2DFE804F00306090C3C
:102220000F00824DA9540CE0804DA95409E07F4D68
:10223000A95406E07D4DA95403E07C4DA95400E06B
:1022400000BF00BF30BD2DE9FE4F4FF0000B002056
:1022500002904FF4807001900020009040F22771AE
:10226000734802F025F8044640F22661704802F0F7
:102270001FF8054640F225516D4802F019F8064650
:102280004FF458716A4802F013F8074640F22441AF
:10229000674802F00DF880464FF4B071644802F0D0
:1022A00007F881462821624802F002F88246012C94
:1022B00008D180215E4801F0F2FF40F227715C48AE
:1022C00002F020F8012D1FD14021594801F0E7FF0D
:1022D00058480078401E5849097888420DDD564814
:1022E0000078401C5449087054480978405C0090BC
:1022F0004F48009901F058FF06E000204849087057
:1023000048490870FFF735FD012E57D12021484874
:1023100001F0C5FF40F22551454801F0F3FF444864
:1023200001F046FF83464648008830B1012807D0B7
:10233000022808D003280CD108E0502002900BE0BE
:102340002820029008E01420029005E0042002906A
:1023500002E05020029000BF00BF3A480188029876
:10236000814213DD00202E49087036490880002183
:102370004FF0804001F0FEFA00214FF0804001F064
:102380008DFD0121880701F0F5FA02E000202D49BA
:1023900008802249224A127801F802B020480078C9
:1023A000401C1F490870084601780198814202D1FB
:1023B00000201B490870012023490870012F08D113
:1023C00008211B4801F06BFF4FF45871184801F0C9
:1023D00099FFB8F1010F08D11021154801F05FFFF6
:1023E00040F22441124801F08DFFB9F1010F08D1EC
:1023F00002210F4801F053FF4FF4B0710C4801F077
:1024000081FFBAF1010F07D10121094801F047FF0F
:102410002821074801F076FFBDE8FE8F3006002036
:10242000DE030020EC030020DC0300203007002046
:1024300000380140DD030020DF03002030050020CC
:1024400014000020EE030020E00300200CB5002063
:10245000019000906C48006840F480306A49086040
:1024600000BF6948006800F4003000900198401CEB
:102470000190009818B90198B0F5A06FF1D16248A9
:10248000006800F4003010B10120009001E000204D
:1024900000900098012843D15C48006840F010008B
:1024A0005A4908600846006820F0030008600846A2
:1024B000006840F002000860534840685249486094
:1024C0000846406848600846406840F480604860BC
:1024D0000846406820F47C1048600846406840F494
:1024E000E81048600846006840F08070086000BF4F
:1024F0004548006800F000700028F9D04248406864
:1025000020F00300404948600846406840F002005F
:10251000486000BF3C48406800F00C000828F9D132
:102520000CBD10B5FFF792FF10BD10B5364800681E
:1025300040F00100344908600846406834490840CA
:102540003149486008460068324908402E49086011
:102550000846006820F4802008600846406820F49F
:10256000FE0048604FF41F008860FFF7DAFF4FF06D
:1025700000602949086010BD10B50021002000222C
:10258000214B5B6803F00C0121B1042906D0082916
:1025900028D107E0214B224C236027E01F4B204C21
:1025A000236023E0184B5B6803F47010164B5B68E4
:1025B00003F48032022303EB904022B9194B4343CA
:1025C000174C23600DE0104B5B6803F4003323B11C
:1025D000144B4343124C236003E0104B4343104C15
:1025E000236003E00D4B0E4C236000BF00BF064B81
:1025F0005B68C3F303130C4CE15C094B1B68CB40D5
:10260000074C236010BD0000001002400020024073
:102610000000FFF8FFFFF6FE08ED00E000127A0070
:10262000F403002000093D00F80300203149014374
:10263000314A1160704770B5002100230F22C47821
:1026400004B32D4C246804F4E064C4F5E064210A6A
:10265000C1F10403CA40447804FA03F184781440B9
:1026600021430901254C0678A155047804F01F0583
:102670000124AC4005786D11AD0005F1E025C5F8E9
:10268000004109E0047804F01F050124AC401C4D12
:102690000678761145F8264070BD1A4A0A40024372
:1026A000154B1B1F1A60704739B1134A121D12686F
:1026B0000243114B1B1D1A6006E00F4A121D1268DF
:1026C00082430D4B1B1D1A607047042808D14FF040
:1026D000E021096941F004014FF0E022116107E0B7
:1026E0004FF0E021096921F004014FF0E02211616F
:1026F000704700000000FA050CED00E000E400E087
:1027000080E100E080FFFF1F10B50446CC48844202
:1027100008D10121042000F02DFB0021042000F04D
:1027200029FB46E0C748844208D10121082000F077
:1027300021FB0021082000F01DFB3AE0C248844242
:1027400008D10121102000F015FB0021102000F01D
:1027500011FB2EE0BD48844208D10121202000F069
:1027600009FB0021202000F005FB22E0B84884424C
:1027700008D10121402000F0FDFA0021402000F0A6
:10278000F9FA16E0B348844208D10121802000F014
:10279000F1FA0021802000F0EDFA0AE0AE48844210
:1027A00007D10121801500F0E5FA0021A01500F005
:1027B000E1FA10BD10B50121084600F0DBFA002156
:1027C000012000F0D7FA10BD2DE9F04102460025A6
:1027D0000026002000230024002791F803C00CF0FD
:1027E0000F0591F803C00CF0100CBCF1000F03D0E2
:1027F00091F802C04CEA050591F800C0BCF1000F49
:1028000031D0146800202BE04FF0010C0CFA00F3DB
:10281000B1F800C00CEA03069E4220D183004FF0BD
:102820000F0C0CFA03F7BC4305FA03FC4CEA040452
:1028300091F803C0BCF1280F06D14FF0010C0CFA3F
:1028400000FCC2F814C00AE091F803C0BCF1480FC4
:1028500005D14FF0010C0CFA00FCC2F810C0401C6E
:102860000828D1D31460B1F800C0BCF1FF0F34DDEB
:10287000546800202EE000F1080C4FF0010808FA1F
:102880000CF3B1F800C00CEA03069E4221D183008C
:102890004FF00F0C0CFA03F7BC4305FA03FC4CEAAB
:1028A000040491F803C0BCF1280F05D100F1080C15
:1028B00008FA0CF8C2F8148091F803C0BCF1480F74
:1028C00007D100F1080C4FF0010808FA0CF8C2F823
:1028D0001080401C0828CED35460BDE8F0814FF62C
:1028E000FF710180022181700421C170704702468E
:1028F000002093680B400BB1012000E000207047DE
:102900000146886880B2704702460020D3680B40B9
:102910000BB1012000E0002070470146C86880B27A
:10292000704701617047416170470AB1016100E081
:1029300041617047C16070474FF480320A43826141
:102940008161826182698269704702460020434B3F
:1029500018684FF68073184040EA021008433F4B56
:10296000186070473E49C8617047F0B50A460023B9
:1029700000240021002500F00046B6F1004F02D1EE
:10298000364EF16901E0354E7168C0F3034583B2FC
:1029900000F44016B6F5401F08D121F070612F4EAB
:1029A000766826F070662D4F7E6012E000F4801687
:1029B000B6F5801F06D1032606FA05F4A14341F0BF
:1029C000706106E0460D360103FA06F6B14341F0A8
:1029D000706122B1460D360103FA06F6314300F06C
:1029E0000046B6F1004F02D11C4EF16101E01B4ED2
:1029F0007160F0BD30B500228B071C0F0F2303FA66
:102A000004F2164B08338C1053F824309343134CC4
:102A100008348D1044F8253023468C1053F82430A8
:102A20008C07240F00FA04F423430C4C08348D1057
:102A300044F8253030BD0A49DC3108607047000099
:102A400000080140000C014000100140001401404A
:102A500000180140001C014000200140000001401E
:102A600000002042DF48006840F00100DD490860B6
:102A700008464068DC490840DA4948600846006872
:102A8000DA490840D74908600846006820F48020E9
:102A900008600846406820F4FE0048604FF41F00BC
:102AA00088607047CF49096821F48031CD4A1160B0
:102AB0001146096821F480211160B0F5803F03D0F0
:102AC000B0F5802F0ED106E0C649096841F4803187
:102AD000C44A116007E0C349096841F4A021C14A12
:102AE000116000E000BF00BF704710B50146002232
:102AF000002300204A11012A02D1BA4C236806E0C3
:102B0000022A02D1B74C236A01E0B64C636A01F095
:102B10001F02012494401C400CB1012000E0002061
:102B200010BD38B5002000900024002500BF3120E2
:102B3000FFF7DBFF05460098401C00900098B0F5B9
:102B4000A06F01D0002DF2D03120FFF7CEFF08B1E9
:102B5000012400E00024204638BD01460020A14A9F
:102B6000106820F0F80040EAC10010607047A049EA
:102B700008607047024600209A4B586820F47C1089
:102B800042EA01031843974B58607047984908661A
:102B9000704701460020934A506820F00300084324
:102BA000506070478F48406800F00C007047014645
:102BB00000208C4A506820F0F000084350607047B5
:102BC00001460020874A506820F4E06008435060C6
:102BD000704701460020834A506820F4605040EA64
:102BE000C1005060704729B17E4A527A02437D4B42
:102BF0005A7204E07B4A527A82437A4B5A72704787
:102C00007B49D8310860704701460020754A5068FA
:102C100020F440400843506070470021714A203240
:102C20001170704A82F82010012802D004280AD1BD
:102C300004E001216B4A2032117005E00521694A48
:102C40002032117000E000BF00BF70476949086082
:102C500070476449096A0143624A116270476549D5
:102C600044390860704730B5002100220024002359
:102C70005C4D6D6805F00C0121B1042905D00829CF
:102C800023D105E05C4D056022E05B4D05601FE04F
:102C9000544D6D6805F47012524D6D6805F4803422
:102CA000022505EB92421CB9544D554305600BE0DB
:102CB0004C4D6D6805F400351DB1504D5543056010
:102CC00002E04D4D5543056002E04B4D056000BFED
:102CD00000BF444D6D6805F0F0010909484D6B5C7B
:102CE0000568DD4045603F4D6D6805F4E061090A07
:102CF000434D6B5C4568DD4085603A4D6D6805F479
:102D00006051C90A3E4D6B5C4568DD40C560354D7C
:102D10006D6805F44041890B3A4D6B5CC568B5FBA5
:102D2000F3F5056130BD29B12E4A526902432D4B9E
:102D30005A6104E02B4A526982432A4B5A61704718
:102D400029B1284A92690243264B9A6104E0254A38
:102D500092698243234B9A61704729B1214AD26913
:102D60000243204BDA6104E01E4AD26982431D4BC4
:102D7000DA61704729B11B4AD2680243194BDA6005
:102D800004E0184AD2688243164BDA60704729B1D2
:102D9000144A12690243134B1A6104E0114A126982
:102DA0008243104B1A6170471249403908607047DE
:102DB0000F49C86470470B49C87170470948406A99
:102DC00040F0807007494862704701460020054A7C
:102DD00092680A400AB1012000E0002070470149D2
:102DE00088727047001002400000FFF8FFFFF6FEF7
:102DF000000042428004424200127A0000093D0075
:102E0000080400201804002010B50446BE4884427F
:102E100008D101218014FFF7ADFF0021A014FFF7B6
:102E2000A9FF16E0B948844208D101210014FFF738
:102E3000AEFF00212014FFF7AAFF0AE0B448844245
:102E400007D10121C013FFF7A2FF0021E013FFF714
:102E50009EFF10BD10B50022028802F441520B887B
:102E60004C8823438C882343CC8823430C892343F9
:102E70004C8923438C892343CC8923431A43028002
:102E8000838B4FF2FF74234083830B8A038210BD30
:102E90002DE9F04F85B005460C464FF0000902279A
:102EA0004FF000084FF0010B0026B246A88B4FF2FE
:102EB00040010840A88302202884B5F81C90A0682F
:102EC000022801D100BF38E0A08810B94FF0010BF3
:102ED00001E04FF0020B8D48854200D100E000BFB9
:102EE0006846FFF7C0FEDDF800A0E088B0F5007F7F
:102EF0000AD14FEA1A2000EB80004000A168B0FB25
:102F0000F1F0401D86B20BE04FEA4B10BAFBF0F037
:102F100000EB80004000A168B0FBF1F0401D86B2DC
:102F20000A20B6FBF0F606F00108A6EB0800C0F395
:102F30004F074FF6FF7000EA0828022F01DBFF2F32
:102F400002DD02274FF00008E08840EA080038431D
:102F50002884A088A1890843618808432188084300
:102F600040F4006040EA0909A5F81C9005B0BDE8EE
:102F7000F08F0021018041808180C18001814181E9
:102F80008181C18107210182704700210180418038
:102F90008180C1800221816000218181704721B13F
:102FA000028842F04002028004E002884FF6BF73BC
:102FB0001A400280704721B1828B42F48062828382
:102FC00004E0828B4FF6FF331A408283704730B59E
:102FD000002400230C110125A540ABB21AB185884D
:102FE0001D43858002E085889D43858030BD1AB1F0
:102FF00083880B43838002E083888B438380704700
:10300000818170470146888970474FF6FF6291427F
:1030100004D0028842F48072028004E002884FF6F5
:10302000FF631A400280704721B1828842F0040297
:10303000828004E082884FF6FB731A4082807047DA
:1030400002884FF2FF731A40028002880A4302800E
:103050007047018841F480510180704721B1028896
:1030600042F40052028004E002884DF6FF731A40D9
:103070000280704702460020012901D0108B00E039
:10308000908A70470146088A7047B1F5804F04D195
:10309000028842F48042028004E002884BF6FF730B
:1030A0001A40028070470246002013890B400BB182
:1030B000012000E000207047CA4302817047F0B54C
:1030C0000246002000240023002501F00F070126FE
:1030D000BE40B4B20B1101269E40B3B2968806EAF8
:1030E00003051689264016B10DB1012000E000202D
:1030F000F0BD10B5002201F00F040123A3409AB2E5
:10310000D343038110BD000000300140003800406F
:10311000003C004010B50446FE48844208D101211D
:10312000C014FFF727FE0021E014FFF723FEC4E0E0
:10313000B4F1804F08D101210846FFF728FE002195
:103140000120FFF724FEB8E0F348844208D10121B2
:103150000220FFF71CFE00210220FFF718FEACE062
:10316000EE48844208D101210420FFF710FE00211F
:103170000420FFF70CFEA0E0E948844208D10121B9
:103180000820FFF704FE00210820FFF700FE94E06E
:10319000E448844208D101211020FFF7F8FD002106
:1031A0001020FFF7F4FD88E0DF48844208D10121B8
:1031B0002020FFF7ECFD00212020FFF7E8FD7CE058
:1031C000DA48844208D101214014FFF7D3FD0021E1
:1031D0006014FFF7CFFD70E0D548844209D101218A
:1031E000C804FFF7C7FD00214FF40020FFF7C2FD20
:1031F00063E0D048844209D101210805FFF7BAFDF8
:1032000000214FF48010FFF7B5FD56E0CA48844214
:1032100009D101214805FFF7ADFD00214FF4001051
:10322000FFF7A8FD49E0C548844208D101214020AC
:10323000FFF7ADFD00214020FFF7A9FD3DE0C048AC
:10324000844208D101218020FFF7A1FD00218020C8
:10325000FFF79DFD31E0BB48844208D10121801574
:10326000FFF795FD0021A015FFF791FD25E0B64879
:10327000844209D101210804FFF77CFD00214FF4AD
:103280008030FFF777FD18E0B048844209D1012172
:103290004804FFF76FFD00214FF40030FFF76AFD8F
:1032A0000BE0AB48844208D101218804FFF762FD9E
:1032B00000214FF48020FFF75DFD10BD0022028841
:1032C000944B98420ED0994B98420BD0B0F1804F5E
:1032D00008D0914B984205D0904B984202D0904B29
:1032E000984204D14FF68F731A404B881A438D4B86
:1032F000984207D08C4B984204D04FF6FF431A40B7
:10330000CB881A4302808B8883850B880385814B89
:1033100098420BD0854B984208D08B4B984205D0F1
:103320008A4B984202D08A4B984201D10B7A03868D
:1033300001238382704770B5002400220023058C8E
:103340004FF6FE7635400584028C8388048B4FF659
:103350008F752C40B51E2C400D882C43751E2A40BD
:103360000D892A434D882A436A4DA8420BD06F4DE0
:10337000A84208D0744DA84205D0744DA84202D08E
:10338000734DA84213D14FF6F7752A404D892A4351
:103390004FF6FB752A408D882A434FF6FF652B4078
:1033A0004FF6FF552B408D892B43CD892B438380CE
:1033B0000483CD888586028470BD70B50024002208
:1033C0000023058C4FF6EF7635400584028C838808
:1033D000048B48F6FF752C404FF6FF452C400D88B6
:1033E0004FF6FF7606EA05252C434FF6DF752A4097
:1033F0000D8906EA05152A434D8806EA05152A4374
:10340000444DA84202D0494DA8421DD14FF67F75C8
:103410002A404D894FF6FF7606EA05152A434FF6F6
:10342000BF752A408D8806EA05152A434FF6FF35F9
:103430002B404FF2FF752B408D8906EA85052B4303
:10344000CD8906EA85052B4383800483CD880587D3
:10345000028470BD70B5002400220023058C4FF655
:10346000FF6635400584028C8388848B4FF68F7508
:103470002C404FF6FC752C400D882C434FF6FF5521
:103480002A400D894FF6FF7606EA05252A434D8826
:1034900006EA05252A431F4DA84202D0234DA84223
:1034A0001DD14FF2FF752A404D894FF6FF7606EA8F
:1034B00005252A434FF6FF352A408D8806EA052563
:1034C0002A434EF6FF752B404DF6FF752B408D8934
:1034D00006EA05152B43CD8906EA05152B438380A3
:1034E0008483CD888587028470BD70B50022002357
:1034F0000024058C4EF6FF7635400584038C8488C5
:10350000828B48F6FF752A404FF6FF452A400D880A
:1035100020E00000002C01400004004000080040B2
:10352000000C004000100040001400400034014036
:10353000004C014000500140005401400018004080
:10354000001C0040002000400040014000440140B9
:10355000004801404FF6FF7606EA05252A434DF65E
:10356000FF752B400D8906EA05352B434D8806EA89
:1035700005352B43FA4DA84202D0FA4DA84208D196
:103580004BF6FF752C408D894FF6FF7606EA8515C0
:103590002C4384808283CD88A0F84050038470BD82
:1035A000828B4FF2FF331A408283828B4FF6FF7378
:1035B00003EA01231A4382837047F0B50C4615468F
:1035C000002200210026078C4EF6FF7C07EA0C073C
:1035D0000784828B018C4FF6FF7707EA043640F6AA
:1035E000FF473A404FF6FF7707EA05273A434FF681
:1035F000FF7707EA03373A43D94FB8420ED0D94F85
:10360000B8420BD0B0F1804F08D0D74FB84205D0A8
:10361000D64FB84202D0D64FB84206D14DF6FF770A
:10362000394046F48057394305E047F6FF573940A3
:1036300044F48057394382830184F0BD828B4FF676
:10364000F3731A408283828B0A4382837047F0B5FA
:103650000C461546002200210026078C4FF6FF6C11
:1036600007EA0C070784828B018C4FF6FF7707EA85
:1036700004264FF60C773A404FF6FF7707EA031718
:103680002F433A43B64FB8420ED0B64FB8420BD094
:10369000B0F1804F08D0B44FB84205D0B34FB84214
:1036A00002D0B34FB84206D14FF6FF57394046F427
:1036B0008077394305E04FF2FF57394044F4807773
:1036C000394382830184F0BD028B4FF2FF331A40ED
:1036D0000283028B4FF6FF7303EA01231A4302832E
:1036E0007047F0B50C461546002200210026078CD5
:1036F0004FF6EF7C07EA0C070784028B018C4FF62C
:10370000FF7707EA041640F6FF473A404FF6FF7787
:1037100007EA03373A434FF6FF7707EA05273A43AC
:103720008F4FB8420ED08F4FB8420BD0B0F1804FC0
:1037300008D08D4FB84205D08C4FB84202D08C4F84
:10374000B84206D14FF6DF77394046F010073943CB
:1037500005E04FF65F77394044F0100739430283A4
:103760000184F0BD028B4FF6F3731A400283028B83
:103770000A4302837047F0B50C461546002200212B
:10378000068C4FF6FE773E400684028B018C4FF686
:103790000C7632407E1C06EA03162E433243704EEE
:1037A000B0420ED06F4EB0420BD0B0F1804F08D077
:1037B0006D4EB04205D06D4EB04202D06C4EB0425C
:1037C00006D14FF6FD76314044F00106314305E065
:1037D0004FF6F576314044F001063143028301840F
:1037E000F0BD70B505460C465D4885420ED05D487B
:1037F00085420BD0B5F1804F08D05B48854205D09B
:103800005A48854202D05A48854200D100E000BFA4
:10381000208850B92389A28861882846FFF7ABFF2A
:10382000E1882846FFF79EFF25E0208804280AD17A
:103830002389A28861882846FFF753FFE18828463C
:10384000FFF742FF17E0208808280AD12389A288C1
:1038500061882846FFF7FBFEE1882846FFF7EEFE69
:1038600009E02389A28861882846FFF7A6FEE1883F
:103870002846FFF795FE70BD2DE9F04105460C4640
:1038800000260127608808B9022600E00026A088EB
:10389000012801D1022700E001272088A0B923894F
:1038A000A28861882846FFF766FFE1882846FFF76F
:1038B00059FF23893A4631462846FFF712FFE1882F
:1038C0002846FFF701FF13E02389A2886188284674
:1038D000FFF707FFE1882846FFF7F6FE23893A46FF
:1038E00031462846FFF747FFE1882846FFF73AFFB1
:1038F000BDE8F0810A884B881A438B881A43CB882D
:103900001A430B891A434B891A438B891A43A0F82F
:10391000442070474FF6FF71818000210180C180F3
:103920004180017270470021018041808180C18007
:10393000018141818181C1817047002101804180E5
:10394000012181800021C180018170470021018017
:1039500041808180C1800181418181817047000067
:10396000002C0140003401400004004000080040E9
:10397000000C004021B1028842F00102028004E004
:1039800002884FF6FE731A400280704731B1B0F8DA
:10399000442042F40042A0F8442005E0B0F844205E
:1039A000C2F30E02A0F8442070471AB183890B437A
:1039B000838102E083898B438381704781827047D2
:1039C00041EA0203A0F8483070471AB183890B43DB
:1039D000838102E083898B438381704701894FF69D
:1039E000F8721140018170470A46002101894FF6A3
:1039F0008F73194011430181704730B504460D465D
:103A000029462046FFF7F0FF208940F0070020817B
:103A100030BD2DE9F04104460D4616461F46602D87
:103A200006D13B46012231462046FFF75AFE05E00B
:103A30003B46012231462046FFF79DFE294620469F
:103A4000FFF7D2FF208940F007002081BDE8F08118
:103A500030B50C4600210189C9B24FF6FF7505EA61
:103A60000325154325432943018130BD2DE9F0414C
:103A700005460E4617469846002443463A463146C8
:103A80002846FFF7E5FF2C894FF6F870044044F014
:103A900007044FF68F70044044F070042C81BDE899
:103AA000F081F0B504460D4616461F463B463246A9
:103AB00029462046FFF7CCFF208940F48040208132
:103AC000F0BD0185828270470A46002101884FF6C9
:103AD0008F731940114301807047F0B50C461546AD
:103AE0001E460021002200230189028B038C4FF621
:103AF000F877394021434FF6FC473A4040F201172E
:103B00003A434FF6DD773B404FF6FF7707EA06175B
:103B10002F433B43018102830384F0BD0A46002109
:103B2000018B4FF68F7319401143018370470A468A
:103B30000021018B48F6FF7319404FF6FF7303EA2B
:103B400002231943018370470A460021818B4FF6F7
:103B50008F7319401143818370470A460021818B7E
:103B600048F6FF7319404FF6FF7303EA0223194327
:103B70008183704721B1028842F08002028004E014
:103B800002884FF67F731A400280704721B1828805
:103B900042F00402828004E082884FF6FB731A40F0
:103BA0008280704721B1828842F00802828004E05E
:103BB00082884FF6F7731A408280704721B182885D
:103BC00042F00102828004E082884FF6FE731A40C0
:103BD000828070470A460021018B4FF6F773194027
:103BE0001143018370470A460021018B4FF2FF7396
:103BF00019404FF6FF7303EA02231943018370470C
:103C00000A460021818B4FF6F773194011438183D7
:103C100070470A460021818B4FF2FF7319404FF61F
:103C2000FF7303EA02231943818370470A46002188
:103C3000018B4FF6FB7319401143018370470A460D
:103C40000021018B4FF6FF3319404FF6FF7303EA53
:103C500002231943018370470A460021818B4FF6E6
:103C6000FB7319401143818370470A460021818B01
:103C70004FF6FF3319404FF6FF7303EA022319434F
:103C8000818370470A460021018B4FF67F731940EC
:103C90001143018370470A460021018BC1F30E01D5
:103CA0004FF6FF7303EA02231943018370470A4664
:103CB0000021818B4FF67F73194011438183704738
:103CC0000A460021818BC1F30E014FF6FF7303EA10
:103CD00002231943818370470A460021018C4FF665
:103CE000FD7319401143018470470A460021018C7D
:103CF0004FF6F77319401143018470470A460021BB
:103D0000018C4FF6DF7319404FF6FF7303EA02137D
:103D10001943018470470A460021018C4FF67F73D6
:103D200019404FF6FF7303EA0213194301847047E9
:103D30000A460021018C4FF6FF5319404FF6FF73DE
:103D400003EA02231943018470470A460021018CCB
:103D50004FF2FF7319404FF6FF7303EA0223194332
:103D6000018470470A460021018C4DF6FF7319400B
:103D70004FF6FF7303EA023319430184704730B5ED
:103D8000002301248C40A3B2048C9C430484048C43
:103D900002FA01F5ADB22C43048430BD30B50023E6
:103DA00004248C40A3B2048C9C430484048C02FA47
:103DB00001F5ADB22C43048430BD70B5034600203C
:103DC00000241846183001258D40ACB21D8CA54347
:103DD0001D8409B1082909D100EB6100056825F0AF
:103DE000700505600568154305600EE00D1FC5F3FD
:103DF0004E052844056825F4E045056005684FF642
:103E0000FF7606EA02263543056070BD21B10288BF
:103E100042F00202028004E002884FF6FD731A406D
:103E20000280704721B1028842F00402028004E05F
:103E300002884FF6FB731A400280704721B18288D6
:103E400042F08002828004E082884FF67F731A403D
:103E50008280704702884FF6F7731A40028002880A
:103E60000A430280704782884FF68F731A4082801F
:103E700082880A438280704702894FF6F8731A409D
:103E8000028102890A430281704702894FF67F73DB
:103E90001A40028102890A43028170478184704777
:103EA0008185704781867047018770478187704799
:103EB000A0F84010704702884FF6FF431A40028076
:103EC00002880A43028070470146888E7047014687
:103ED000088F70470146888F70470146B1F840004F
:103EE00070470146888C70470146088D704702462E
:103EF0000020138A0B400BB1012000E00020704726
:103F0000CA430282704730B50246002000230024D5
:103F1000158A05EA0103958905EA010413B10CB17C
:103F2000012000E0002030BDCA430282704700003B
:103F300010B50446FB48844209D101218803FEF7ED
:103F400019FF00214FF48040FEF714FF32E0F648DD
:103F5000844209D101214804FEF719FF00214FF4E2
:103F60000030FEF714FF25E0F048844209D101211A
:103F70008804FEF70CFF00214FF48020FEF707FFB6
:103F800018E0EB48844209D10121C804FEF7FFFE86
:103F900000214FF40020FEF7FAFE0BE0E5488442D2
:103FA00008D101210805FEF7F2FE00214FF4801030
:103FB000FEF7EDFE10BD2DE9F04786B005460E4632
:103FC0000024A24600BFA1460027B08900B100BF6F
:103FD0002F462C8A4CF6FF700440F08804432C8254
:103FE000AC894EF6F3100440B088318908437189DA
:103FF00008430443AC81AC8A4FF6FF400440B089CB
:104000000443AC8201A8FEF72EFEC648874202D1C7
:10401000DDF810A001E0DDF80CA0A88900F4004054
:1040200040B10AEBCA0000EB0A1031684900B0FB4E
:10403000F1F807E00AEBCA0000EB0A1031688900CA
:10404000B0FBF1F86420B8FBF0F004012009642112
:1040500001FB1089A88900F4004040B1322000EB38
:10406000C900B0FBF1F000F00700044308E0322083
:1040700000EB09106421B0FBF1F000F00F000443E5
:104080002C8106B0BDE8F0874FF416510160002185
:104090008180C18001810C21418100218181704793
:1040A00010B502460020108A4FF2FF0318400B881B
:1040B0004C8823438C882343CC88234318431082A5
:1040C00010BD0021018041808180C180704721B1F5
:1040D000828942F40052828104E082894DF6FF73A6
:1040E0001A4082817047F0B503460024002600255F
:1040F000002040F66A17B94200D100BF1846C1F34C
:10410000421401F01F06012707FA06F5012C01D120
:104110000C3004E0022C01D1103000E014301AB150
:1041200007682F43076002E00768AF430760F0BDF0
:104130001AB1838A0B43838202E0838A8B43838292
:104140007047028A4FF6F0731A400282028A0A43CD
:104150000282704782894FF2FF731A4082818289FE
:104160000A438281704721B1828942F00202828132
:1041700004E082894FF6FD731A4082817047028AFB
:104180004FF6DF731A400282028A0A4302827047A6
:1041900021B1028A42F48042028204E0028A4BF694
:1041A000FF731A4002827047C1F308028280704791
:1041B00001468888C0F308007047818941F00101F9
:1041C00081817047028BD2B20283028B42EA0122C4
:1041D00002837047028B02F47F420283028B0A4300
:1041E0000283704721B1828A42F02002828204E079
:1041F000828A4FF6DF731A408282704721B1828A29
:1042000042F01002828204E0828A4FF6EF731A4075
:104210008282704721B1828A42F00802828204E0E1
:10422000828A4FF6F7731A408282704721B18289E1
:1042300042F40042828103E08289C2F30E0282814D
:10424000704721B1828A42F40062828204E0828A4D
:104250004FF2FF731A4082827047828A4FF6FB73D7
:104260001A408282828A0A438282704721B1828AFE
:1042700042F00202828204E0828A4FF6FD731A4005
:104280008282704702460020B1F5007F00D100BF56
:1042900013880B400BB1012000E00020704701F4AF
:1042A0000072B2F5007F00D100BFCA4302807047A0
:1042B00070B50246002400230025002040F66A164F
:1042C000B14200D100BFC1F3421501F01F03012626
:1042D00006FA03F3012D02D19689334006E0022D40
:1042E00002D1168A334001E0968A33400C1201262F
:1042F00006FA04F41688344013B10CB1012000E032
:10430000002070BD10B50022002340F66A14A142BF
:1043100000D100BF0A1201249440A3B2DC43048000
:1043200010BD00000038014000440040004800403B
:10433000004C0040005000400648804706480047B7
:10434000FEE7FEE7FEE7FEE7FEE7FEE7FEE7FEE745
:10435000FEE7FEE72B250008ED000008F0B480EA38
:104360000102D40F4200B2EB410F02D202460846CE
:1043700011464A0042D0C30DDDB2C1F3C752AD1A97
:10438000202D35DAC1F3160141F4000204B1524286
:10439000C5F1200602FA06F12A411044B3EBD05FC2
:1043A00023D0C4B1012DA0EBC35009DCF0BC4FF009
:1043B000004202EAC352DBB200F5000000F034B95B
:1043C000400000F1807000EBC350A0F1807040EA23
:1043D000D170490009E0490841EAC071A0EBC3501F
:1043E00000F50000400800EBC350F0BC00F013B92A
:1043F0006142012202EB4101001BF6E7F0BC70476D
:1044000081F00041AAE780F00040A7E780EA0102BE
:1044100010B502F00043400022D04A001FD0010E28
:1044200001EB1261C0F35600C2F3560240F40000E3
:1044300042F40002A0FB022000047F39140400D0E3
:10444000401C50EA124001D44000491EC2B20C0682
:1044500004EBD010401C4008802A02D003E000206A
:1044600010BD20F00100002900DA0020184310BD23
:1044700030B480EA010202F0004530F0004221F041
:10448000004013D090B1C30DD40DC2F31601C0F398
:104490001600E41A41F4000140F400027D34914218
:1044A00001D3641C00E04900002C02DA30BC00207B
:1044B00070474FF400000023914201D3891A03434F
:1044C00040084FEA4101F7D151B1914202D14FF07A
:1044D000004105E002D24FF0010101E06FF001015F
:1044E00003EBC450284430BC00F095B8C10F80EAFB
:1044F000E0700844CA079623002100F095B896237F
:104500000022114600F090B800F0004220F0004078
:10451000C10DC0F3160040F400007F2901DA00202D
:104520007047962903DCC1F19601C84001E0963935
:104530008840002AF4D04042704720F00040C10D6E
:10454000C0F3160040F400007F2901DA0020704714
:10455000962903DCC1F19601C8407047963988401E
:10456000704700F0004230F000400AD0C10D01F564
:104570006071C0F3160042EA0151C20840071143BE
:10458000704700200146704730B50B4601460020B9
:104590002022012409E021FA02F59D4205D303FA05
:1045A00002F5491B04FA02F52844151EA2F1010286
:1045B000F1DC30BD2DE9F05F0546002092469B46B8
:1045C00088460646814640241BE028464146474629
:1045D000224600F030FA53465A46C01A914110D391
:1045E00011461846224600F017FA2D1A67EB01080B
:1045F0004F4622460120002100F00EFA17EB000979
:104600004E41201EA4F10104DFDC484631462A4613
:104610004346BDE8F09F0029A8BF7047401C4900F1
:1046200008BF20F00100704710B4B0FA80FC00FA17
:104630000CF050EA010404BF10BC704749B1CCF142
:10464000200421FA04F411FA0CF118BF01212143CE
:104650000843A3EB0C01CB1D4FEA00614FEA102089
:1046600042BF002010BC704700EBC350104400292B
:10467000A4BF10BC7047401C490008BF20F00100D7
:1046800010BC70472DE9FE4F804681EA0300C00F41
:104690000C46009021F0004123F00045B8EB0200E9
:1046A000A94105D24046214690461C460B4602468B
:1046B00023F00040104347D0270DC7F30A00C3F38F
:1046C0000A510290401A019040286BDAC3F313009C
:1046D00040F4801B0098924620B10023D2EB030ADD
:1046E00063EB0B0B01985946C0F14002504600F0B5
:1046F00093F906460D4650465946019A00F0ABF92B
:1047000010EB08006141002487EA115284EAE77344
:104710001A4340D0009A62B3019A012A4FEA075225
:1047200015DC001B61EB02014FF0004202EA075268
:10473000CDE90042001C41F5801132462B4600F0C5
:10474000ABF903B0BDE8F08F40462146F9E7001B06
:1047500061EB0201001C41F5801300185B41201839
:10476000A2F5001747EB030140EAD570B6196D4179
:1047700011E06D084FEA360645EAC0754FEA075268
:10478000001B61EB0201001C41F5801149084FEA52
:1047900030000019514132462B4603B0BDE8F04FBE
:1047A00000F06BB90098012240000023D0EB020218
:1047B00063EBE073009821464FEAE074B8EB000029
:1047C00061EB0401E9E783F000435BE781F000411E
:1047D00058E72DE9FE4F81EA030404F0004421F07C
:1047E000004100944FF0000B23F0004350EA010415
:1047F0005ED052EA03045BD0C3F30A54C1F30A55F6
:104800002C44A4F2F3340194A0FB0254C1F313012D
:1048100041F48011C3F3130343F4801301FB0244FA
:1048200000FB034E840A970A44EA815447EA8357FF
:10483000A4FB076802958D0A05FB07854FEA932CB8
:1048400004FB0C542705029D4FEA065847EA163729
:10485000B5EB08056EEB070C870E920E47EA811741
:1048600042EA8312A7FB0201B6EB0B0164EB0004E2
:104870002B0D43EA0C335E1844EB1C50DA465146CC
:10488000E7FB0201C5F313044FEA0B3343EA145369
:104890004FEA0432019C43EA0603A4F10C0402949B
:1048A000009CCDE900B400F0F7F803B0BDE8F08F4C
:1048B00000200146F9E72DE9F04D81EA030404F0F8
:1048C000004B21F0004514464FF0000A23F0004150
:1048D00050EA050220D054EA01021DD0C5F30A5760
:1048E0000246C5F31303C1F31300C1F30A5640F4A3
:1048F000801543F48013A7EB0608101BD64608F278
:10490000FD3873EB050002D308F1010801E09218AD
:104910005B41B8F1000F03DA00200146BDE8F08DDD
:1049200000204FF48011064684460EE0171B73EBFF
:10493000050705D3121B63EB050306434CEA010C84
:1049400049084FEA300092185B4150EA0107EDD167
:1049500052EA030012D082EA040083EA0501084308
:1049600005D0101BAB4106D20122002306E0002235
:104970004FF0004302E06FF0010253101AEB060003
:104980004CEB085110EB0A0041EB0B01BDE8F04D78
:1049900000F073B8C1F30A52C1F3130140F2FF33C0
:1049A00041F480119A4202DA00200146704740F239
:1049B00033439A42A2F2334202DC524200F03BB847
:1049C00000F02AB830B5041E71F1000404DB4FF08A
:1049D0000044404264EB0101141E73F1000405DB46
:1049E0001C464FF00043524263EB0403994208BF58
:1049F000904230BD064C074D06E0E06840F00103F0
:104A000094E8070098471034AC42F6D3FBF772FBEA
:104A1000805E0008A05E0008202A04DB203A00FA2D
:104A200002F1002070479140C2F1200320FA03F305
:104A3000194390407047202A04DB203A21FA02F003
:104A40000021704721FA02F3D040C2F120029140C8
:104A5000084319467047202A06DBCB17203A41FA53
:104A600002F043EAE07306E041FA02F3D040C2F1FB
:104A70002002914008431946704710B5141E73F187
:104A8000000408DA401C41F1000192185B411A430E
:104A900001D120F0010010BD2DE9F04D92469B465A
:104AA00011B1B1FA81F202E0B0FA80F22032904600
:104AB000FFF7B2FF04460F4640EA0A0041EA0B0145
:104AC00053465A46084313D0114653EA010019D001
:104AD000C8F140025046FFF7AEFF05460E4650466D
:104AE00059464246FFF798FF084305D0012004E0ED
:104AF00020463946BDE8F08D0020054346EAE076C1
:104B00002C4337430A986305E40AA0EB080000220F
:104B1000FD0A44EA47540A3002D500200146E9E77D
:104B2000010510196941DDE9084500196941BDE831
:104B3000F04DA2E770B58C1810F8015B15F0070373
:104B400001D110F8013B2A1106D110F8012B03E026
:104B500010F8016B01F8016B5B1EF9D12B0705D42E
:104B60000023521E0DD401F8013BFAE710F8013B77
:104B7000CB1A921C03E013F8015B01F8015B521E93
:104B8000F9D5A142D8D3002070BD00000FB4084B66
:104B900010B504A902AA039800F0DEF8044602A9A1
:104BA000002000F05CFC204610BC5DF814FB000007
:104BB0005F54000802E008C8121F08C1002AFAD199
:104BC00070477047002001E001C1121F002AFBD18D
:104BD000704700002DE9FF5F82B00021DDE904305D
:104BE000020DDDF840B0034318D044F61050A2F295
:104BF000FF3242431514119801281FD0A5EB0B007A
:104C0000401C5FEA000A4FF000064E4FDFF8389173
:104C1000B046504615D5CAF1000413E0119801249E
:104C20004AA3012801D16FEA0B010298119AC0E949
:104C30000031C0E9024206B0BDE8F09FCBF10000B0
:104C4000DFE704460021404A491842EB0450CDE911
:104C5000001012E0E00707D032463B464046494686
:104C6000FFF7B7FD8046894632463B461046194657
:104C7000FFF7AFFD06460F466410002CEAD1DDE9D0
:104C80000401DDE90023BAF1000F06DAFFF7A1FD08
:104C900042464B46FFF79DFD05E0FFF70CFE4246FE
:104CA0004B46FFF708FE04460E460022284BFFF74E
:104CB00089FE03D84FF0FF30014607E00022254B64
:104CC00020463146FFF7DEFCFFF764FE102409E0C2
:104CD000002C0ADB0A220023FFF76CFC039B303216
:104CE0001A55641E50EA0102F2D1641C039AC4F101
:104CF00011031444119A012A03D0012208430DD153
:104D00000AE0084304D000204FF0110B119072E725
:104D1000A3EB0B056D1E0DE05B4504DD4FF00002BB
:104D200005F1010504E003DA4FF00002A5F10105E9
:104D3000002AECD002981199C0E90231C0E900457F
:104D400079E70000000014400000F03F3000000050
:104D50000000F0430000E03F2DE9FF4F95B09A4678
:104D6000884606460025EEE1252877D1002427460F
:104D7000F94A0121039400E0044316F8013F203B67
:104D800001FA03F01042F7D130782A2811D06FF0E1
:104D90002F033078A0F13002092A16D8039A44F084
:104DA000020402EB820203EB42021044761C0390E1
:104DB000EFE758F8042B0392002A03DA504244F438
:104DC0000054039044F00204761C30782E2816D14B
:104DD00016F8010F44F004042A280DD06FF02F02BA
:104DE0003078A0F13003092B09D807EB870302EBD9
:104DF0004303C718761CF3E758F8047B761C307819
:104E00006C280FD006DC4C2817D068280DD06A28F3
:104E100014D104E0742810D07A280FD10DE044F4A6
:104E200000140AE044F4801401E044F44014727861
:104E3000824202D104F58014761C761C30786628F4
:104E40000BD013DC582877D009DC002875D0452812
:104E5000F6D04628F4D047281AD193E118E0632809
:104E600035D0642879D0652812D18BE1702873D0B1
:104E700008DC6728F1D069286FD06E280DD06F2824
:104E800006D1ACE073282CD0752874D0782853D084
:104E90005246179990476D1C54E1C4F30250022802
:104EA00009D003280DD0D8F8001004280DD00D60CB
:104EB00008F1040846E1D8F80010EA17C1E90052E9
:104EC000F6E7D8F800100D80F2E70D70F0E718F85B
:104ED000041B8DF8001000208DF80100EB46012026
:104EE00003E058F804BB4FF0FF3061074FF00001BA
:104EF00002D40DE009F101018946B9420FDA81457A
:104F0000F8DB1BF809100029F4D108E009F10101D0
:104F100089468142FADB1BF809100029F6D1039873
:104F20005346A0EB090721463846179A00F080FA4D
:104F3000284400EB090507E044E008E10DE01BF818
:104F4000010B524617999047B9F10109F7D2534620
:104F500021463846179AF2E039E00A21C4F302529A
:104F60004FF0000B0091022A06D058F8040BC1172D
:104F7000032A09D00AE023E008F1070020F0070225
:104F8000F2E80201904605E000B2C117042A01D1FF
:104F900040B2C117002906DA0A460021404261EBFF
:104FA00002012D2202E0220504D52B228DF80420D7
:104FB000012203E0E20701D02022F7E7914657E003
:104FC0000A2100E010214FF0000B00910BE01021AE
:104FD0004FF0000B44F004040827009103E0082080
:104FE0004FF0000B0090C4F30252022A05D058F88B
:104FF000040B0021032A08D008E008F1070020F084
:105000000702F2E80201904603E080B2042A00D1D0
:10501000C0B24FF0000922072AD53278702A07D093
:10502000DDF800C08CF0100C5CEA0B0C05D00EE033
:1050300040228DF80420012208E050EA010306D046
:1050400030238DF804308DF8052002229146009B14
:1050500083F0080353EA0B030AD150EA010201D19D
:10506000620705D530228DF804204FF001097F1E1C
:105070003278582A04D039A20C920CAA02920BE082
:105080003BA2F9E75B46009AFFF794FA0C9B9B5C06
:10509000029A521E0292137050EA0102F2D1029853
:1050A00004A9081A00F1200B600702D524F480340B
:1050B00000E001275F4502DDA7EB0B0000E00020C8
:1050C00000EB0B01009003984944401A0390E00361
:1050D00006D453462146179A039800F0A9F90544CF
:1050E000002706E001A85246C05D179990476D1C45
:1050F0007F1C4F45F6DBE0030CD553462146179A3B
:10510000039800F095F9054404E0302052461799C1
:1051100090476D1C0099481E00900029F5DC08E0BE
:105120000298029952460078491C029117999047BB
:105130006D1CBBF10001ABF1010BF1DC5BE100F098
:1051400065F90544761C307800287FF40DAE19B05F
:105150002846BDE8F08F00000928010030313233C5
:1051600034353637383961626364656600000000A3
:10517000303132333435363738394142434445468D
:1051800000000000600700D4062708F1070020F0A7
:105190000700F0E80223804603F0004C5FEA0C00B1
:1051A00001D097A009E0200501D596A005E0E00711
:1051B00001D095A001E0AFF24C001390307823F0BD
:1051C000004365280CD006DC452809D046281DD0B0
:1051D00047287FD13BE0662818D067287AD136E08F
:1051E0000021112F01DB112000E0781CCDE9000126
:1051F00004A90CA8FFF7EEFCDDE90D010C9A4FF0B5
:10520000000B07F10109109200914EE04FF00040B1
:105210000097CDE9011004A90CA8FFF7DBFCDDE93C
:105220000D020C9B0F994FF0000B914610930092CA
:1052300011B9791C00EB0109B7EB090003D4C0F1E7
:10524000FF3B07F10109A9EB0700019042E0012FA4
:1052500000DA01270021112F01DD112000E038467E
:10526000CDE9000104A90CA8FFF7B4FCDDE90D01AC
:105270000C9A00914FF0000BB946109221070FD401
:10528000009A4A4503DA914601E0A9F10109B9F112
:10529000010F05DD109AA9F10101515C3029F4D00C
:1052A000B84202DA10F1040F03DA0121CDE901104E
:1052B00010E0002803DC8344A9EB000102E0411C5C
:1052C000494500DD8946A0EB0B00401C01904FF0E2
:1052D00000400290200705D40198484502DB4FF0BA
:1052E000FF30019000208DF84B0002980DF14B0724
:1052F000B0F1004F25D002200C902B200D90029889
:1053000000280CDA404202902D200D9007E00A217F
:105310000298FFF739F93031029007F8011D0C9916
:10532000481E0C900029F2DC02980028EFD1791E6B
:105330000D980870307800F0200040F0450007F824
:10534000020D11A8C01BC01D02901398007800B177
:10535000012000EB0901019801EBE0710298014482
:105360000398401A401E0390E00306D4534621469A
:10537000179A039800F05CF805441398007818B168
:105380005246179990476D1CE00323D5534621469A
:10539000179A039800F04CF805441BE0BBF1000F8E
:1053A00007DB0098584504DD1098179910F80B009A
:1053B00001E0179930205246904701980BF1010BFC
:1053C000401E05F10105019004D12E205246179987
:1053D00090476D1CB9F10001A9F10109DEDC05E07F
:1053E00017F8010B5246179990476D1C0299481EF9
:1053F00002900029F4DC53462146179A03989EE652
:105400002D0000002B000000200000002DE9F041DD
:10541000044600251E461746880404D405E0394694
:105420002020B0476D1C641EF9D52846BDE8F081E8
:105430002DE9F041044600251E469046C80301D5DB
:10544000302700E02027880404D505E0414638468F
:10545000B0476D1C641EF9D52846BDE8F0810A6886
:10546000531C0B601070704700000000000000002B
:10547000002F000000000700070000147F147F14B5
:1054800000242A7F2A12006264081323003649553B
:10549000225000000503000000001C224100000013
:1054A00041221C000014083E08140008083E0808A9
:1054B000000000A060000008080808080000606004
:1054C0000000002010080402003E5149453E000043
:1054D000427F4000004261514946002141454B3125
:1054E000001814127F10002745454539003C4A49F1
:1054F0004930000171090503003649494936000663
:105500004949291E000036360000000056360000CA
:105510000008142241000014141414140000412245
:10552000140800020151090600324959513E007C1D
:105530001211127C007F49494936003E4141412207
:10554000007F4141221C007F49494941007F0909F0
:105550000901003E4149497A007F0808087F0000A0
:10556000417F4100002040413F01007F081422415B
:10557000007F40404040007F020C027F007F040813
:10558000107F003E4141413E007F09090906003E6F
:105590004151215E007F0919294600464949493198
:1055A0000001017F0101003F4040403F001F2040BB
:1055B000201F003F4038403F006314081463000779
:1055C0000870080700615149454300007F414100D0
:1055D00000552A552A55000041417F000004020170
:1055E000020400404040404000000102040000204E
:1055F00054545478007F484444380038444444208C
:1056000000384444487F00385454541800087E0938
:1056100001020018A4A4A47C007F08040478000000
:10562000447D4000004080847D00007F10284400BD
:105630000000417F4000007C04180478007C0804CE
:10564000047800384444443800FC2424241800180A
:10565000242418FC007C08040408004854545420F6
:1056600000043F444020003C4040207C001C20407F
:10567000201C003C4030403C004428102844001CC2
:10568000A0A0A07C004464544C44141414141414BA
:10569000000000000000000000000000000000000A
:1056A000000000F80000000000000033300000009F
:1056B00000100C06100C06000000000000000000A6
:1056C00040C07840C0784000043F04043F04040018
:1056D000007088FC08300000001820FF211E000028
:1056E000F008F000E018000000211C031E211E003D
:1056F00000F00888700000001E21232419272110C3
:1057000010160E0000000000000000000000000065
:10571000000000E01804020000000007182040000C
:1057200000020418E00000000040201807000000FC
:10573000404080F0804040000202010F0102020060
:10574000000000F0000000000101011F0101010044
:10575000000000000000000080B0700000000000A9
:105760000000000000000000000101010101010132
:1057700000000000000000000030300000000000C9
:10578000000000008060180400601806010000009E
:1057900000E010080810E000000F102020100F009B
:1057A000001010F8000000000020203F2020000022
:1057B000007008080888700000302824222130007A
:1057C00000300888884830000018202020110E0082
:1057D0000000C02010F8000000070424243F24002B
:1057E00000F80888880808000019212020110E0000
:1057F00000E0108888180000000F112020110E0012
:1058000000380808C83808000000003F0000000009
:105810000070880808887000001C222121221C00CA
:1058200000E010080810E0000000312222110F00F3
:10583000000000C0C0000000000000303000000088
:1058400000000080000000000000806000000000F8
:105850000000804020100800000102040810200011
:10586000404040404040400004040404040404005C
:1058700000081020408000000020100804020100F1
:10588000007048080808F0000000003036010000F1
:10589000C030C828E810E0000718272423140B00A4
:1058A0000000C038E0000000203C2302022738201E
:1058B00008F8888888700000203F202020110E0002
:1058C000C0300808080838000718202020100800F9
:1058D00008F808080810E000203F202020100F00E2
:1058E00008F88888E8081000203F202023201800AE
:1058F00008F88888E8081000203F20000300000016
:10590000C03008080838000007182020221E0200B6
:1059100008F808000008F808203F210101213F2075
:10592000000808F8080800000020203F20200000A0
:1059300000000808F8080800C08080807F00000090
:1059400008F888C028180800203F200126382000C9
:1059500008F8080000000000203F20202020300030
:1059600008F8F800F8F80800203F003F003F20004A
:1059700008F830C00008F808203F200007183F0052
:10598000E01008080810E0000F10202020100F0081
:1059900008F808080808F000203F21010101000074
:1059A000E01008080810E0000F18242438504F00B9
:1059B00008F8888888887000203F2000030C302079
:1059C00000708808080838000038202121221C00B7
:1059D000180808F8080818000000203F2000000000
:1059E00008F808000008F808001F202020201F00E9
:1059F0000878880000C83808000007380E01000049
:105A0000F80800F80008F800033C0700073C030012
:105A1000081868808068180820302C03032C302078
:105A20000838C800C83808000000203F20000000E7
:105A300010080808C838080020382621202018003F
:105A4000000000FE020202000000007F4040400013
:105A5000000C30C000000000000000010638C0004B
:105A600000020202FE000000004040407F000000F3
:105A70000000040202020400000000000000000018
:105A80000000000000000000808080808080808016
:105A900000020204000000000000000000000000FE
:105AA00000008080808000000019242222223F20F4
:105AB00008F8008080000000003F112020110E0037
:105AC0000000008080800000000E112020201100C6
:105AD000000000808088F800000E112020103F2078
