:020000040800F2
:10000000C03500206901000881120008771000083F
:100010007D120008BB070008FF2B0008000000004D
:10002000000000000000000000000000851D000826
:10003000BF07000800000000671A0008D11E000872
:10004000112C0008830100088301000883010008C7
:10005000830100088301000891080008890900084D
:10006000AD090008D1090008F5090008830100085E
:100070008301000883010008830100088301000850
:100080008301000883010008830100088301000840
:10009000830100088301000883010008190A000891
:1000A0008301000883010008830100088301000820
:1000B00005200008252000084920000883010008C9
:1000C0008301000883010008830100088301000800
:1000D000830100088301000883010008A9290008A2
:1000E000B508000883010008830100080000000033
:1000F0000000000000000000000000000000000000
:1001000000000000000000008301000883010008D7
:100110008301000883010008830100086D200008A6
:10012000830100088301000883010008830100089F
:10013000830100088301000883010008830100088F
:10014000830100088301000883010008830100087F
:10015000DFF810D000F0F4FA004800473139000809
:10016000AFF30080C03500200648804706480047AE
:10017000FEE7FEE7FEE7FEE7FEE7FEE7FEE7FEE757
:10018000FEE7FEE7D51E00085101000840EA010322
:100190009B0703D009E008C9121F08C0042AFAD23D
:1001A00003E011F8013B00F8013B521EF9D2704701
:1001B000D2B201E000F8012B491EFBD270470022A9
:1001C000F6E710B513460A4604461946FFF7F0FF56
:1001D000204610BDF0B480EA0102D40F4200B2EB19
:1001E000410F02D20246084611464A0042D0C30DD2
:1001F000DDB2C1F3C752AD1A202D35DAC1F31601B5
:1002000041F4000204B15242C5F1200602FA06F19F
:100210002A411044B3EBD05F23D0C4B1012DA0EB31
:10022000C35009DCF0BC4FF0004202EAC352DBB21B
:1002300000F5000000F0F8B9400000F1807000EB1C
:10024000C350A0F1807040EAD170490009E049082C
:1002500041EAC071A0EBC35000F50000400800EB7C
:10026000C350F0BC00F0D7B96142012202EB41015A
:10027000001BF6E7F0BC704781F00041AAE780F070
:100280000040A7E780EA010210B502F000434000F9
:1002900022D04A001FD0010E01EB1261C0F35600BC
:1002A000C2F3560240F4000042F40002A0FB022018
:1002B00000047F39140400D0401C50EA124001D4DD
:1002C0004000491EC2B20C0604EBD010401C40088E
:1002D000802A02D003E0002010BD20F00100002998
:1002E00000DA0020184310BD30B480EA010202F0A9
:1002F000004530F0004221F0004013D090B1C30D12
:10030000D40DC2F31601C0F31600E41A41F4000143
:1003100040F400027D34914201D3641C00E04900A6
:10032000002C02DA30BC002070474FF4000000239C
:10033000914201D3891A034340084FEA4101F7D1A2
:1003400051B1914202D14FF0004105E002D24FF08D
:10035000010101E06FF0010103EBC450284430BCFF
:1003600000F059B92DE9FE4F804681EA0300C00F25
:100370000C46009021F0004123F00045B8EB02004C
:10038000A94105D24046214690461C460B460246EE
:1003900023F00040104347D0270DC7F30A00C3F3F2
:1003A0000A510290401A019040286BDAC3F31300FF
:1003B00040F4801B0098924620B10023D2EB030A40
:1003C00063EB0B0B01985946C0F14002504600F018
:1003D000F1F806460D4650465946019A00F009F9D3
:1003E00010EB08006141002487EA115284EAE773A8
:1003F0001A4340D0009A62B3019A012A4FEA075289
:1004000015DC001B61EB02014FF0004202EA0752CB
:10041000CDE90042001C41F5801132462B4600F028
:1004200040F903B0BDE8F08F40462146F9E7001BD4
:1004300061EB0201001C41F5801300185B4120189C
:10044000A2F5001747EB030140EAD570B6196D41DC
:1004500011E06D084FEA360645EAC0754FEA0752CB
:10046000001B61EB0201001C41F5801149084FEAB5
:1004700030000019514132462B4603B0BDE8F04F21
:1004800000F000B90098012240000023D0EB0202E6
:1004900063EBE073009821464FEAE074B8EB00008C
:1004A00061EB0401E9E783F000435BE781F0004181
:1004B00058E7C10F80EAE0700844CA07962300217C
:1004C00000F0B2B896230022114600F0ADB800F05B
:1004D000004220F00040C10DC0F3160040F40000BF
:1004E0007F2901DA00207047962903DCC1F19601CB
:1004F000C84001E096398840002AF4D04042704755
:1005000020F00040C10DC0F3160040F400007F2928
:1005100001DA00207047962903DCC1F19601C8403A
:10052000704796398840704770B5C1F30A5201F0A0
:1005300000450024C1F3130140F2FF3341F4801160
:100540009A4201DA002070BD40F233439A42A2F28F
:10055000334203DC524200F03CF800E090402C4370
:10056000F1D0404270BD00F0004230F000400AD0AF
:10057000C10D01F56071C0F3160042EA0151C208D5
:10058000400711437047002001467047002801DBF7
:10059000C0F10040002901DBC1F1004181427047F8
:1005A000002801DBC0F10040002901DBC1F100415E
:1005B00088427047202A04DB203A00FA02F100202A
:1005C00070479140C2F1200320FA03F31943904091
:1005D0007047202A04DB203A21FA02F000217047FC
:1005E00021FA02F3D040C2F120029140084319469B
:1005F0007047202A06DBCB17203A41FA02F043EA83
:10060000E07306E041FA02F3D040C2F120029140CB
:100610000843194670470029A8BF7047401C49008D
:1006200008BF20F00100704710B4B0FA80FC00FA57
:100630000CF050EA010404BF10BC704749B1CCF182
:10064000200421FA04F411FA0CF118BF012121430E
:100650000843A3EB0C01CB1D4FEA00614FEA1020C9
:1006600042BF002010BC704700EBC350104400296B
:10067000A4BF10BC7047401C490008BF20F0010017
:1006800010BC704710B5141E73F1000408DA401C4A
:1006900041F1000192185B411A4301D120F00100A1
:1006A00010BD2DE9F04D92469B4611B1B1FA81F291
:1006B00002E0B0FA80F220329046FFF77BFF04465A
:1006C0000F4640EA0A0041EA0B0153465A460843E6
:1006D00013D0114653EA010019D0C8F14002504628
:1006E000FFF777FF05460E46504659464246FFF74C
:1006F00061FF084305D0012004E020463946BDE8EB
:10070000F08D0020054346EAE0762C4337430A98F3
:100710006305E40AA0EB08000022FD0A44EA4754FE
:100720000A3002D500200146E9E7010510196941A8
:10073000DDE9084500196941BDE8F04DA2E7000078
:10074000064C074D06E0E06840F0010394E807001E
:1007500098471034AC42F6D3FFF7FEFCB8530008BC
:10076000D853000870B58C1810F8015B15F007031A
:1007700001D110F8013B2A1106D110F8012B03E03A
:1007800010F8016B01F8016B5B1EF9D12B0705D442
:100790000023521E0DD401F8013BFAE710F8013B8B
:1007A000CB1A921C03E013F8015B01F8015B521EA7
:1007B000F9D5A142D8D3002070BD00BFFEE7704735
:1007C00010B5162200212C4802F0E0FC012851D17E
:1007D000294840782849097800EB0120274908700A
:1007E0002549C978244A927801EB0220FFF761FE7F
:1007F00023490860204949791F4A127901EB0220F8
:10080000FFF757FE1E4948601B49C9791A4A927979
:1008100001EB0220FFF74DFE1949886004211648BC
:10082000083000F02AFC174908601349497B124A36
:10083000127B01EB0220FFF73CFE134908600E49D2
:10084000C97B0D4A927B01EB0220FFF732FE0E4975
:1008500048600949497C084A127C01EB0220FFF7F5
:1008600028FE0949886004210348123000F005FC85
:100870000649086010BD0000081100204400002057
:10088000C810002048000020E81000204C00002084
:1008900010B5012000F020F9012808D104480068B3
:1008A00010B1034908688047012000F00FF910BD1E
:1008B0002031002010B54FF4806000F00DF90128C0
:1008C0000AD13048806A10B12E49886A80474FF4B7
:1008D000806000F0FBF853E04FF4006000F0FCF89B
:1008E00001280AD12748C06A10B12649C86A804742
:1008F0004FF4006000F0EAF842E04FF4805000F05E
:10090000EBF801280AD11F48006B10B11D49086B94
:1009100080474FF4805000F0D9F831E04FF4005098
:1009200000F0DAF801280AD11648406B10B11549D9
:10093000486B80474FF4005000F0C8F820E04FF4B7
:10094000804000F0C9F801280AD10E48806B10B130
:100950000C49886B80474FF4804000F0B7F80FE0F7
:100960004FF4004000F0B8F8012809D10548C06BE9
:1009700010B10449C86B80474FF4004000F0A6F85E
:1009800010BD00002031002010B5022000F0A4F8B6
:10099000012808D10448406810B1034948688047DD
:1009A000022000F093F810BD2031002010B5042083
:1009B00000F092F8012808D10448806810B103497A
:1009C00088688047042000F081F810BD20310020A5
:1009D00010B5082000F080F8012808D10448C0684C
:1009E00010B10349C8688047082000F06FF810BDB7
:1009F0002031002010B5102000F06EF8012808D139
:100A00000448006910B1034908698047102000F0CC
:100A10005DF810BD2031002010B5202000F05CF8FA
:100A2000012809D12448406910B123494869804709
:100A3000202000F04BF83EE0402000F04DF8012867
:100A400009D11D48806910B11B4988698047402041
:100A500000F03CF82FE0802000F03EF8012809D19A
:100A60001548C06910B11449C8698047802000F05A
:100A70002DF820E04FF4807000F02EF801280AD104
:100A80000D48006A10B10C49086A80474FF4807025
:100A900000F01CF80FE04FF4007000F01DF8012882
:100AA00009D10548406A10B10349486A80474FF4AC
:100AB000007000F00BF810BD2031002011B1024A87
:100AC00042F82010704700002031002001490860E2
:100AD0007047000014040140014600200022074B2B
:100AE0001B6803EA0102054B14331B680B4013B16A
:100AF0000AB1012000E0002070470000000401401E
:100B0000002123498279002A3AD00A4612680368F4
:100B10009A430B461A600A1D126803689A430B1D1C
:100B20001A60027911440A6803681A430A60184A75
:100B30000832126803689A43154B08331A601A1D6D
:100B4000126803689A43124B0C331A604279102AD8
:100B50000ED11A1F126803681A430D4B08331A602E
:100B60001A1D126803681A43094B0C331A600DE012
:100B70000749427911440A6803681A430A6005E08C
:100B8000027911440A6803689A430A6070470000BA
:100B9000000401402DE9FE4306460D4617469846DF
:100BA000012000FA05F12822304600F0C9F90121A0
:100BB000084600F0D9FFE9B2F0B200F04FF801208A
:100BC000A840019000208DF8080008208DF8090049
:100BD00001208DF80A0001A8FFF792FF102D29D2FD
:100BE000DFE805F0080A0C0E10121416181A1C1E65
:100BF0002022242606241EE007241CE008241AE0F4
:100C0000092418E00A2416E0172414E0172412E03F
:100C1000172410E017240EE017240CE028240AE023
:100C2000282408E0282406E0282404E0282402E000
:100C3000282400E000BF00BFE0B28DF80000F8B249
:100C40008DF8010008F0FF008DF8020001208DF8FA
:100C50000300684600F016FBBDE8FE8330B50022B5
:100C60008B071C0F0F2303FA04F20B4B8C1053F865
:100C700024309343084C8D1044F8253023468C10C3
:100C800053F824308C07240F00FA04F42343024C59
:100C90008D1044F8253030BD080001402DE9F041A9
:100CA000024600250026002000230024002791F89A
:100CB00003C00CF00F0591F803C00CF0100CBCF150
:100CC000000F03D091F802C04CEA050591F800C06E
:100CD000BCF1000F31D0146800202BE04FF0010C64
:100CE0000CFA00F3B1F800C00CEA03069E4220D1D2
:100CF00083004FF00F0C0CFA03F7BC4305FA03FC1A
:100D00004CEA040491F803C0BCF1280F06D14FF05F
:100D1000010C0CFA00FCC2F814C00AE091F803C000
:100D2000BCF1480F05D14FF0010C0CFA00FCC2F8E1
:100D300010C0401C0828D1D31460B1F800C0BCF129
:100D4000FF0F34DD546800202EE000F1080C4FF056
:100D5000010808FA0CF3B1F800C00CEA03069E4241
:100D600021D183004FF00F0C0CFA03F7BC4305FAB6
:100D700003FC4CEA040491F803C0BCF1280F05D130
:100D800000F1080C08FA0CF8C2F8148091F803C0BE
:100D9000BCF1480F07D100F1080C4FF0010808FA28
:100DA0000CF8C2F81080401C0828CED35460BDE86F
:100DB000F081000070B505460C46B5F1804F22D198
:100DC000012C06D0022C0AD0032C0ED0042C18D1F2
:100DD00011E018220121002000F0B2F812E01822E0
:100DE0000221002000F0ACF80CE0182204210020C1
:100DF00000F0A6F806E018220821002000F0A0F874
:100E000000E000BF4FE02848854224D1012C06D0E5
:100E1000022C0AD0032C0ED0042C1AD112E0182276
:100E20004021022000F08CF814E0182280210220DA
:100E300000F086F80EE018224FF48071022000F0D6
:100E40007FF807E018224FF40071022000F078F8D4
:100E500000E000BF27E01548854224D1012C06D0D0
:100E6000022C0AD0032C0ED0042C1AD112E0182226
:100E70004021012000F064F814E0182280210120B4
:100E800000F05EF80EE018224FF48071012000F0AF
:100E900057F807E018224FF40071012000F050F8D5
:100EA00000E000BF00BF70BD00040040000800402B
:100EB000F0B50A46002300240021002500F000467A
:100EC000B6F1004F02D11D4EF16901E01B4E716871
:100ED000C0F3034583B200F44016B6F5401F08D1B5
:100EE00021F07061154E766826F07066134F7E60B3
:100EF00012E000F48016B6F5801F06D1032606FA2C
:100F000005F4A14341F0706106E0460D360103FA95
:100F100006F6B14341F0706122B1460D360103FA85
:100F200006F6314300F00046B6F1004F02D1034E01
:100F3000F16101E0014E7160F0BD00000000014070
:100F4000F8B506460C461546052E77D2DFE806F0C2
:100F50000325425364000121042000F005FEA0B2E5
:100F6000ADF80000B4F5005F05D0B4F5804F02D0B5
:100F7000B4F5004F07D10121084600F0F5FD01212D
:100F80003148FFF795FF8DF8035003208DF80200DC
:100F900069462E48FFF782FE52E00121082000F04A
:100FA000E3FDA0B2ADF80000102C01D0082C07D151
:100FB0000121084600F0D8FD01212348FFF778FF02
:100FC0008DF8035003208DF8020069462048FFF792
:100FD00065FE35E00121102000F0C6FDA0B2ADF89D
:100FE00000008DF8035003208DF80200694619486F
:100FF000FFF754FE24E00121202000F0B5FDA0B24F
:10100000ADF800008DF8035003208DF8020069460A
:101010001148FFF743FE13E00121402000F0A4FD3A
:10102000A0B2ADF800008DF8035003208DF8020047
:1010300069460A48FFF732FE02E0FFE70020F8BDEC
:1010400000BF0120FBE70000000230000008014063
:10105000000C014000100140001401400018014044
:101060000246002093680B400BB1012000E00020F5
:1010700070470161704700BFFEE738B502460020A7
:1010800003E0145C0DF80040401C8842F9DB009B33
:10109000184638BD08B50121402000F065FD30201C
:1010A000ADF8000010208DF8030003208DF8020039
:1010B00069460448FFF7F2FD30210248FFF7D9FFE7
:1010C00008BD00000018014070B5044618480068CB
:1010D00020F47000164908600846006840F440108B
:1010E000086000201349086000251EE0E00920B1D7
:1010F00001201049091D086003E000200D49091D69
:1011000008606006040E022002F01AF80120094966
:101110000860022002F014F800200749C1F890018D
:10112000022002F00DF8681CC5B2082DDEDB70BD90
:1011300000180140900123420000234210B50F48DF
:10114000006820F470000D4908600846006840F40B
:101150004010086001200A4908600A49C1F890015E
:10116000042001F0EDFF002005490860042001F093
:10117000E7FF00200349C1F8900110BD00180140AD
:10118000940123420000234210B50F48006820F468
:1011900070000D4908600846006840F4401008607F
:1011A00000200A4908600A49C1F89401042001F0AE
:1011B000C7FF0120054908600549C1F894010420D2
:1011C00001F0BEFF10BD0000001801409001234255
:1011D0000000234210B500241448006820F4700079
:1011E000124908600846006840F4000008600120C9
:1011F0000F49086001F0A4FF01200E49C1F89001D9
:1012000001F09EFF07E0601CC4B2FA2C03DDFFF77B
:10121000BBFF012010BD0648803800680028F2D1CD
:101220000349091F086000BFF4E7000000180140EF
:1012300094012342000023424CF6CC40014908604F
:1012400070470000003000404AF6AA2001490860BB
:1012500070470000003000400149486070470000BE
:1012600000300040014988607047000000300040B5
:1012700001490860704700000030004000BFFEE7F1
:101280007047000070B5002100230F22C47804B31A
:10129000154C246804F4E064C4F5E064210AC1F14B
:1012A0000403CA40447804FA03F1847814402143CB
:1012B00009010E4C0678A155047804F01F0501249D
:1012C000AC4005786D11AD0005F1E025C5F8004191
:1012D00009E0047804F01F050124AC40044D0678B1
:1012E000761145F8264070BD0CED00E000E400E00A
:1012F00080E100E002490143024A116070470000AA
:101300000000FA050CED00E070B5002415E004F1D2
:10131000B001C8B200F018FB012000F015FB10204E
:1013200000F012FB002504E0002000F023FB681C05
:10133000C5B2802DF8DB601CC4B2082CE7DB70BDA1
:1013400070B50646002415E004F1B001C8B200F003
:10135000FBFA012000F0F8FA102000F0F5FA002561
:1013600004E0304600F006FB681CC5B2802DF8DBB7
:10137000601CC4B2082CE7DB70BD10B54FF4FA70E6
:1013800001F0B8FEAE2000F0DFFA202000F0DCFA19
:10139000102000F0D9FAC82000F0D6FA002000F0A2
:1013A000D3FA102000F0D0FA402000F0CDFA8120CE
:1013B00000F0CAFAFF2000F0C7FAA12000F0C4FA3A
:1013C000A62000F0C1FAA82000F0BEFA3F2000F0ED
:1013D000BBFAA42000F0B8FAD32000F0B5FA002040
:1013E00000F0B2FAD52000F0AFFAF02000F0ACFA2D
:1013F000D92000F0A9FA222000F0A6FADA2000F0A5
:10140000A3FA122000F0A0FADB2000F09DFA2020C1
:1014100000F09AFA8D2000F097FA142000F094FA68
:10142000AF2000F091FA0020FFF78AFF10BD000006
:101430002DE9F04180460E46174600247D013146D5
:10144000404600F06DFA00BF06E00D49485D00F02F
:1014500091FA6D1C601CC4B2102CF6DB701CC1B27A
:10146000404600F05DFA002406E00549485D00F0C2
:1014700081FA6D1C601CC4B2102CF6DBBDE8F08153
:10148000840000202DE9F04F87B081468A46164639
:101490001F46002004900590069080460025834654
:1014A000002400213046FFF771F807D22D22204694
:1014B000611CCCB204A90A5486F00046EE493046BD
:1014C000FFF76EF802D207B0BDE8F08FC4F1080054
:1014D00000F0FF08E9493046FFF762F859D8E749BC
:1014E0003046FEF701FFE6490290FEF773FE0390D7
:1014F000FFF706F8C2B22046611CCCB204A90A5418
:101500003046FEF7E4FF42F2107190FBF1F201FB6E
:1015100012004FF47A7190FBF1F03030C2B22046E5
:10152000611CCCB204A90A543046FEF7D0FF4FF438
:101530007A7190FBF1F201FB1200642190FBF1F053
:101540003030C2B22046611CCCB204A90A543046E5
:10155000FEF7BDFF642190FBF1F201FB12000A21AE
:1015600090FBF1F03030C2B22046611CCCB204A92D
:101570000A543046FEF7ABFF0A2190FBF1F201FB63
:1015800012003030C2B22046611CCCB204A90A5409
:10159000C2E0BC493046FFF703F848D83046FEF7B2
:1015A00096FF42F2107190FBF1F201FB12004FF432
:1015B0007A7190FBF1F03030C2B22046611CCCB29F
:1015C00004A90A543046FEF782FF4FF47A7190FB6B
:1015D000F1F201FB1200642190FBF1F03030C2B255
:1015E0002046611CCCB204A90A543046FEF76FFFB6
:1015F000642190FBF1F201FB12000A2190FBF1F053
:101600003030C2B22046611CCCB204A90A54304624
:10161000FEF75DFF0A2190FBF1F201FB1200303072
:10162000C2B22046611CCCB204A90A5474E09649A7
:101630003046FEF7B5FF34D83046FEF748FF4FF48A
:101640007A7190FBF1F201FB1200642190FBF1F042
:101650003030C2B22046611CCCB204A90A543046D4
:10166000FEF735FF642190FBF1F201FB12000A2125
:1016700090FBF1F03030C2B22046611CCCB204A91C
:101680000A543046FEF723FF0A2190FBF1F201FBDA
:1016900012003030C2B22046611CCCB204A90A54F8
:1016A0003AE07A493046FEF77BFF21D83046FEF714
:1016B0000EFF642190FBF1F201FB12000A2190FB66
:1016C000F1F03030C2B22046611CCCB204A90A54F9
:1016D0003046FEF7FCFE0A2190FBF1F201FB1200FE
:1016E0003030C2B22046611CCCB204A90A5413E0C7
:1016F00000213046FEF754FF0ED83046FEF7E7FED5
:101700000A2190FBF1F201FB12003030C2B22046F8
:10171000611CCCB204A90A54002F6ADD072C68DAD8
:101720002E222046611CCCB204A90A543046FEF792
:10173000CEFE0290FEF7BDFE31460390FEF79FFD00
:101740000646012F1FD1082C1DDA50493046FEF7FE
:1017500099FD06463046FEF706FF00224C4BCDE9C8
:101760000001FEF7FFFDCDE90201FEF7DDFE0A21D3
:1017700090FBF1F201FB12003030C2B22046611C36
:10178000CCB204A90A54022F33DB082C31DA3E49CB
:101790003046FEF777FD06463046FEF798FE642198
:1017A00090FBF1F201FB12000A2190FBF1F03030C6
:1017B000C2B22046611CCCB204A90A54082C18DA23
:1017C0003046FEF7D0FE0022314BCDE90001FEF796
:1017D000C9FDCDE90201FEF7A7FE0A2190FBF1F257
:1017E00001FB12003030C2B22046611CCCB204A909
:1017F0000A5439E004A810F80B00203800F0FF0864
:10180000B9F1780F05DD4FF000090AF1010000F091
:10181000FF0A5146484600F083F8002507E005EB33
:1018200008111C4A505C00F0A5F8681CC5B2082DD0
:10183000F5DB0AF10100C1B2484600F071F800255D
:1018400008E005EB08110831124A505C00F092F8EC
:10185000681CC5B2082DF4DB09F1080000F0FF098F
:101860000BF1010000F0FF0B04A810F80B0000289A
:10187000C0D100BF27E600000000FA4600401C4629
:101880000000404200007A440000C84200002041AD
:101890000000E03FB84B00082DE9F04706460F4630
:1018A000904600250024A14631E018F809002038B0
:1018B000C5B2782E02DD0026781CC7B23946304604
:1018C00000F02EF8002407E004EB0511134A505CE9
:1018D00000F050F8601CC4B2082CF5DB781CC1B2D3
:1018E000304600F01DF8002408E004EB0511083133
:1018F0000A4A505C00F03EF8601CC4B2082CF4DBCD
:1019000006F10800C6B209F1010000F0FF0918F85D
:1019100009000028C9D1BDE8F0870000B84B0008D5
:1019200070B504460D4605F1B001C8B200F00CF8E0
:10193000102141EA141000F007F804F00F0141F003
:10194000010000F001F870BD10B50446FFF7F6FB8A
:101950007820FFF7B9FBFFF73DFC0020FFF7B4FB51
:10196000FFF738FC2046FFF7AFFBFFF733FCFFF72C
:101970000BFC10BD10B50446FFF7E0FB7820FFF725
:10198000A3FBFFF727FC4020FFF79EFBFFF722FC9D
:101990002046FFF799FBFFF71DFCFFF7F5FB10BD95
:1019A0002DE9F84F04460D462168A068FEF712FCA9
:1019B000A060E968A068FEF7F3FD01D2E86800E0E6
:1019C000A068A060E86880F000473846A168FEF78C
:1019D000E7FD03D2E86880F0004000E0A068A06066
:1019E000A1686868FEF74EFC0090D4E90001FEF79C
:1019F00043FC8346A968FEF745FC814621682868B8
:101A0000FEF740FC82464946FEF7E4FB804600991B
:101A1000FEF7E0FB0746FEF75AFD064620686060C9
:101A20003046FEF746FD07462969FEF7B9FD03D2A9
:101A30002869FEF74CFD0646286980F000473046CD
:101A4000FEF737FD80463946FEF7A0FD06D228692D
:101A500080F000473846FEF73AFD06463046FEF76E
:101A600028FDBDE8F88F704710B520480068FEF7E4
:101A700020FD1F490861084600681E4908601C488F
:101A800040681D4908601A4880681C4908601C4865
:101A90001749C8601B4908681B490968FEF7ECFB39
:101AA0001A49086008460068486010480068FEF758
:101AB00000FD174908610846006816490860144887
:101AC00040681549086012488068144908600C484D
:101AD0000F49C8600B48416811480068FEF7CCFB0D
:101AE0001049086008460068486010BD600000208A
:101AF000C81000202C0000203000002034000020FE
:101B0000000096436031002048000020DC100020D7
:101B1000E8100020380000203C0000204000002099
:101B20004C000020FC10002029B1064AD269024373
:101B3000044BDA6104E0034AD2698243014BDA6163
:101B4000704700000010024029B1064A12690243A2
:101B5000044B1A6104E0034A12698243014B1A6183
:101B6000704700000010024029B1064A9269024302
:101B7000044B9A6104E0034A92698243014B9A61E3
:101B8000704700000010024029B1064AD2680243A3
:101B9000044BDA6004E0034AD2688243014BDA6006
:101BA00070470000001002400348406A40F0807017
:101BB0000149486270470000001002402DE9F041E1
:101BC00000210022002500230026002400278C4647
:101BD000DFF86081D8F8048008F00C0121B10429F5
:101BE00007D0082959D109E0DFF84C81C0F80080FE
:101BF00058E0DFF84481C0F8008053E0DFF834811A
:101C0000D8F8048008F47012DFF82881D8F804802E
:101C100008F48035920C0D2A01D0921C00E00622B7
:101C200035B9DFF8188102FB08F8C0F8008033E00E
:101C3000DFF80081D8F82C8008F48036DFF8F480D3
:101C4000D8F82C8008F00F0808F1010446B9DFF835
:101C5000E880B8FBF4F808FB02F8C0F800801BE04D
:101C6000DFF8D080D8F82C80C8F3031808F10107FA
:101C7000DFF8C080D8F82C80C8F3032808F1020CE4
:101C8000DFF8B480B8FBF7F808FB0CF8B8FBF4F801
:101C900008FB02F8C0F8008004E0DFF89C80C0F880
:101CA000008000BF00BFDFF88C80D8F8048008F007
:101CB000F0010909DFF8888018F80130D0F80080B9
:101CC00028FA03F8C0F80480DFF86880D8F80480A8
:101CD00008F4E061090ADFF8688018F80130D0F8EC
:101CE000048028FA03F8C0F80880DFF84880D8F8A4
:101CF000048008F46051C90ADFF8448018F8013004
:101D0000D0F8048028FA03F8C0F80C80DFF82480AB
:101D1000D8F8048008F44041890BDFF8288018F8CF
:101D20000130D0F80C80B8FBF3F8C0F81080BDE8A3
:101D3000F08100000010024000127A0000093D000E
:101D4000000000201000002010B5014600220023F2
:101D500000204A11012A02D1094C236806E0022A18
:101D600002D1074C236A01E0054C636A01F01F02AF
:101D7000012494401C400CB1012000E0002010BD63
:101D800000100240704710B500F002F810BD0000CE
:101D90000CB50020019000903F48006840F480306E
:101DA0003D49086000BF3C48006800F400300090E6
:101DB0000198401C0190009818B90198B0F5A06FE7
:101DC000F1D13548006800F4003010B101200090D6
:101DD00001E000200090009801285CD12F480068A5
:101DE00040F010002D4908600846006820F003000C
:101DF00008600846006840F0020008602648406815
:101E0000254948600846406848600846406840F4F4
:101E1000806048600846C06A214908401E49C8627F
:101E20000846C06A1F4908431B49C8620846006843
:101E300040F08060086000BF1748006800F0006054
:101E40000028F9D01448406820F47C1012494860FA
:101E50000846406840F4E81048600846006840F0D2
:101E60008070086000BF0C48006800F00070002817
:101E7000F9D00948406820F0030007494860084647
:101E8000406840F00200486000BF0348406800F02E
:101E90000C000828F9D10CBD0010024000200240BF
:101EA00000F0FEFF14080100042808D14FF0E021E3
:101EB000096941F004014FF0E022116107E04FF0A1
:101EC000E021096921F004014FF0E022116170471F
:101ED0007047000010B51648006840F00100144932
:101EE00008600846406813490840114948600846A0
:101EF0000068114908400E4908600846006820F44F
:101F0000802008600846406820F4FE0048600846CB
:101F1000006820F0A05008604FF47F008860002027
:101F2000C862FFF730FF4FF000600449086010BD41
:101F3000001002400000FFF0FFFFF6FE08ED00E099
:101F400030B587B005460C46681E80B2ADF8140067
:101F50004720ADF810000020ADF81600ADF81200D3
:101F60008DF8180004A9194800F0E0FB6020ADF8D6
:101F700000000120ADF802000420ADF804000A20A2
:101F800094FBF0F080B2ADF806000020ADF8080038
:101F90004FF48070ADF80C000020ADF80E006946DB
:101FA0000A4800F0C7F90821084800F00FFA01219B
:101FB000064800F083F80121044800F091F801215F
:101FC000024800F099F807B030BD0000002C014035
:101FD00008B50121C802FFF7C7FD01210520FFF761
:101FE000C3FD4FF48070ADF8000018208DF8030099
:101FF00003208DF8020069460148FEF74FFE08BD38
:102000000008014010B50648806818B10449886886
:10201000804704E003214FF0804000F05EF810BDDF
:102020000831002010B50648C06818B10449C868D6
:10203000804703E00321034800F04FF810BD000083
:10204000083100200004004010B50648006918B1AE
:1020500004490869804703E00321034800F03DF884
:1020600010BD0000083100200008004010B501211B
:102070000C4800F045F998B101210A4800F02DF80C
:1020800002F010FA08480088401C80B20649088017
:10209000B0F5FA6F04DB02F00DFA00200249088067
:1020A00010BD000000140040C210002011B1024A0F
:1020B00042F82010704700000831002021B102884A
:1020C00042F08002028004E002884FF67F731A40DB
:1020D00002807047CA4302827047CA430282704737
:1020E00021B1028842F00102028004E002884FF62A
:1020F000FE731A400280704731B1B0F8442042F4B8
:102100000042A0F8442005E0B0F84420C2F30E02DB
:10211000A0F844207047000010B504466848844287
:1021200008D10121C014FFF72FFD0021E014FFF7B3
:102130002BFDC4E0B4F1804F08D101210846FFF720
:1021400003FD00210120FFF7FFFCB8E05D48844259
:1021500008D101210220FFF7F7FC00210220FFF740
:10216000F3FCACE05848844208D101210420FFF779
:10217000EBFC00210420FFF7E7FCA0E05348844279
:1021800008D101210820FFF7DFFC00210820FFF71C
:10219000DBFC94E04E48844208D101211020FFF777
:1021A000D3FC00211020FFF7CFFC88E0494884428F
:1021B00008D101212020FFF7C7FC00212020FFF7D4
:1021C000C3FC7CE04448844208D101214014FFF75D
:1021D000DBFC00216014FFF7D7FC70E03F4884422D
:1021E00009D10121C804FFF7CFFC00214FF40020E2
:1021F000FFF7CAFC63E03A48844209D1012108058F
:10220000FFF7C2FC00214FF48010FFF7BDFC56E041
:102210003448844209D101214805FFF7B5FC00216B
:102220004FF40010FFF7B0FC49E02F48844208D17A
:1022300001214020FFF788FC00214020FFF784FCAB
:102240003DE02A48844208D101218020FFF77CFC30
:1022500000218020FFF778FC31E02548844208D136
:1022600001218015FFF770FC0021A015FFF76CFC21
:1022700025E02048844209D101210804FFF784FCAD
:1022800000214FF48030FFF77FFC18E01A488442A9
:1022900009D101214804FFF777FC00214FF40030F9
:1022A000FFF772FC0BE01548844208D10121880435
:1022B000FFF76AFC00214FF48020FFF765FC10BD9A
:1022C000002C01400004004000080040000C0040C9
:1022D000001000400014004000340140004C014058
:1022E000005001400054014000180040001C004014
:1022F00000200040004001400044014000480140EF
:1023000030B50246002000230024158A05EA0103A7
:10231000958905EA010413B10CB1012000E0002009
:1023200030BD1AB183890B43838102E083898B43DB
:102330008381704770B5002400220023058C4FF67E
:10234000FE7635400584028C8388048B4FF68F75AA
:102350002C40B51E2C400D882C43751E2A400D893B
:102360002A434D882A43144DA8420BD0134DA8424E
:1023700008D0134DA84205D0124DA84202D0124DEC
:10238000A84213D14FF6F7752A404D892A434FF6DC
:10239000FB752A408D882A434FF6FF652B404FF688
:1023A000FF552B408D892B43CD892B43838004839C
:1023B000CD888586028470BD002C01400034014028
:1023C0000040014000440140004801400A4600210D
:1023D000018B4FF6F77319401143018370470000DA
:1023E00070B5002400220023058C4FF6EF763540AF
:1023F0000584028C8388048B48F6FF752C404FF6C9
:10240000FF452C400D884FF6FF7606EA05252C4344
:102410004FF6DF752A400D8906EA05152A434D88D7
:1024200006EA05152A43154DA84202D0144DA842CC
:102430001DD14FF67F752A404D894FF6FF7606EA8B
:1024400005152A434FF6BF752A408D8806EA051503
:102450002A434FF6FF352B404FF2FF752B408D89F5
:1024600006EA85052B43CD8906EA85052B43838043
:102470000483CD880587028470BD0000002C0140D4
:10248000003401400A460021018B4FF2FF731940CE
:102490004FF6FF7303EA02231943018370470000DC
:1024A00070B5002400220023058C4FF6FF663540EE
:1024B0000584028C8388848B4FF68F752C404FF6F1
:1024C000FC752C400D882C434FF6FF552A400D8992
:1024D0004FF6FF7606EA05252A434D8806EA0525CC
:1024E0002A43154DA84202D0144DA8421DD14FF2E7
:1024F000FF752A404D894FF6FF7606EA05252A43E7
:102500004FF6FF352A408D8806EA05252A434EF608
:10251000FF752B404DF6FF752B408D8906EA05159A
:102520002B43CD8906EA05152B4383808483CD8810
:102530008587028470BD0000002C014000340140FA
:102540000A460021818B4FF6F773194011438183AE
:102550007047000070B5002200230024058C4EF661
:10256000FF7635400584038C8488828B48F6FF759E
:102570002A404FF6FF452A400D884FF6FF7606EABF
:1025800005252A434DF6FF752B400D8906EA0535D2
:102590002B434D8806EA05352B430B4DA84202D04C
:1025A0000A4DA84208D14BF6FF752C408D894FF695
:1025B000FF7606EA85152C4384808283CD88A0F8B7
:1025C0004050038470BD0000002C014000340140E5
:1025D0000A460021818B4FF2FF7319404FF6FF73BB
:1025E00003EA02231943818370477FB505460C46F1
:1025F0006020ADF800000120ADF802000020ADF829
:102600000800012C06D0022C0DD0032C14D0042C71
:1026100024D11AE069462846FFF78CFE0821284697
:10262000FFF7D4FE1BE069462846FFF7D9FE0821D4
:102630002846FFF727FF12E069462846FFF730FFDC
:1026400008212846FFF77CFF09E069462846FFF786
:1026500081FF08212846FFF7BBFF00E000BF00BF55
:102660007FBD00002DE9F0470746884614461D4609
:102670000E48B0FBF4F6B0FBF4F104FB1109B9EB22
:10268000540F00D3761C41463846FEF793FB2A468A
:102690003146384600F020F941463846FFF7A5FF9D
:1026A00029463846FFF71CFDBDE8F08700A24A0422
:1026B0002DE9F04105460E46144642F21070844260
:1026C00002D90020BDE8F081AF8D781C604342F252
:1026D0001071B0FBF1F4012E06D0022E09D0032EAA
:1026E0000CD0042E14D10EE0A1B2284600F014F84C
:1026F0000FE0A1B2284600F011F80AE0A1B2284686
:1027000000F00EF805E0A1B2284600F00BF800E05A
:1027100000BF00BF0120D5E7818670470187704761
:1027200081877047A0F8401070470000002202889F
:102730001D4B98420ED01D4B98420BD0B0F1804FEC
:1027400008D01B4B984205D01A4B984202D01A4B26
:10275000984204D14FF68F731A404B881A43174B97
:10276000984207D0164B984204D04FF6FF431A40C8
:10277000CB881A4302808B8883850B8803850A4B9C
:1027800098420BD0094B984208D00E4B984205D086
:102790000D4B984202D00D4B984201D10B7A038623
:1027A0000123838270470000002C01400034014067
:1027B0000004004000080040000C004000100040F1
:1027C0000014004000400140004401400048014026
:1027D0002DE9FF4F85B005468A469B46129F364835
:1027E0000AFB00F947F23050B9FBF0F084B2012C3B
:1027F00003DC00241FFA89F817E0012C0ADD49F6F2
:102800004040844206DC601E84B2B9FBF4F01FFA3B
:1028100080F80AE044F62060844206DD27A000F03C
:1028200009FA002009B0BDE8F08FB5F1804F05D15D
:102830001C2601210846FFF777F910E0244885425D
:1028400005D11D2601210220FFF76EF907E021487E
:10285000854204D11E2601210420FFF765F9ADF859
:102860000C80ADF808400020ADF80E00ADF80A006D
:1028700002A92846FFF75AFF3A4628460799FFF76C
:1028800050FDF0B28DF8040000208DF805000BF02B
:10289000FF008DF806008DF8077001A8FEF7F2FC26
:1028A0003A4628460799FFF73CFD39462846FFF788
:1028B00017FC0120B6E700004019010054696D5F64
:1028C0006D7320697320746F6F206D7563680000ED
:1028D00000040040000800402DE9FE4305460E4676
:1028E0009146B04644F62060B8FBF0F084B2012C6B
:1028F00005DC0024A8F10100804687B216E0012C17
:102900000ADD42F21070844206DCB8FBF4F0401E8F
:1029100087B2601E84B209E042F21070844205DD85
:1029200019A000F087F90020BDE8FE83B5F1804FC3
:1029300004D101210846FFF7F7F812E01748854255
:1029400008D101210220FFF7EFF801211448FEF71A
:10295000AFFA06E01348854203D101210420FFF7B6
:10296000E3F8ADF80470ADF800400020ADF80600C3
:10297000ADF8020069462846FFF7D8FE49462846CA
:10298000FFF7AEFB0120CFE754696D5F75732069D7
:102990007320746F6F206D75636800000004004041
:1029A000000C1A000008004010B540F225511748ED
:1029B00000F061F8012826D140F22551134800F0BB
:1029C00032F8124800F012F9C4B2114890F80D0222
:1029D000012800D110BD0E48007BFF280CDA0C48FE
:1029E000017B007B401C0A4A107302F10D00445425
:1029F00000201146A1F810020548007B012802D1F1
:102A0000034981F80E0200BFE4E7000000480040DF
:102A1000AC0E002001F40072B2F5007F00D100BFBF
:102A2000CA430280704710B50022002340F66A14A2
:102A3000A14200D100BF0A1201249440A3B2DC439A
:102A4000048010BD21B1828942F40052828104E0E9
:102A500082894DF6FF731A4082817047024600203A
:102A6000B1F5007F00D100BF13880B400BB10120EE
:102A700000E00020704770B50246002400230025C6
:102A8000002040F66A16B14200D100BFC1F34215E2
:102A900001F01F03012606FA03F3012D02D19689E6
:102AA000334006E0022D02D1168A334001E0968AB7
:102AB00033400C12012606FA04F41688344013B190
:102AC0000CB1012000E0002070BDF0B503460024E9
:102AD00000260025002040F66A17B94200D100BF49
:102AE0001846C1F3421401F01F06012707FA06F544
:102AF000012C01D10C3004E0022C01D1103000E097
:102B000014301AB107682F43076002E00768AF432B
:102B10000760F0BD2DE9F04786B005460E4600245B
:102B2000A24600BFA1460027B08900B100BF2F46D2
:102B30002C8A4CF6FF700440F08804432C82AC8948
:102B40004EF6F3100440B088318908437189084378
:102B50000443AC81AC8A4FF6FF400440B089044383
:102B6000AC8201A8FFF72AF81F48874202D1DDF89E
:102B700010A001E0DDF80CA0A88900F4004040B1ED
:102B80000AEBCA0000EB0A1031684900B0FBF1F80B
:102B900007E00AEBCA0000EB0A1031688900B0FBBD
:102BA000F1F86420B8FBF0F004012009642101FB76
:102BB0001089A88900F4004040B1322000EBC90020
:102BC000B0FBF1F000F00700044308E0322000EB16
:102BD00009106421B0FBF1F000F00F0004432C81D8
:102BE00006B0BDE8F0870000003801400146888843
:102BF000C0F308007047C1F308028280704700BF2D
:102C0000FEE700000020014908607047082C0040E2
:102C100010B50348007800F005F8FFF7F3FF10BD8A
:102C2000C110002000F07F01014A116070470000D0
:102C3000002C0040014A024900F0CCB9953500084B
:102C4000C410002070B50446002507E0A54201D35A
:102C5000012070BD012000F073FA6D1C04210348AF
:102C6000FEF7FEF90028F1D00020F2E7001801403D
:102C70002DE9F04105460E4600270024254800684E
:102C800020F47040234908600846006840F4804002
:102C90000860052000F054FA01201F490860C82090
:102CA000FFF7D0FF20B100F0D7F80120BDE8F08198
:102CB000022000F045FA6006040E17487C380068D0
:102CC00008B1601CC4B2002013490860002715E059
:102CD0006006040E052000F033FA01200E4908605A
:102CE000052000F02DFA0D48D0F80C0108B1601C49
:102CF000C4B2002008490860781CC7B2072FE7DB80
:102D000016B900F063F801E000F00AF82C7000201A
:102D1000CCE7000000180140880123420000234254
:102D200010B50E48006820F470400C490860084651
:102D3000006840F4E0400860002009490860052070
:102D400000F0FEF901200749C1F88801052000F0D4
:102D5000F7F900200249091F086010BD0018014062
:102D60008C0123420000234270B50546002414481C
:102D7000006820F47040124908600846006840F47A
:102D8000E040086000200F49086000BF15E005FA28
:102D900004F0C0F3C0100B49091D0860052000F0C5
:102DA000CFF901200849C1F88801052000F0C8F9D1
:102DB000002004490860601CC4B2082CE7DB70BD29
:102DC00000180140880123420000234210B50C483E
:102DD000006820F470400A4908600846006840F422
:102DE000E0400860012007490860052000F0A8F9CC
:102DF00001200549C1F88801052000F0A1F910BDA6
:102E0000001801408C0123420000234210B50F48F6
:102E1000006820F470400D4908600846006840F4DE
:102E2000E040086001200A4908600A49C1F88801A9
:102E3000052000F085F9002005490860052000F014
:102E40007FF900200349C1F8880110BD0018014036
:102E50008C0123420000234210B50F48006820F483
:102E600070400D4908600846006840F4E040086082
:102E700000200A4908600A49C1F88C01052000F0C9
:102E80005FF9012005490860052000F059F901208B
:102E90000349C1F88C0110BD00180140880123428C
:102EA0000000234210B500241248006820F470404E
:102EB000104908600846006840F48040086005201A
:102EC00000F03EF901200C490860052000F038F9B7
:102ED00007E0601CC4B2FA2C03DBFFF7BDFF012042
:102EE00010BD05487C3800680028F2D1024908600E
:102EF00000BFF5E7001801408801234202E008C83E
:102F0000121F08C1002AFAD170477047002001E063
:102F100001C1121F002AFBD170472DE9F84F04466A
:102F20000D4692461E460A9F4FF00008A1464FEA02
:102F30004961080E334601222946009700F05CFBE8
:102F40008046B8F1000F03D04FF0FF30BDE8F88F96
:102F50000020FBE770B505460024287844EA0044C9
:102F6000687844EA0024A8780443B4F5000F0BD332
:102F7000C4F18070FDF7A6FA06464FF08C41FDF7CC
:102F8000B3F980F0004070BD2046FDF79BFA06467D
:102F90004FF08C41FDF7A8F9F5E72DE9F84F04460D
:102FA0000D4692461E460A9F4FF00008A1464FEA82
:102FB0004961080E334601222946009700F05BFB69
:102FC0008046B8F1000F03D04FF0FF30BDE8F88F16
:102FD0000020FBE72DE9F04116460F460446002588
:102FE00003E03946B047641C6D1C20780028F8D1F6
:102FF0002846BDE8F081000008B501210820FEF751
:10300000B3FD14208DF8030003208DF802000002A8
:10301000ADF8000069460348FDF740FE00F000FCF3
:1030200008BD0000000C014070B502460C46FF25AB
:10303000FF2309E012F8010B80EA05010648405C15
:1030400080EA03050548435C201EA4F10106B4B2E2
:10305000F0D143EA052070BDB6510008B652000811
:1030600070B5044694F80C1104F20D10FFF7DCFF64
:103070000546291294F80C21501C84F80C0104F226
:103080000D10815494F80C21501C84F80C0104F2AA
:103090000D10855400206168884794F80C1104F2E3
:1030A0000D10A268904701206168884770BD00003C
:1030B00010B56FF00400FEF7F7FE0A4800680A49F1
:1030C000B0FBF1F0094908700846007800EB4001B8
:1030D000C1EBC0104FF6FF7101EAC000044908803F
:1030E00010BD00007000002000127A00440500208E
:1030F000460500200146114A12884A434FF0E0235A
:103100005A6100229A611A46126942F001021A615C
:1031100000BF4FF0E022106900F001021AB100F484
:103120008032002AF5D04FF0E022126922F001022D
:103130004FF0E0231A6100229A6170474605002093
:103140000146114A12784A434FF0E0235A610022A7
:103150009A611A46126942F001021A6100BF4FF0EB
:10316000E022106900F001021AB100F48032002A56
:10317000F5D04FF0E022126922F001024FF0E02377
:103180001A6100229A617047440500202DE9F04140
:1031900007460D46164600F029FBA02000F0F8FA7D
:1031A00000F050FB00B12CE0281200F0F1FA00F022
:1031B00049FB00B125E0E8B200F0EAFA00F042FB7A
:1031C00000B11EE000F012FBA12000F0E1FA00F0D7
:1031D00039FB00B115E000240CE000F0B5FA3855D9
:1031E000701EA04202D000F073FA01E000F094FAE1
:1031F000601C84B2B442F0DB00F012FB0120BDE899
:10320000F08100F00DFB0020F9E72DE9F0470746BB
:10321000884691464546002433E014B105F01F006E
:1032200020BB00F0FDFA00260AE000F0DFFAA02043
:1032300000F0AEFA00F006FB00B904E0701C86B2A4
:10324000B6F57A7FF1DB00BFB6F57A7F00D11FE0DB
:10325000281200F09DFA00F0F5FA00B118E0E8B28B
:1032600000F096FA00F0EEFA00B111E0385D00F0DF
:103270008FFA00F0E7FA00B10AE0681C85B2601C22
:1032800084B24C45C9DB00F0CBFA0120BDE8F087E1
:1032900000F0C6FA0020F9E770B504460D4600209C
:1032A00084F80C01607B84F80D01A07B40F0800164
:1032B0004FF487700155401C0555032104F20D1091
:1032C000FFF7B2FE064631124FF488700155401CDC
:1032D0000655002061688847052104F20D10A26898
:1032E000904701206168884770BD000010B51E201E
:1032F000FFF700FF2E480068012857D12D480068CD
:10330000012804D002281CD003284ED133E02AA281
:1033100002210020FEF7C0FA28A202212020FEF799
:10332000BBFA284908684FF07E51FCF753FF254946
:10333000044601232246086002212020FEF7A2F85D
:1033400033E021A204210020FEF7A6FA1BA20421EB
:103350002020FEF7A1FA1B4948684FF07E51FCF788
:1033600039FF1849044601232246486004212020E1
:10337000FEF788F819E015A206210020FEF78CFA66
:103380000EA206212020FEF787FA0E4988684FF02A
:103390007E51FCF71FFF0B4904460123224688603B
:1033A00006212020FEF76EF800BF00BF10BD000010
:1033B000180121426C0000202A503A0020202020D1
:1033C00020200000C81000202A493A002A443A0070
:1033D00010B51E20FFF78EFE2D480068012855D13C
:1033E0002C480068401C2B490860084600680328E8
:1033F00001DD002008602748006830B1012814D0A2
:10340000022822D0032840D12FE023A2022100204D
:10341000FEF742FA21A204210020FEF73DFA20A285
:1034200006210020FEF738FA2FE01EA2022100201C
:10343000FEF732FA19A204210020FEF72DFA18A295
:1034400006210020FEF728FA1FE013A20221002027
:10345000FEF722FA14A204210020FEF71DFA10A2A2
:1034600006210020FEF718FA0FE00BA2022100202F
:10347000FEF712FA09A204210020FEF70DFA0BA2B2
:1034800006210020FEF708FA00BF00BF10BD0000B3
:10349000140121426C00002020503A0020493A00DB
:1034A00020443A002A503A002A493A002A443A0075
:1034B00010B51E20FFF71EFE2E480068012857D1C8
:1034C0002D480068012804D002281CD003284ED1C2
:1034D00033E02AA202210020FEF7DEF928A2022111
:1034E0002020FEF7D9F9284908684FF07E51FCF7F3
:1034F000C3FE2549044601232246086002212020FC
:10350000FDF7C0FF33E021A204210020FEF7C4F93B
:103510001BA204212020FEF7BFF91B4948684FF089
:103520007E51FCF7A9FE1849044601232246486053
:1035300004212020FDF7A6FF19E015A20621002096
:10354000FEF7AAF90EA206212020FEF7A5F90E49E2
:1035500088684FF07E51FCF78FFE0B49044601232B
:103560002246886006212020FDF78CFF00BF00BFA7
:1035700010BD00001C0121426C0000202A503A00BE
:103580002020202020200000C81000202A493A00D6
:103590002A443A0070B504460D46E1B20548FFF7EB
:1035A0002AFB00BF80210348FFF758FA0028F9D012
:1035B000204670BD0048004008B501214020FEF7BC
:1035C000D3FA0C20ADF8000014208DF8030003207E
:1035D0008DF8020069460548FDF760FB01200449AB
:1035E00008600449C1F88C01002008BD00180140A2
:1035F00088012342000023422DE9F04104460F4692
:1036000090461D46069EFFF701FC24F00100FFF7DF
:10361000ABFBFFF747FC10B10120BDE8F081F8B229
:10362000FFF7A2FBFFF73EFC08B10120F5E7FFF72B
:10363000EDFB44F00100FFF797FBFFF733FC08B107
:103640000120EAE711E0012E06D901212846FFF703
:103650000FFB40B10120E0E700212846FFF708FBFF
:1036600008B10120D9E76D1C761E002EEBD1FFF7C3
:10367000F3FB0020D1E72DE9F04105460E469046C8
:103680001C46069FFFF7C2FB25F00100FFF76CFB0D
:10369000FFF708FC10B10120BDE8F081F0B2FFF7A0
:1036A00063FBFFF7FFFB08B10120F5E708E0207896
:1036B000FFF75AFBFFF7F6FB08B10120ECE7641CAB
:1036C000381EA7F10107F2D1FFF7C6FB0020E3E7A0
:1036D00010B54FF400700B49086000F015F84FF476
:1036E00080700849091F086000F00EF84FF48070E0
:1036F0000449086000F008F84FF400700149091F00
:10370000086010BD140C0140002001E0411CC8B24B
:103710001428FBDB7047000010B54FF40070094916
:103720000860FFF7F1FF4FF4807006490860FFF76B
:10373000EBFF4FF480700349091D0860FFF7E4FFB9
:1037400010BD0000100C014070B50024002518E0E9
:103750006006040E4FF480700C490860FFF7D4FF38
:103760000A480838006800F4007008B1601CC4B250
:103770004FF480700549091D0860FFF7C5FF681CFC
:10378000C5B2082DE4DB204670BD0000100C0140DE
:1037900070B50446002524E004F0800020B14FF409
:1037A00000701149086004E04FF400700E49091DD3
:1037B0000860FFF7A9FF4FF480700B490860FFF71E
:1037C000A3FF4FF480700849091D0860072D02D13E
:1037D0004000091F08606006040EFFF795FF681C93
:1037E000C5B2082DD8DB70BD100C014010B54FF4E8
:1037F00000700A49086040100860FFF785FF4FF429
:1038000000700649091D0860FFF77EFF4FF48070C5
:103810000249091D0860FFF777FF10BD100C014039
:1038200010B54FF40070064908604010091F086089
:10383000FFF76AFF4FF400700149091F086010BDCF
:10384000140C014010B54FF400700E490860FFF7EA
:103850005BFF4FF480700B490860FFF755FF094884
:103860000838006800F4007008B1012400E000246A
:103870004FF480700349091D0860FFF745FF20469B
:1038800010BD0000100C014010B50648007801285A
:1038900004D100200349087000F008F8024800F045
:1038A0004FFB10BDC0100020AC0E002010B5FDF77E
:1038B000CBFC10BD70B505460C467D20FEF744FAE2
:1038C00008B1FEF771F945F25550FDF7D1FC2846D5
:1038D000FDF7C2FC2046FDF7C5FCFDF7B5FCFDF782
:1038E000ABFC70BD10B503231A4605210020FDF77F
:1038F00051F90C490520FDF7E1F803231A4606218A
:103900000020FDF747F908490620FDF7D7F8032303
:103910001A4607210020FDF73DF904490720FDF76D
:10392000CDF810BDD1330008ED320008B1340008E5
:1039300038B500244FF44070FDF7DCFCFFF7B8FB0E
:1039400000F0D8FDFEF744FB102208210020FDF70F
:10395000F7FAFFF751FBFCF733FFFEF785F800F0AD
:103960007FFDFFF729FEFFF7BDFF01234FF47A72B9
:1039700019463148FEF776FE01234FF47A72022190
:103980002D48FEF76FFE01234FF47A7203212A4877
:10399000FEF768FE42F20F7201212748FEF788FE0B
:1039A00042F20F7202212448FEF782FE42F20F72A9
:1039B00003212148FEF77CFE01234FF47A72042193
:1039C0001D48FEF74FFE4FF47A7204211A48FEF7A5
:1039D0006FFE4FF47A710846FEF7B2FA0120022317
:1039E00002464FF47A7100908007FEF7F1FE13490A
:1039F0000220FEF75BFB4FF4E132114801781148D9
:103A000000F075FA40F635410520FFF753FFFF251A
:103A10006AB20C21482000F09FFF0446002C02DA15
:103A20004FF0FF3038BD05E0FFF72EFF4FF47A70FE
:103A3000FFF760FBF8E70000000400406545000860
:103A400044000020AC0E00202DE9F047014600267E
:103A500000239C460024984600250027002291F868
:103A60001090C87B09EB002085B22F4691F8129088
:103A7000487C09EB002082B210464FEAE27902EB63
:103A80005979C9F3C7044FEAE27902EB59794FEA51
:103A9000E909A2EBC909B9F1000F01D0601CC4B259
:103AA000487B81F80D0191F80E9081F80E9140F25B
:103AB0000F104454E01C81F80C01012D02DBA81802
:103AC0000B2802DD0220BDE8F08700232EE04FF036
:103AD000000A01F20D1003F1030900F809A0002605
:103AE0001BE001F20D1003F1030910F809000CFAB4
:103AF00006F940EA090000F0FF0A01F20D1003F197
:103B0000030900F809A0781C87B2A818B84202DCA3
:103B10004FF0010803E0701CC6B2082EE1DB00BFC5
:103B2000B8F1010F00D103E0581CC3B2A342CEDBB1
:103B300000BF0020C7E72DE9F0470146002400231D
:103B40009C460025984600260027002291F81090F8
:103B5000C87B09EB002086B2374691F81290487C6A
:103B600009EB002082B210464FEAE27902EB597964
:103B7000C9F3C7054FEAE27902EB59794FEAE9093F
:103B8000A2EBC909B9F1000F01D0681CC5B2487B8E
:103B900081F80D0191F80E9081F80E9140F20F100E
:103BA0004554032081F80C01FF2E02DC0220BDE801
:103BB000F08700232EE04FF0000A01F20D1003F110
:103BC000030900F809A000241BE001F20D1003F125
:103BD000030910F809000CFA04F940EA090000F0A2
:103BE000FF0A01F20D1003F1030900F809A0781C87
:103BF00087B2B018B84202DC4FF0010803E0601C45
:103C0000C4B2082CE1DB00BFB8F1010F00D103E022
:103C1000581CC3B2AB42CEDB00BF0020C7E72DE982
:103C2000F041014600240027002200250023002641
:103C300091F810C0C87B0CEB002082B2154691F8B9
:103C400012C0487C0CEB002083B25806070E487B5C
:103C500081F80D0191F80EC081F80EC140F20F10ED
:103C60004754012081F80C01002A02DBD0180A28F1
:103C700002DD0220BDE8F081002419E04FEA262C85
:103C800091F80C8108F1010081F80C0101F20D108E
:103C900000F808C091F80C8108F1010081F80C01CE
:103CA00001F20D1000F80860601CC4B2681C85B2F7
:103CB0009C42E3DB0020DDE72DE9F04101460022D4
:103CC0000027002300240025002691F810C0C87B9F
:103CD0000CEB002083B21C4691F812C0487C0CEB20
:103CE000002085B26806070E487B81F80D0191F827
:103CF0000EC081F80EC1012081F80C01FF2B02DCFF
:103D00000220BDE8F081002219E04FEA262C91F84C
:103D10000C8108F1010081F80C0101F20D1000F88E
:103D200008C091F80C8108F1010081F80C0101F242
:103D30000D1000F80860501CC2B2601C84B2AA4288
:103D4000E3DB0020DDE72DE9F041044600250027F4
:103D50000026217CE07B01EB002086B2012E01DBF6
:103D60000A2E02DD0220BDE8F081657CFF2D01D125
:103D7000012701E005B90027062084F80C0194F81A
:103D80000C2104F10D0104F20D10FCF7FFF90020E5
:103D9000E9E770B504460025217CE07B01EB0020BB
:103DA00085B2002D02DBB5F5167F01DB022070BD68
:103DB000062084F80C0194F80C2104F10D0104F2A2
:103DC0000D10FCF7E3F90020F1E72DE9F84F044668
:103DD000002600270020009082468346002580466A
:103DE0008146217CE07B01EB002085B2A846A17CC6
:103DF000607C01EB00201FFA80F994F813A0012DDC
:103E000003DB05EB09000B2802DD0220BDE8F88F7B
:103E100000271FE0002614E0F81D04F10D01085CE6
:103E2000304100F00100009008F101001FFA80F815
:103E300005EB0900404502DC4FF0010B03E0701C6C
:103E4000C6B2082EE8DB00BFBBF1010F00D103E0D2
:103E5000781CC7B25745DDDB00BF062084F80C0193
:103E600094F80C2104F10D0104F20D10FCF78EF909
:103E70000020CBE72DE9F047044600250026002767
:103E8000A846A946217CE07B01EB002086B237469C
:103E900094F81180002E02DBB6F5167F02DD0220B9
:103EA000BDE8F087002513E0082000EB450104F190
:103EB0000D00415C072000EB450204F10D00805C21
:103EC00001EB00201FFA80F9681CC5B2781C87B28C
:103ED0004545E9DB082084F80C0194F80C2104F135
:103EE0000D0104F20D10FCF751F90020D8E770B570
:103EF00004460D46164600202073FF2104F10D00F4
:103F0000FCF75DF9002084F80C01FF2104F20D108C
:103F1000FCF755F9012D01DBFF2D03DD012084F8AD
:103F20000C0201E084F80C52002084F80D0284F8A1
:103F30000E02A4F8100230462168884770BD0000C8
:103F400070B50446002594F80D0200B970BD2046F6
:103F500000F0B6FA002874D1A07B052824D008DC34
:103F600001280DD0022810D0032813D004282FD107
:103F700015E006281DD00F2820D0102828D122E0D7
:103F80002046FFF761FD054624E02046FFF7D3FDFC
:103F900005461FE02046FFF742FE05461AE0204690
:103FA000FFF78AFE054615E02046FFF7CCFE0546E2
:103FB00010E02046FFF7EDFE05460BE02046FFF738
:103FC00004FF054606E02046FFF754FF054601E0E2
:103FD000012500BF00BF94F80C02617B88427DD1AF
:103FE000002D7CD1A07B032819D1E07BB8B9207CBF
:103FF000A8B9607C98B9607B84F80D0103214FF467
:10400000877001550221401C01550021401C0155BB
:10401000617B401C01552046FFF722F802E2A07B9D
:1040200004287CD1E07B012802D0022878D17FE0EF
:10403000207C38B1012823D002283BD0032874D13A
:1040400055E0E6E104214FF487700155401C01550D
:10405000F748C17A4FF488700155F548817A40F2EB
:1040600011100155F248417A4FF489700155F0481A
:10407000017A40F2131001552046FEF7F1FF55E09A
:10408000607CB0B9A07C022813D104214FF4877062
:1040900001550221401C0155E54881784FF4887094
:1040A0000155E348C17840F2111001552046FEF752
:1040B000D7FF3BE0607CC8B9A07C022816D1042160
:1040C0004FF4877001550221401C0155D8480179F1
:1040D0004FF488700155D648417901E098E192E1AA
:1040E00040F2111001552046FEF7BAFF1EE0607C39
:1040F000D0B9A07C022817D104214FF48770015554
:104100000221401C0155CA4881794FF4887001553D
:10411000C748C17940F211100155204602E081E004
:104120007EE002E0FEF79CFF00E000BF00BF78E009
:10413000207C30B1012822D002283AD003286CD14B
:1041400051E004214FF487700155401C0155B848D7
:10415000417D4FF488700155B548017D40F2111042
:104160000155B348C17C4FF489700155B048817C3A
:1041700040F2131001552046FEF772FF4EE0607CBE
:10418000B0B9A07C022813D104214FF487700155E7
:104190000221401C0155A648017B4FF4887001554F
:1041A000A348417B40F2111001552046FEF758FF0D
:1041B00034E0607CB0B9A07C022813D104214FF414
:1041C000877001550221401C01559948817B4FF4AD
:1041D000887001559648C17B40F211100155204668
:1041E000FEF73EFF1AE0607CB0B9A07C022813D134
:1041F00004214FF4877001550221401C01558C4861
:10420000017C4FF4887001558948417C40F21110BF
:1042100001552046FEF724FF00E000BF00BF00E08C
:1042200000BFFFE0A07B062877D1E07B20B101280A
:1042300014D0022872D155E040F21110005D7D4982
:1042400008704FF48970005D48700222002179489F
:10425000FEF7DBFF2046FEF703FF8AE0207C012803
:1042600004D0022815D0032839D125E040F21110DE
:10427000005D704988704FF48970005DC87002223B
:1042800011466C48801CFEF7C0FF2046FEF7E8FE92
:1042900026E040F21110005D664908714FF4897004
:1042A000005D4871022204216248001DFEF7ADFF47
:1042B0002046FEF7D5FE13E040F21110005D5D4987
:1042C00088714FF48970005DC87102220621594837
:1042D000801DFEF79AFF2046FEF7C2FE00E000BFF9
:1042E00000BF46E0207C012804D0022817D0032814
:1042F0003BD127E040F21110005D4E4908734FF4A6
:104300008970005D487302220C214A480C30FEF788
:104310007CFF2046FEF7A4FE28E02BE028E040F2D8
:104320001110005D434988734FF48970005DC873B4
:1043300002220E213F480E30FEF767FF2046FEF7AF
:104340008FFE13E040F21110005D3A4908744FF4FB
:104350008970005D48740222102136481030FEF743
:1043600054FF2046FEF77CFE00E000BF00BF00E0E7
:1043700000BF57E0A07B102854D1E07B012802D079
:1043800002283ED11EE04FF48A70005D2949087270
:1043900040F21310005D48724FF48970005D88721E
:1043A00040F21110005DC872042208212148083033
:1043B000FEF72BFF04214FF4887001552046FEF7CD
:1043C0004FFE1FE04FF48A70005D1A49887440F276
:1043D0001310005DC8744FF48970005D087540F2D9
:1043E0001110005D48750422122112481230FEF7A8
:1043F0000CFF04214FF4887001552046FEF730FE73
:1044000000E000BF0EE029462046FEF745FF09E028
:1044100008E094F80C02617B884203D10321204616
:10442000FEF73AFF0020207384F80D0200BF8DE5EF
:10443000081100208031002090F80E1201290DD1C2
:10444000B0F81012491C89B2A0F81012082905DB37
:10445000002180F80E12012180F80D127047000033
:1044600010B5FCF717FEFCF788FF012408E0E2B264
:10447000102101EB0411C8B20221FCF7D9FF641C22
:10448000042CF4DD05A204212820FDF705FA4FF4E1
:10449000E160FEF72FFEFCF737FF10BD47593230C1
:1044A0003041000010B50248FFF7C6FF10BD000004
:1044B000AC0E00200120014908707047C010002098
:1044C00010B50446207BFF2801DD012010BD607B74
:1044D00094F80C12884203D0607B08B10120F5E704
:1044E000217B04F10D00FEF79FFD08B10120EDE7EF
:1044F0000020EBE71FB501212020FDF715FB184830
:10450000FDF70AFE40F2E730ADF808004720ADF8AD
:1045100004000020ADF80A00ADF8060001A910481B
:10452000FEF704F937208DF8000002208DF8010015
:1045300000208DF8020001208DF803006846FCF78A
:10454000A1FE01210648FDF7C5FD012211460448E0
:10455000FDF7E7FE01210248FDF7C2FD1FBD000087
:104560000014004010B501218807FDF7C9FE00289E
:104570007DD05E4B00221146482000F075F918B935
:104580005A4800685A490860584B1B1D01220021F7
:10459000482000F069F918B9544840685549086046
:1045A0005548016852480068FBF766FE53490860A9
:1045B00053495248FDF7F4F90446FBF788FF514987
:1045C00008600846006842F20F71884202DD084622
:1045D0004C4908604B48012102684B48FEF768F8D7
:1045E0004848022102684848FEF762F8454803211E
:1045F00002684548FEF75CF83E4801684348006899
:10460000FBF73AFE4249086042494148FDF7C8F9C4
:104610000446FBF75CFF4049086008460068002834
:1046200001DA002008603C48042102683648FEF7A1
:104630003FF83948008881B24FF47A70FDF780FC6A
:1046400036A200210846FDF727F902232848002159
:1046500002681820FCF716FF012327480021026892
:104660005420FCF70FFF2EA20221002000E03BE0C7
:10467000FDF712F923480068FBF71BFF04460023EF
:10468000224602213020FCF7FDFE27A20421002053
:10469000FDF702F902231748042102681820FCF7ED
:1046A000F1FE01231948042102685420FCF7EAFEB8
:1046B0001BA206210020FDF7EFF817480068FBF762
:1046C000F8FE04460023224606213020FCF7DAFEDD
:1046D0001648006808B9012000E00020134908606E
:1046E00001218807FDF7F9FC10BD000060310020B2
:1046F000500000205400002048000020DC10002062
:10470000C810002058000020000400404C00002089
:10471000FC100020E81000205C00002054313A001A
:1047200050574D3A0000000054323A008C012142AB
:1047300010B586B0044601210820FDF715FA0121C5
:104740004020FDF711FA01218804FDF7EDF9012160
:104750000846FDF709FA4FF48060ADF81400182000
:104760008DF8170003208DF8160005A92648FCF7E0
:1047700095FA4FF40060ADF8140004208DF817008E
:1047800005A92148FCF78AFA4FF40040ADF814005F
:1047900010208DF8170003208DF8160005A91B487E
:1047A000FCF77CFA01940020ADF80800ADF80A008F
:1047B000ADF80C00ADF810000C20ADF80E0001A90A
:1047C0001348FEF7A7F9012240F225511048FEF7E1
:1047D0007CF901210E48FEF735F940210C48FEF71F
:1047E00019F927208DF8000000208DF80200012023
:1047F0008DF803006846FCF745FD4FF4004003497F
:104800001431086006B010BD000C014000180140D2
:104810000048004020B94FF40041044A116004E010
:104820004FF40041014A121D1160704710180140F9
:1048300070B505460E4600240CE0295D0948FEF7D8
:10484000DAF900BF40210748FEF708F90028F9D03F
:10485000601CC4B2B442F0DB40210248FEF7DAF833
:1048600070BD0000004800402DE9F04190B00646C0
:104870000F4615461C464FF00008202108A8FBF7FC
:104880009EFC182102A8FBF79AFC06B124B96FF030
:10489000010010B0BDE8F081002D01DB072D02DD25
:1048A0006FF00100F5E7182002AB012239460090B5
:1048B0003046FEF732FB8046B8F1000F02DA4FF0C7
:1048C000FF30E6E7082D43D2DFE805F0040B131BA9
:1048D000232A323A02A8FEF73DFB08900898206090
:1048E00037E00DF10B00FEF735FB099009982060C9
:1048F0002FE00DF10E00FEF72DFB0A900A982060C4
:1049000027E00DF11100FEF725FB0B900B982060BE
:104910001FE005A8FEF71EFB0C900C98206018E025
:104920000DF11700FEF716FB0D900D98206010E0BA
:104930000DF11A00FEF70EFB0E900E98206008E0B5
:104940000DF11D00FEF706FB0F900F98206000E0B0
:1049500000BF00BF00209CE72DE9FC4105460F4643
:104960001646F0B201901DB96FF00100BDE8FC8160
:10497000012001AB0246394600902846FEF70DFBA8
:104980000446002C02DA4FF0FF30EFE70020EDE79D
:104990000000000000000000002F000000000700E1
:1049A000070000147F147F1400242A7F2A1200625B
:1049B0006408132300364955225000000503000007
:1049C00000001C224100000041221C000014083E8F
:1049D00008140008083E0808000000A06000000855
:1049E00008080808000060600000002010080402A9
:1049F000003E5149453E0000427F40000042615167
:104A00004946002141454B31001814127F10002700
:104A100045454539003C4A494930000171090503C3
:104A200000364949493600064949291E00003636F4
:104A30000000000056360000000814224100001457
:104A40001414141400004122140800020151090634
:104A500000324959513E007C1211127C007F4949B5
:104A60004936003E41414122007F4141221C007FE6
:104A700049494941007F09090901003E4149497AF4
:104A8000007F0808087F0000417F4100002040416E
:104A90003F01007F08142241007F40404040007FDA
:104AA000020C027F007F0408107F003E4141413E1E
:104AB000007F09090906003E4151215E007F091966
:104AC00029460046494949310001017F0101003F63
:104AD0004040403F001F2040201F003F4038403FE3
:104AE0000063140814630007087008070061514947
:104AF000454300007F41410000552A552A550000DA
:104B000041417F0000040201020400404040404057
:104B1000000001020400002054545478007F4844EF
:104B2000443800384444442000384444487F003826
:104B30005454541800087E0901020018A4A4A47C4F
:104B4000007F080404780000447D40000040808419
:104B50007D00007F102844000000417F4000007C61
:104B600004180478007C080404780038444444386D
:104B700000FC242424180018242418FC007C0804B9
:104B8000040800485454542000043F444020003C92
:104B90004040207C001C2040201C003C4030403C19
:104BA000004428102844001CA0A0A07C00446454A9
:104BB0004C441414141414140000000000000000ED
:104BC0000000000000000000000000F800000000ED
:104BD000000000333000000000100C06100C06002E
:104BE000000000000000000040C07840C078400095
:104BF000043F04043F040400007088FC08300000F7
:104C0000001820FF211E0000F008F000E01800004E
:104C100000211C031E211E0000F008887000000007
:104C20001E2123241927211010160E000000000059
:104C30000000000000000000000000E01804020076
:104C4000000000071820400000020418E0000000E7
:104C50000040201807000000404080F080404000E5
:104C60000202010F01020200000000F0000000003B
:104C70000101011F0101010000000000000000000F
:104C800080B0700000000000000000000000000084
:104C9000000101010101010100000000000000000D
:104CA00000303000000000000000000080601804A8
:104CB000006018060100000000E010080810E00085
:104CC000000F102020100F00001010F8000000004E
:104CD0000020203F20200000007008080888700095
:104CE0000030282422213000003008888848300015
:104CF0000018202020110E000000C02010F8000035
:104D000000070424243F240000F8088888080800CD
:104D10000019212020110E0000E0108888180000E2
:104D2000000F112020110E0000380808C8380800B4
:104D30000000003F00000000007088080888700034
:104D4000001C222121221C0000E010080810E000B5
:104D50000000312222110F00000000C0C00000003E
:104D60000000003030000000000000800000000063
:104D7000000080600000000000008040201008005B
:104D80000001020408102000404040404040400024
:104D900004040404040404000008102040800000FF
:104DA0000020100804020100007048080808F00004
:104DB0000000003036010000C030C828E810E000D4
:104DC0000718272423140B000000C038E00000005F
:104DD000203C23020227382008F8888888700000C9
:104DE000203F202020110E00C0300808080838009D
:104DF000071820202010080008F808080810E00014
:104E0000203F202020100F0008F88888E8081000B4
:104E1000203F20202320180008F88888E808100088
:104E2000203F200003000000C030080808380000C0
:104E300007182020221E020008F808000008F808C1
:104E4000203F210101213F20000808F80808000048
:104E50000020203F2020000000000808F80808007B
:104E6000C08080807F00000008F888C028180800F3
:104E7000203F20012638200008F80800000000002C
:104E8000203F20202020300008F8F800F8F8080023
:104E9000203F003F003F200008F830C00008F8081D
:104EA000203F200007183F00E01008080810E0002D
:104EB0000F10202020100F0008F808080808F00044
:104EC000203F210101010000E01008080810E00067
:104ED0000F18242438504F0008F8888888887000FC
:104EE000203F2000030C302000708808080838009C
:104EF0000038202121221C00180808F80808180092
:104F00000000203F2000000008F808000008F80812
:104F1000001F202020201F000878880000C83808C3
:104F2000000007380E010000F80800F80008F8003B
:104F3000033C0700073C03000818688080681808D5
:104F400020302C03032C30200838C800C838080053
:104F50000000203F2000000010080808C8380800A2
:104F60002038262120201800000000FE0202020046
:104F70000000007F40404000000C30C000000000F6
:104F8000000000010638C00000020202FE0000001E
:104F9000004040407F0000000000040202020400C4
:104FA0000000000000000000000000000000000001
:104FB00080808080808080800002020400000000E9
:104FC00000000000000000000000808080800000E1
:104FD0000019242222223F2008F8008080000000CF
:104FE000003F112020110E00000000808080000092
:104FF000000E112020201100000000808088F800A1
:10500000000E112020103F200000808080800000D2
:10501000001F222222221300008080F08888881836
:105020000020203F20200000000080808080800041
:10503000006B94949493600008F8008080800000D6
:10504000203F210000203F200080989800000000B1
:105050000020203F202000000000008098980000E1
:1050600000C08080807F000008F800008080800001
:10507000203F24022D302000000808F80000000026
:105080000020203F202000008080808080808000E1
:10509000203F20003F20003F808000808080000073
:1050A000203F210000203F20000080808080000001
:1050B000001F202020201F00808000808000000032
:1050C00080FFA12020110E00000000808080800061
:1050D000000E112020A0FF80808080008080800052
:1050E00020203F212000010000008080808080007F
:1050F0000033242424241900008080E080800000F4
:105100000000001F20200000808000000080800040
:10511000001F202020103F208080800000808080A1
:1051200000010E3008060100808000800080808031
:105130000F300C030C300F00008080008080800056
:105140000020312E0E312000808080000080808081
:1051500080818E7018060100008080808080800031
:105160000021302C2221300000000000807C02024F
:1051700000000000003F404000000000FF00000071
:1051800000000000FF0000000002027C8000000020
:105190000040403F0000000000060101020204043C
:1051A0000000000000000000000000000000FEFF02
:1051B00000000000000000C1814001C0804101C02A
:1051C000804100C1814001C0804100C1814000C1D7
:1051D000814001C0804101C0804100C1814000C1C7
:1051E000814001C0804100C1814001C0804101C0B7
:1051F000804100C1814001C0804100C1814000C1A7
:10520000814001C0804100C1814001C0804101C096
:10521000804100C1814000C1814001C0804101C086
:10522000804100C1814001C0804100C1814000C176
:10523000814001C0804101C0804100C1814000C166
:10524000814001C0804100C1814001C0804101C056
:10525000804100C1814000C1814001C0804101C046
:10526000804100C1814001C0804100C1814000C136
:10527000814001C0804100C1814001C0804101C026
:10528000804100C1814001C0804100C1814000C116
:10529000814001C0804101C0804100C1814000C106
:1052A000814001C0804100C1814001C0804101C0F6
:1052B000804100C1814000C0C101C30302C2C606D3
:1052C00007C705C5C404CC0C0DCD0FCFCE0E0ACA3E
:1052D000CB0BC90908C8D81819D91BDBDA1A1EDE8E
:1052E000DF1FDD1D1CDC14D4D515D71716D6D2123E
:1052F00013D311D1D010F03031F133F3F23236F64E
:10530000F737F53534F43CFCFD3DFF3F3EFEFA3AFD
:105310003BFB39F9F83828E8E929EB2B2AEAEE2E8D
:105320002FEF2DEDEC2CE42425E527E7E62622E2FD
:10533000E323E12120E0A06061A163A3A26266A64D
:10534000A767A56564A46CACAD6DAF6F6EAEAA6ABD
:105350006BAB69A9A86878B8B979BB7B7ABABE7E0D
:105360007FBF7DBDBC7CB47475B577B7B67672B2BD
:10537000B373B17170B0509091519353529296564D
:105380005797559594549C5C5D9D5F9F9E5E5A9A7D
:105390009B5B99595898884849894B8B8A4A4E8E0D
:1053A0008F4F8D4D4C8C448485458747468682427D
:1053B0004383418180400000D85300080000002052
:1053C000C810000064070008DC550008C810002061
:1053D000F82400000C2F0008412D010203040410E2
:1053E00009060708090204060814010DAC12074259
:1053F000024B04B00A031A2442021301CB0F270800
:10540000917CA24A043859741127F8088888080842
:1054100027E010080810E01F19212020110E3D265A
:10542000102020100F1808FE0212929292F20434FB
:105430001202FE1CFF40480118084F484A4C4840E1
:10544000FFA4180B84E45C44C48082FE82820412B0
:1054500080280A02017F10103F80601F2B31280E28
:105460001060020CC0021EE2020202E21ED4280FEB
:10547000047C0380804020130C1320408080601A3D
:1054800042012AFA055960280A50484443404142E3
:105490004458600112D33636100A03050911FF1172
:1054A0008905C312E012F072F8073D4428FF11AAE3
:1054B00044700B830138448292927401831E7C44B1
:1054C000C7017D01990559A19A0102818A010B0149
:1054D0003669419949FA0101A12A4001212A6D0149
:1054E000212A6001791501642ADB010915072ADAEE
:1054F00001212AD801212AC0010915072A800101AA
:10550000352A06010918071CE66620076A86157AFF
:10551000861C2A8601180A80808686068686C0C078
:105520000C0E1C0606D030764D2907013113601C85
:1055300012FE1301021009C41820029E63B20E1D50
:10554000FF8181FFF24440300F12FF180923EAAABD
:10555000BFAAEA033F0B012DBC80808008011524FF
:105560000E0C082A01013149041D81808081021935
:1055700001B91706110101090C0E0A14C0012178A6
:10558000081E21404050215E08012A4DFFFFC1C185
:105590000409232D481580FCF3EFF3FC80FF80EE17
:1055A000EEEEF5FBFF9CBEB6B6883A12011202136E
:1055B0004A051B20480401FF01FF01FF01FF01FF15
:1055C00001FF01FF01FF01FF0161133147140815BD
:0C55D000481B08310401FF01FFB1627F9D
:04000005080001519D
:00000001FF
