:020000040800F2
:1000000028040020A1010008AF0300080503000830
:10001000AD030008E901000899080008000000008D
:10002000000000000000000000000000450500087E
:10003000EB0100080000000069040008FD0500084D
:10004000BB010008BB010008BB010008BB010008A0
:10005000BB010008BB010008BB010008BB01000890
:10006000BB010008BB010008BB010008BB01000880
:10007000BB010008BB010008BB010008BB01000870
:10008000BB010008BB010008BB010008BB01000860
:10009000BB010008BB010008BB010008BB01000850
:1000A000BB010008BB010008BB010008BB01000840
:1000B000BB010008BB010008BB010008BB01000830
:1000C000BB010008BB010008BB010008BB01000820
:1000D000BB010008BB010008BB010008BB01000810
:1000E000BB010008BB010008BB010008BB01000800
:1000F000BB010008BB010008BB010008BB010008F0
:10010000BB010008BB010008BB010008BB010008DF
:10011000BB010008BB010008BB010008BB010008CF
:10012000BB010008BB010008BB010008BB010008BF
:10013000BB010008BB010008BB010008BB010008AF
:10014000BB010008BB010008BB010008BB0100089F
:10015000BB010008BB010008BB010008BB0100088F
:10016000BB010008BB010008BB010008BB0100087F
:10017000BB010008BB010008BB010008BB0100086F
:10018000BB010008BB010008DFF810D000F01AF82E
:100190000048004701090008AFF300802804002050
:1001A0000648804706480047FEE7FEE7FEE7FEE711
:1001B000FEE7FEE7FEE7FEE7FEE7FEE701060008D2
:1001C00089010008064C074D06E0E06840F0010395
:1001D00094E8070098471034AC42F6D3FFF7D8FFF5
:1001E0003C0900085C090008FEE770470A484FF424
:1001F0007A710068B0FBF1F0401EB0F1807F0AD246
:100200004FF0E0214861054AF02082F8140D0020EB
:100210008861072008617047040000200FE000E0BB
:100220000249086008680028FCD1704700000020DF
:10023000F0B50023012403270D6804FA03F21540EA
:10024000954242D1D0F800C05E0007FA06F52CEACC
:10025000050CC0F800C091F804C0D0F800E00CFA1A
:1002600006FC4CEA0E0CC0F800C091F804C0BCF1CA
:10027000010F02D0BCF1020F1FD1D0F808C02CEA48
:10028000050CC0F808C091F805C0D0F808E00CFAD9
:1002900006FC4CEA0E0CC0F808C0D0F804C02CEAEA
:1002A000020CC0F804C0426891F806C00CFA03FCC6
:1002B0001FFA8CFC42EA0C024260C268AA43C26088
:1002C000CA79C568B2402A43C2605B1C102BB3D305
:1002D000F0BD4B07DB0E9A40C90810B500EB81005A
:1002E000016A0F249C40A1430162016A114301622B
:1002F00010BD0246002012690A4200D0012070475A
:1003000041837047FEE700001CB50121084600F05C
:10031000ADF800208DF8040001218DF807108DF84C
:100320000500C803009069460148FFF781FF1CBD26
:100330000000024070B50D4D4FF4004421462846A0
:10034000FFF7D7FF38B90A20FFF76AFF2146284692
:10035000FFF7CFFF08B1002070BD21462846FFF708
:10036000C8FF0028F9D0012070BD00000000024045
:100370007CB50121042000F079F801208DF80400FB
:1003800000218DF806108DF807004403064D8DF806
:100390000510694628460094FFF74AFF2146284683
:1003A000FFF7AEFF7CBD000000080240FEE770478B
:1003B0002DE9F0410D4606468AB090460121802085
:1003C00000F060F80121084600F050F802208DF896
:1003D0002400002440208DF8264008908DF8274006
:1003E00003201C4F8DF8250008A93846FFF720FF91
:1003F000092206213846FFF76CFFADF81640ADF82C
:100400001450154DADF81C4006968DF81E4005A9F8
:10041000284600F06FF9684600F060F96020ADF8FA
:1004200000000120ADF802000002ADF81000ADF8A8
:100430000C40CDF808806946284600F019F90021E3
:10044000284600F045F90121284600F007F90AB0D6
:10045000BDE8F08100000240001C00400146014858
:1004600000F046B9001C004070470000044A002913
:10047000116801D0014300E0814311607047000022
:1004800030380240044A0029116801D0014300E0DD
:10049000814311607047000040380240044A00293F
:1004A000116801D0014300E08143116070470000F2
:1004B0004438024070B5204A1168204C11F00C01FC
:1004C00004D06610042903D0082903D004601BE07F
:1004D000066019E01849091F0B68C3F380550B68C3
:1004E00003F03F0315B1B6FBF3F301E0B4FBF3F304
:1004F0000C680968C4F388146343C1F30141491CC3
:100500004900B3FBF1F1016011680F2303EA1111F7
:100510000B4B5C5C0168E14041601468072505EA0B
:1005200094241C5D21FA04F48460126805EA5232B6
:100530009A5CD140C16070BD083802400024F400CC
:1005400018000020704700000CB5002027490190DA
:1005500000900A6842F480320A604FF4A0430A68AF
:1005600002F400320092019A521C0192009A12B9D0
:10057000019A9A42F3D10A68920334D5012000907F
:100580001A484030026842F08052026018480268FF
:1005900042F4404202601548083002680260026876
:1005A00042F400420260026842F4A0520260031F5B
:1005B000104A1A600A6842F080720A600A68920162
:1005C000FCD50D4A40F205711160016821F003016C
:1005D0000160016841F0020101600168C1F381011D
:1005E0000229FAD10CBD00900CBD00000038024079
:1005F0000070004008544007003C024000F0B8B8CA
:10060000124810B5016841F470010160104801689A
:1006100041F0010101600E4A0021083211600268B8
:100620000C4B1A400260031D0B4A1A60026822F448
:100630008022026006480C300160FFF785FF034905
:100640004FF000608039086010BD000088ED00E0C8
:1006500000380240FFFFF6FE103000240029018818
:1006600002D041F0010101E021F001010180704759
:1006700030B5028C22F001020284028C8388048B44
:1006800022F0020224F073050C882C438D89154357
:100690004A882A430C4DA84202D00C4DA8420DD1E5
:1006A00022F00805CA8923F440732A4322F0040586
:1006B0008A882A430D8A1D434B8A2B4383800483F7
:1006C00089684163028430BD00000140000401409C
:1006D000028B22F008020A43028370470021018046
:1006E0004180818081608181C18101824182704726
:1006F0004163704730B50288164B174C98420DD0B5
:10070000A0420BD0B0F1804F08D0144DA84205D0C4
:10071000134DA84202D0134DA84203D122F0700518
:100720004A882A43104DA84206D0104DA84203D053
:1007300022F440750A892A4302804A68C2620A8804
:100740000285984201D0A04201D1897A0186012117
:10075000818230BD000001400004014000040040DF
:1007600000080040000C0040001000400014004051
:1007700003480168002902D00168491E01607047E2
:10078000000000200029818902D041F4005101E0DD
:1007900021F40051818170471CB501210846FFF703
:1007A00065FE02208DF8040000208DF8060001216E
:1007B0008DF807108DF8050048020B4C0090694633
:1007C0002046FFF735FD2015009069462046FFF7CB
:1007D0002FFD072209212046FFF77BFD07220A2172
:1007E0002046FFF776FD1CBD000002407FB50446A1
:1007F000008A0D4620F44051E88808432082A089F1
:1008000041F20C618843A9882A8911436A8902430D
:100810001143A181A08A20F44071A8890843A082D5
:100820006846FFF747FE1A48844202D019488442BE
:1008300001D1039800E00298A189090400EBC001EE
:1008400001EB0010296801D5490000E08900B0FBE8
:10085000F1F26420B2FBF0F109010B096FF0180509
:100860006B4302EB8302A3891D044FF0320306D5CC
:1008700003EBC202B2FBF0F000F0070005E003EB6F
:100880000212B2FBF0F000F00F00084320817FBDA0
:100890000010014000140140FEE700001FB50121D7
:1008A0001020FFF7FBFDFFF777FF4FF4E1300090DA
:1008B0000020ADF80800ADF804000C21074CADF89D
:1008C0000600ADF80A10ADF80C0069462046FFF7A7
:1008D0008DFF01212046FFF755FF1FBD001001408D
:1008E00002E008C8121F08C1002AFAD170477047F9
:1008F000002001E001C1121F002AFBD17047000057
:100900000024FFF773FCFFF733FDFFF7FDFCFFF753
:10091000C5FF002240F24731C720FFF749FD00BF65
:10092000FFF708FD0128FBD11434A4B22046FFF7DD
:1009300095FDC82CF4D30024F2E700005C09000800
:100940000000002028000000E008000884090008DA
:100950002800002000040000F0080008000000004B
:10096000007A030A000000000000000001020304F6
:100970000607080900000000010203040102030445
:040980000607080955
:040000050800018965
:00000001FF
